:020000040800F2
:10000000482001208D2C0008ED2F0008ED2F00085E
:10001000ED2F0008ED2F0008ED2F00080000000074
:10002000000000000000000000000000ED2F0008AC
:10003000ED2F000800000000ED2F0008ED2F000854
:080040009C1300000100000008
:1000480010B50023934203D0CC5CC4540133F9E7C4
:0200580010BDD9
:10005A0002440346934202D003F8011BFAE77047B1
:10006A0010B5C9B20244904206D003461C7801304A
:0C007A008C42F8D1184610BD002010BDCB
:1000860038B504460D4600F028F82946204400F00D
:0600960018F8204638BDF9
:10009C0038B504460D4600F01DF82946421C204692
:0600AC00FFF7DDFF38BD87
:1000B20038B504460D4600F012F82946421C204687
:0600C20000F0EEF838BD6D
:1000C80038B5054608460C4600F006F82146421C9D
:0800D8002846FFF7B5FF38BD13
:0E00E0000023C25C0AB10133FBE718467047EB
:1000EE000023C25C1AB18B4201D00133F9E71846E6
:0200FE00704749
:1001000030B50023C45C3CB14A1E12F8015F1DB13A
:0C011000AC42FAD10133F5E7184630BDCF
:10011C0030B56FF0004485B00025CDE900454FF0B7
:10012C0000444FF0FF35CDE90245012302F0C2FD3A
:04013C0005B030BD1D
:100140001FB56FF000420023CDE9002300214FF0DE
:1001500000424FF0FF33CDE902230A220B4602F0A2
:08016000AFFD05B05DF804FBE2
:100168001FB56FF000420023CDE9002300214FF0B6
:1001780000424FF0FF33CDE902230A220B4602F07A
:080188009BFD05B05DF804FBCE
:040190000020704794
:02019400FEE784
:10019600F8B5054608460E46FFF79FFF07462C466C
:1001A6002378013543B1204631463A4600F02FF810
:0C01B6000028F4D12046F8BD1846F8BD22
:1001C20030B50023C45C44B14A1E12F8015F15B178
:0E01D200AC42FAD101E00133F4E7184630BD2B
:1001E000F8B50546084616460F46FFF779FF013079
:1001F000B04234BF04463446394628462246FFF70B
:1002000023FFA64204D928190021321BFFF725FF3E
:040210002846F8BDC7
:1002140070B5154604460E46FFF760FF421C314692
:0E0224002046AA4228BF2A4600F039F870BDD5
:1002320038B50446CDB2FFF752FF231818460278AC
:10024200013BAA4203D0C4F10100C018F6D138BD67
:10025200F8B50E4604461746FFF741FF251830460B
:10026200FFF73DFFB84238BF0746314628463A46B7
:0C027200FFF7E9FE0023EB552046F8BD25
:10027E00884210B507D80023934203D0CC5CC454F7
:10028E000133F9E710BD12F1FF3202D38B5C8354B8
:04029E00F9E710BDAF
:1002A20030B50023934206D0C55CCC5C01332C1BD5
:0A02B200F8D0204630BD002030BD1A
:1002BC002DE9F04F0F468FB00021541C0D91127890
:1002CC00804610B117B1017000E0074600214FF0D5
:1002DC00FF390E460D468A468B46002A00F00882EE
:1002EC000629FDD8DFE801F0041834596090CA00E3
:1002FC00252A09D0DDF834C00CF10100B84238BF12
:10030C0008F80C200D9037E0002601214FF0FF3942
:10031C003546B246B3462FE02B2A13D007D8202AF5
:10032C0013D0232A40F0DC8145F0080524E02D2A67
:10033C0005D0302A40F0D48145F010051CE045F082
:10034C00010519E045F0020516E045F0040513E03F
:10035C00AA48805C400712D5303AD2B26FF0004008
:10036C00801A4FF00A0C90FBFCF0864202DD4FF035
:10037C00FF30D1E10CFB062622780134ADE72A2AA6
:10038C0040F0B0811E68191D002E2278BCBF45F0CC
:10039C00010576420B460134A4E12E2A40F0A481DB
:1003AC0022780421013498E79448B9F1FF3F10F802
:1003BC0002C008BF4FF000091CF0040F0DD0303AFA
:1003CC00D2B26FF00040801A4FF00A0C90FBFCF098
:1003DC008145CCDC0CFB0929CEE72A2A07D11A6807
:1003EC00013422EAE279043314F8012C7CE12D2A41
:1003FC0040F07A8114F8012B815C01F0040101F0CA
:10040C00FF090029F6D16FE16C2A23D00AD8682A9B
:10041C0012D06A2A40F06A812278062101344FF00A
:10042C00080A5AE7742A23D07A2A40F05F8122788E
:10043C004FF0060A013459E12278682A04D00134BD
:10044C0006214FF0020A48E76278062102344FF089
:10045C00010A42E722786C2A04D0013406214FF0BD
:10046C00030A3AE76278062102344FF0040A34E7B3
:10047C002278062101344FF0070A2EE76E2A00F08D
:10048C0009810DD8632A33D005D8582A40F01D8134
:10049C0045F040053AE1642A2CD0692A2AD014E1AF
:1004AC00732A00F093801DD86F2A43D0702A40F035
:1004BC000C811A6803F1040C0023CDE9002345F0EC
:1004CC008805102302930396CDF8109005954046AD
:1004DC000DA93A46CDF820C002F06CFCDDF820C026
:1004EC006346F9E0752A2AD0782A00F00F81ECE0F7
:1004FC000D995DE00AF1FF32072A13D8DFE802F00C
:10050C000407120A1212120A93F900000BE0B3F955
:10051C00000008E0073323F0070202F10803D2E9D8
:10052C00000102E01868C11704330A22CDE900016A
:10053C00029228E0BBF1000F00F0EB8004E0BBF16D
:10054C00000F01D14FF00A0B0AF1FF3245F0800584
:10055C00072A11D8DFE802F0040610081010100862
:10056C0018780AE0188808E0073323F0070202F134
:10057C000803D2E9000102E0186800210433CDE938
:10058C000001CDF808B00396CDF8109005954046C3
:10059C000DA93A46089302F00DFC089B9CE0BA4268
:1005AC0004D208EB0201202001F8010C013E114697
:1005BC00012E01F10102F2DC181D1B68BA420D91EB
:1005CC0038BF08F801300D92034685E0181D0B90DA
:1005DC00B9F1FF3041421A684141099102B9084A08
:1005EC000023D15C31B9F31AE90723EAE3730CD584
:1005FC005B420AE0099828B10133F2E74C1200087B
:10060C00C93F00084B45F7DBEDE70D9907910798BB
:10061C001844401A002809DD0131B942F7D208EB21
:10062C0001004FF0200C00F801CCF0E7079823EA0A
:10063C00E371013A5B1A01440A920D914A460A98F9
:10064C0010F8011F0A9089B1099848B1DDF834C03F
:10065C000CF10100B84238BF08F80C100D90EEE711
:10066C00002A02F1FF3001DD0246EFE70D991A4630
:10067C0062B1481CC01A1044B84205D2C81A404492
:10068C004FF0200C00F802C00132F1E7CB1A0D93A9
:10069C000B9B21E00AF1FF300D9A191D072810D889
:1006AC00DFE800F004070F0A0F0F0F0A1B681A701F
:1006BC0009E01B681A8006E018680023C0E90023D3
:1006CC0001E01B681A600B4606E00D98411CB9420C
:1006DC0038BF08F800200D91227800210134FCE588
:1006EC000221FAE50321F8E50521F6E50621F4E5FA
:1006FC000D98B84202D208F8002003E017B1474425
:10070C0007F8012C064B984206D930E64FF0100B37
:10071C001AE74FF0080B17E70FB0BDE8F08F00BFDA
:04072C00FEFFFF7F4E
:100730000CB407B504AB53F8042B0193FFF7BEFDCF
:0A07400003B05DF804EB02B070474F
:10074A0010B50C4613466FF000412246FFF7B1FD83
:02075A0010BDD0
:10075C000EB403B503AA52F8041B0192FFF7EFFF86
:0A076C0002B05DF804EB03B0704723
:0407760000207047A8
:10077C00024B5A6F42F080725A6770470038024041
:10078C00038819B19BB243F0010303E023F001038A
:08079C001B041B0C03807047D5
:0C081000014B01229A607047003002404A
:0C081C00014B1860186870470030024063
:1008280000EB81018842044B03D050F8042B1A6076
:0C083800F8E71868704700BF003002406D
:0C084400014B1868704700BF00300240F4
:10085000044B9A6809B1104301E022EA0000986055
:08086000704700BF002004E016
:10086800044B1A69002A04DA034A5A6002F18832F2
:0C0878005A607047003C024023016745B5
:10088400024B1A6942F000421A617047003C024070
:0C089400014BD860704700BF003C0240E0
:1008A0000B4BDA68D1030CD4DA68D2060BD4DA68C1
:1008B00012F0EF0F09D1DB689B074CBF072008201F
:1008C000704701207047052070470620704700BF21
:0408D000003C0240A6
:1008D40070B5064631B1012906D0022907D14FF47B
:1008E400007506E00D4604E04FF4807501E04FF416
:1008F400407500F0B9FB08281ED1104C236923F47D
:100904004073236123691D432561236923F0F803A0
:100914002361236943F002031E432661236943F4E0
:100924008033236100F0A0FB236923F002032361D9
:10093400236923F0F803236170BD00BF003C02402B
:1009440070B505460E4600F08FFB082811D1094CFE
:10095400236923F44073236123692361236943F0EA
:10096400010323612E7000F07FFB236923F0010350
:08097400236170BD003C02404C
:0C097C00014B1860704700BF00300040C5
:0C098800014B5860704700BF0030004079
:0C099400014B9860704700BF003000402D
:1009A000024B4AF6AA221A60704700BF003000408E
:1009B000024B4CF6CC421A60704700BF003000403A
:0C09C000014B1860704700BF20000E4281
:0C09CC00014B1860704700BFA0000E42F5
:1009D800034B5B6818420CBF00200120704700BF22
:0409E800007000405B
:1009EC00024B1A6842EA80001860704700700040A1
:1009FC000A4B00211A6842F001021A6099601A68C9
:100A0C0022F0847222F480321A60054A5A601A6805
:100A1C0022F480221A60D960704700BF003802406F
:040A2C001030002462
:100A3000064B002201281A701A7002D0042802D036
:100A400070471870704705221A707047703802405E
:100A50001D4B10B59A6802F00C02042A03D0082A34
:100A600003D01A4B18E01A4B16E059685A6811F473
:100A7000800F596814BF164B144B02F03F02B3FBB2
:100A8000F2F3114AC1F3881152684B43C2F3014299
:100A900001325200B3FBF2F30B4903608B680D4A3D
:100AA000C3F30313D45C0368E34043608C68C4F36E
:100AB0008224145D23FA04F484608968C1F342310E
:100AC000525CD340C36010BD003802400024F400E3
:080AD00040787D01D03F0008D1
:100AD80000F44073B3F5407F084B08D1996820F0C3
:100AE800704221F4F81122F440720A439A601A6F96
:100AF800C0F30B0010431867704700BF003802406E
:0C0B0800014B1860704700BF3C0E4742D4
:100B1400044B1A6B09B1104301E022EA0000186388
:080B2400704700BF00380240D9
:100B2C00044B1A6C09B1104301E022EA000018646E
:080B3C00704700BF00380240C1
:100B4400044B5A6C09B1104301E022EA00005864D6
:080B5400704700BF00380240A9
:100B5C00044B1A6909B1104301E022EA0000186144
:080B6C00704700BF0038024091
:100B7400044B5A6909B1104301E022EA00005861AC
:080B8400704700BF0038024079
:100B8C00044B9A6909B1104301E022EA0000986114
:080B9C00704700BF0038024061
:100BA400044B1A6A09B1104301E022EA00001862FA
:080BB400704700BF0038024049
:100BBC00044B5A6A09B1104301E022EA0000586262
:080BCC00704700BF0038024031
:100BD4004309012B074A01D1136803E0022B0CBF20
:100BE400136F536F00F01F0023FA00F000F00100B0
:080BF400704700BF0038024009
:100BFC00002382B001930D4BDA68520613D44FF0E8
:100C0C00FF32DA60094BDA68019902F040020131D7
:100C1C0001910199B1F5803F01D0002AF2D0D8683A
:100C2C00C0F3801000E0012002B0704700280040A3
:100C3C00024BDA6822F08002DA607047002800402C
:100C4C0038B50F4CCA236362532363620546FFF722
:100C5C00CFFF88B1A36823F04003A360A2682B6880
:100C6C001343A360AB68236123696A6843EA0243B8
:100C7C002361FFF7DDFF0120014BFF225A6238BDD3
:040C8C0000280040FC
:100C9000002382B001930E4BCA225A6253225A6239
:100CA000DA6822F0A002DA60094BDA68019902F0F2
:100CB0002002013101910199B1F5004F01D0002AC4
:100CC000F2D0D868FF22C0F340105A6202B07047D9
:040CD00000280040B8
:100CD400224A2DE9F0410B780C464F788E789268C1
:100CE40020B912F0400225D1CA7023E012F040026C
:100CF40000D1CA703F0247EA0343E5781E4346EA3F
:100D04000545164CCA23636253236362FFF774FFDD
:100D140058B105F07F3020F0FE402060FFF78CFFD3
:100D2400FFF7B4FF003018BF01200C4BFF225A62BA
:100D3400BDE8F081184600F012FA8046384600F00B
:100D44000EFA0746304600F00AFAE57840EA054014
:100D540040EA084545EA0725D3E700BF00280040DC
:100D64000F4B70B51B680C46C3F30542C3F306264C
:100D740003F07F0503F480031B0C0A704E708D7022
:100D8400CB7058B9104600F0F7F92070304600F0E7
:100D9400F3F96070284600F0EFF9A07070BD00BF51
:040DA40000280040E3
:100DA8002DE9F0410C464B78CA788F780E7878BBDD
:100DB800D90603D523F010030A336370104600F0F8
:100DC800CCF98046607800F0C8F90446384600F04F
:100DD800C4F940EA463040EA084545EA0425104C83
:100DE800CA23636253236362FFF704FF58B125F0F7
:100DF8007F4323F0C0036360FFF71CFFFFF744FF46
:100E0800003018BF0120064BFF225A62BDE8F0816E
:100E18001D0245EA02453D4345EA4635DFE700BF86
:040E2800002800405E
:100E2C000E4B70B55B680C46C3F30742C3F3042644
:100E3C0003F03F05C3F34233CA704E708D700B70D4
:100E4C0058B9104600F094F9E070304600F090F973
:100E5C006070284600F08CF9A07070BD002800402E
:100E6C00084B9A6822F4006222F0080209B142F49D
:100E7C0000621043CA225A6253225A62FF229860BF
:080E8C005A6270470028004083
:100E940082B000230193054B0193019B03EB800077
:100EA4000190019B196002B0704700BF50280040B8
:100EB40082B000230193054B0193019B03EB800057
:100EC4000190019B186802B0704700BF5028004091
:100ED400044B1A6C22F400321A641A6C104318641E
:080EE400704700BF0028004028
:100EEC000D4BCA225A6253225A6220F0040200F0BF
:100EFC00040029B199680A439A601A6C104306E001
:100F0C00996821EA02029A601A6C22EA00001864BD
:0C0F1C00014BFF225A6270470028004081
:100F2800054BDB6823F088039B049B0C03420CBF32
:0C0F380000200120704700BF002800408E
:100F4400054B80B2DA6840F0800002F0800262EA69
:0C0F54000002DA60704700BF0028004077
:100F600008B5134B98420AD14FF480500121FFF786
:100F700025FE4FF480500021FFF720FE08BD0D4BE9
:100F8000984207D14FF480400121FFF70BFE4FF448
:100F9000804009E0084B984209D14FF400400121FC
:100FA000FFF700FE4FF400400021FFF7FBFD08BDF6
:0C0FB0000030014000380040003C0040D0
:100FBC00038ACA889BB223F4405330B513430D46C1
:100FCC0003820989AB8882890B43698992B20B43EE
:100FDC0022F4B05222F00C029BB213438381838A19
:100FEC00AA899BB223F44073134385B083820446D1
:100FFC006846FFF727FD194B9C4203D003F580632D
:10100C009C4201D1039B00E0029BA289192112B2E0
:10101C005943002A2A684FF06403B4BF520092006F
:10102C00B1FBF2F1B1FBF3F21201100903FB101149
:10103C00A08900B2002806DAC9003231B1FBF3F303
:10104C0003F0070305E009013231B1FBF3F303F0C0
:10105C000F031A4392B2228105B030BD001001403B
:10106C0007B508238DF80730FFF714FC8DF807003F
:10107C009DF80730012BF7D09DF8070003B05DF801
:02108C0004FB63
:10108E002DE9F0410F68002301229A4002EA07057C
:10109E00954230D15A00032494400668E44326401A
:1010AE0006600E79D0F800C006FA02F8013E48EA52
:1010BE000C0C012EC0F800C014D891F805C086683B
:1010CE000CFA02FC2640866086684CEA06068660AC
:1010DE00466826EA050545608D7946689D40ADB2A5
:1010EE0035434560C5682C40CD79C46005FA02F2DF
:1010FE00C4682243C2600133102BC5D1BDE8F08114
:10110E004FF6FF7303600023037143718371C37144
:02111E00704718
:0C112000036919420CBF00200120704739
:04112C000183704784
:041130004183704740
:0A1134000AB1018370474183704740
:10113E0001F00703C90800EB81009B000F219940C5
:10114E009A4010B5046A24EA01010162016A114352
:04115E00016210BD5D
:1011620000230928DAB203F1010302D90A38C0B216
:0A117200F7E740EA0210C0B2704730
:10117C00030903EB830300F00F0000EB4300C0B244
:02118C007047AA
:0C118E0000217F22FF2380E80E00704744
:0C119A000023C370037043708370704723
:0E11A60001230370837043700023C3707047F1
:1011B4000B8810B54C88028823438C8802F4415272
:1011C4002343CC8823430C8923434C8923438C89B0
:1011D4002343CC89234313439BB20380838B23F49F
:0E11E40000631B041B0C83830B8A038210BD67
:1011F200038819B19BB243F0400303E023F040039C
:081202001B041B0C0380704764
:06120A00808980B27047EC
:041210008181704721
:0C121400038919420CBF00200120704724
:10122000838919B19BB243F4005303E023F40053C4
:081230001B041B0C83817047B5
:08123800C1F308018180704739
:0C124000038819420CBF002001207047F9
:10124C00202020202020202020282828282820206A
:10125C002020202020202020202020202020202082
:10126C00481010101010101010101010101010103A
:10127C0004040404040404040404101010101010DA
:10128C001081818181818101010101010101010133
:10129C0001010101010101010101011010101010E7
:1012AC001082828282828202020202020202020204
:1012BC0002020202020202020202021010101020AC
:1012CC000000000000000000000000000000000012
:1012DC000000000000000000000000000000000002
:1012EC0000000000000000000000000000000000F2
:1012FC0000000000000000000000000000000000E2
:10130C0000000000000000000000000000000000D1
:10131C0000000000000000000000000000000000C1
:10132C0000000000000000000000000000000000B1
:10133C0000000000000000000000000000000000A1
:10134C004BB942B9002908BF002802D04FF0FF3139
:10135C00084600F03BB882B0EC462DE9005000F096
:10136C001DF8DDF804E002B00CBC70472DE9704F9D
:10137C00089E14461D468046894600F029F804FB59
:10138C0001F3A4FB00AB00FB05329344B8EB0A0855
:10139C0069EB0B09C6E90089BDE8708F2DE9704F28
:1013AC00089E14461D468046894600F061F900FBF4
:1013BC0005F5A0FB04AB04FB0154A344B8EB0A08ED
:1013CC0069EB0B09C6E90089BDE8708F704700BF57
:1013DC0000292DE9F00FC0F2A1800024002BC0F2EF
:1013EC009880154606460F46002B3FD18A4258D9A5
:1013FC00B2FA82F34BB1C3F1200201FA03F720FADF
:10140C0002F29D4000FA03F61743290CB7FBF1F2E8
:10141C0001FB1277A8B200FB02F34FEA164C4CEA20
:10142C000747BB4209D97F1902F1FF3C80F00581C7
:10143C00BB4240F20281023A2F44FF1AB7FBF1F390
:10144C0001FB137100FB03F0B6B246EA014188427E
:10145C0008D9491903F1FF3780F0F180884240F236
:10146C00EE80023B43EA0242002303E08B420AD99E
:10147C0000231A461046194614B1404261EB410153
:10148C00BDE8F00F7047B3FA83F8B8F1000F40F0E5
:10149C0088808B4202D3824200F2E2800023012238
:1014AC00E8E712B90123B3FBF2F5B5FA85F2002A8D
:1014BC003AD17F1B280C1FFA85FC0123B7FBF0F1F6
:1014CC0000FB11770CFB01F24FEA164848EA07477C
:1014DC00BA4207D97F1901F1FF3802D2BA4200F2A1
:1014EC00C4804146BF1AB7FBF0F200FB12700CFB34
:1014FC0002FCB6B246EA0040844507D9401902F115
:10150C00FF3702D2844500F2AE803A4642EA0142ED
:10151C00B0E7E443524263EB430362E7404261EBC2
:10152C0041014FF0FF3459E79540C2F1200927FAE9
:10153C0009F126FA09F99740280CB1FBF0F800FBE9
:10154C0018111FFA85FC0CFB08F349EA07094FEA4E
:10155C00194747EA01418B4206FA02F608D94919A4
:10156C0008F1FF327AD28B4278D9A8F102082944CB
:10157C00C91AB1FBF0F300FB13170CFB03F21FFAB3
:10158C0089F949EA0747BA4207D97F1903F1FF31B4
:10159C0060D2BA425ED9023B2F44BF1A43EA0843D9
:1015AC008CE7C8F1200225FA02F103FA08FC27FAAD
:1015BC0002F320FA02F207FA08F741EA0C0C4FEAA0
:1015CC001C49B3FBF9F109FB11331FFA8CFA0AFB26
:1015DC0001FB17433A0C42EA03439B4505FA08F01A
:1015EC0008D913EB0C0301F1FF3235D29B4533D9EB
:1015FC0002396344CBEB0303B3FBF9F209FB12335F
:10160C000AFB02FABFB247EA0347BA4508D917EBFF
:10161C000C0702F1FF331BD2BA4519D9023A6744C1
:10162C0042EA0145A5FB0001CAEB07078F424FF0C8
:10163C0000030AD305D02A461CE76246FDE63B466A
:10164C0010E706FA08F68642F5D26A1E002311E767
:10165C001A46E5E70B46A0E71146CBE7904687E72D
:10166C004346424606E7023A50E702392F4439E72F
:10167C002DE9F00F144605460E46002B43D18A4245
:10168C0053D9B2FA82F757B1C7F1200620FA06F601
:10169C0001FA07F302FA07F400FA07F51E43210CCE
:1016AC00B6FBF1F201FB1266A0B200FB02F32F0CA9
:1016BC0047EA0646B34209D9361902F1FF3780F0E2
:1016CC00FD80B34240F2FA80023A2644F61AB6FB89
:1016DC00F1F301FB136100FB03F0ADB245EA0141EC
:1016EC00884208D9091903F1FF3680F0E980884255
:1016FC0040F2E680023B43EA0242002310461946C0
:10170C00BDE8F00F70478B424CD8B3FA83F6002E2D
:10171C004FD18B4202D3824200F2DD80BDE8F00F44
:10172C000023012210461946704712B90124B4FB5C
:10173C00F2F4B4FA84F2002A40F08280091B260CE1
:10174C00A7B20123B1FBF6F006FB101107FB00F268
:10175C004FEA154C4CEA01418A4207D9091900F1AC
:10176C00FF3C02D28A4200F2C8806046891AB1FB63
:10177C00F6F206FB121107FB02F7ADB245EA014582
:10178C00AF4208D92C1902F1FF3180F09B80A7429F
:10179C0040F29880023A42EA004210461946BDE8EF
:1017AC00F00F704700231A4610461946BDE8F00F9B
:1017BC007047C6F1200522FA05F703FA06F421FA60
:1017CC0005F301FA06FB20FA05F53C434FEA1448F1
:1017DC00B3FBF8FC08FB1C331FFA84F909FB0CFA69
:1017EC0045EA0B0B4FEA1B4545EA03439A4502FABF
:1017FC0006F204D91B190CF1FF356FD3AC46CAEBBA
:10180C000303B3FBF8F508FB153309FB05F91FFAC5
:10181C008BFB4BEA0347B94504D93F1905F1FF335C
:10182C0062D31D4645EA0C4CACFB0223C9EB0707FF
:10183C009F424FF000054AD346D062462B465DE7E7
:10184C009440C2F1200921FA09FC914020FA09F9CF
:10185C00260CBCFBF6F806FB18CCA7B207FB08F36A
:10186C0049EA01094FEA194141EA0C4C634500FA77
:10187C0002F509D91CEB040C08F1FF323BD263458D
:10188C0039D9A8F10208A444C3EB0C0CBCFBF6F349
:10189C0006FB13C107FB03F21FFA89F949EA014160
:1018AC008A4207D9091903F1FF3022D28A4220D982
:1018BC00023B2144891A43EA084343E73A4605E7C9
:1018CC00334618E70A4666E7B0409042B5D20CF1B1
:1018DC00FF32002312E7334632460FE79A458DD983
:1018EC00ACF1020C23448AE7B9459AD9023D27444E
:1018FC0098E70346DEE79046C6E70238214435E711
:10190C00BFF34F8F044A054BD16801F4E0610B43E0
:10191C00D360BFF34F8FFEE700ED00E00400FA0543
:10192C0010B5044608484021FFF784FC0028F9D084
:10193C0005482146FFF77AFC03484021FFF77AFC63
:10194C000028F9D010BD00BF00480040014608B582
:10195C000448FFF757FC03480221FFF755FC002809
:10196C00F9D008BD0038004000B9074803680133BE
:10197C0008D04368013305D0C069044BC31A5842E0
:10198C005841704700207047004000086F57654E63
:10199C00074B1A69C2F306427F2A07D11869C0F3B4
:1019AC000C00B0F1FF0358425841704700207047BB
:1019BC000028004000F13F4000F57E00800A082816
:1019CC000FD8084A52F820305BB1013B42F8203066
:1019DC003BB9012101FA00F0034B1A6B22EA00001B
:1019EC0018637047200000200038024000F13F408F
:1019FC0000F57E00800A08280DD8074A52F82030DE
:101A0C00591C42F8201033B9012101FA00F0034BA4
:101A1C001A6B1043186370472000002000380240F6
:101A2C0010B50C4C2046FFF7E1FF072001F01AFB24
:101A3C004FF4805100222046FFF776FB042001F082
:101A4C0011FB2046FFF7B6FF4FF480400021FFF753
:101A5C0067F810BD0004024010B50B4C01214FF487
:101A6C008040FFF75DF82046FFF7C0FF20464FF49B
:101A7C0080510122FFF758FB072001F0F3FA2046B2
:101A8C00FFF798FF10BD00BF00040240F0B55E25C3
:101A9C006843204BB0FBF1F51A68ADF6DC3D95427E
:101AAC0034D002AC00214FF43D6220461D60FEF79D
:101ABC00CEFA1B238DE81800174810214022692309
:101ACC0001F0B3FA08238DE818001448602318219C
:101ADC006A2201F0AAFA0DF2FA760DF28E73002248
:101AEC00AA420DD002F11900C0B2C108012700F0C2
:101AFC00070007FA00F05F5C013238435854EFE7F7
:101B0C001233B342EBD1204601F0F9FA0DF6DC3D6D
:101B1C00F0BD00BF00000020FC370008913B00081E
:101B2C002DE9F043ADF6DC3D02AC00214FF43D62F3
:101B3C0080462046FEF78BFA2C238DE818002022D5
:101B4C00284818215C2301F070FA1C2215460F2737
:101B5C00974007EA0807D740234B242101FB07379E
:101B6C000DF50366002117F801C00023082B07D0E0
:101B7C000120984010EA0C0F0CBF0020012003E05C
:101B8C007818407800F0010078B15819C0B24FEACB
:101B9C00D00E4FF0010900F0070009FA00F016F81A
:101BAC000E9040EA090006F80E000133092BDDD136
:101BBC000231242906F11206D5D10B35742DA2F170
:101BCC000402C4D10E238DE81800102190226D233D
:101BDC00064801F02AFA204601F091FA0DF6DC3D98
:101BEC00BDE8F083EC350008E83200082835000821
:101BFC0010B5ADF6D83D02AC204600214FF43D6245
:101C0C00FEF725FA1B238DE81800102140226923CA
:101C1C00044801F00AFA204601F071FA0DF6D83D9D
:101C2C0010BD00BFFC3700082DE9F74F434E444F61
:101C3C0001214FF48040FEF773FF3046FFF7D6FECC
:101C4C003846404CFFF7D2FE30460D210522FFF7F7
:101C5C0070FA052230460F21FFF76BFA3046214609
:101C6C000125FFF70EFA2023384621462360257103
:101C7C00A5714FF0000A01934FF4805BFFF701FA56
:101C8C00304621464FF002084FF48049257184F804
:101C9C0006A0C4F800B0FFF7F4F93046214684F8EA
:101CAC000480C4F80080FFF7ECF921462571A5717A
:101CBC00C4F80090244C3046FFF7E3F92046FFF7B8
:101CCC0049F920462149FFF76FFA20462946FFF7CC
:101CDC008AFA019B384619465246FFF725FA2A46DE
:101CEC0030464946FFF720FA40462946FEF718FFD2
:101CFC00A4F5505480232380F92323854FF4F0421C
:101D0C004FF6FF13E3623046A28329462364424612
:101D1C00A4F820B0FFF70DFA29462046A582FEF75D
:101D2C002FFD3846FFF746FE3046FFF743FE484688
:101D3C005146FEF7F5FE03B0BDE8F08F00040240FB
:101D4C000008024004000020003800400C00002075
:101D5C0010B5074C2046FFF749FE20461021FFF72F
:101D6C00DFF92046FFF726FE012001F07BF910BDBC
:101D7C000000024038B50A4B0C2404FB00346068A8
:101D8C00FFF734FE21896068FFF7C4F905466068E7
:101D9C00FFF710FED5F1010038BF002038BD00BFA1
:101DAC00A032000810B5064C2046FFF71FFE204657
:101DBC001021FFF7B7F92046FFF7FCFD10BD00BF5F
:101DCC0000000240F0B587B0FFF7E2FD002841D1DA
:101DDC000320FFF769F807460420FFF765F8474B27
:101DEC000A241A68C2F30545C2F30626C2F302138D
:101DFC0002F00F0204FB0322330906F00F0604FB6A
:101E0C0003662B0905F00F0504FB03533C2505FB6A
:101E1C00036305FB0323191A44BF01F5A83101F52F
:101E2C00C07107EB91210320FFF72EF803A8FFF7F1
:101E3C00A8F903A8FEF704FF01A8FFF7A8F901A968
:101E4C000020FEF741FF02A8FFF7A7F9002002A926
:101E5C00FEF7A4FF0A2442F2107501F072F910B9D2
:101E6C00013DFAD107E0264D01F06BF908B1013DB7
:101E7C00FAD1013CEFD10020FEF7A2FD00214FF278
:101E8C000400FFF72DF84FF43C50FFF755F81D4BAD
:101E9C0001201A6842F004021A60FEF791FD1A4BF9
:101EAC001B781BB1194801F06BF908E01848FEF7D4
:101EBC0011F9174902461748FEF7EDF970B11648AB
:101ECC0001F05EF90020FEF7FFFF08200121FEF76C
:101EDC00C7FF4FF400400121FFF702F80F4801F053
:101EEC004FF9084B1A6842F002021A600C4B1A693F
:101EFC0042F004021A6130BF07B0F0BD0028004068
:101F0C00A086010000700040017AFF1F763900089E
:101F1C008B3900082078FF1F91390008A63900087A
:101F2C0000ED00E0B0F1006F10B504460BD20D4887
:101F3C0001F01DF9204601F029F90B4801F020F9B8
:101F4C004FF0FF3010BD094A002352F8041FA14284
:101F5C0002D851688C4202D30133072BF5D11846B5
:101F6C0010BD00BFBA3A0008B73900087C3200082F
:101F7C0008B5024801F004F9FFF7C2FCD03900089B
:101F8C0010B504460A480221FFF73EF90028F9D0A3
:101F9C0007482146FFF736F905480121FFF734F9C8
:101FAC000028F9D00248FFF72AF9C0B210BD00BFD3
:101FBC00003001402DE9F04F87B00121814600AF80
:101FCC000020FFF763FD042001F067F807F10C0017
:101FDC0049460C2201F0FFF8FD683C690C2DD7F83E
:101FEC0014B013D0994801F0C2F8284601F0CEF88D
:101FFC00974801F0BCF8204601F0C8F8954801F06C
:10200C00B6F8584601F0C2F8934833E0934801F013
:10201C00B7F84FF480500121FEF776FD09F10C0959
:10202C00EA46FEF7EFFBA0B06E462546C846802D6B
:10203C000CD941463046802201F0CDF830462021A3
:10204C00FEF7ECFB803D08F18008F0E725B1304647
:10205C0041462A4601F0BFF82946304600F0CAFF37
:10206C00002180464FF48050FEF74EFDD845D546F2
:10207C0004D07B4801F084F80120E3E088B0684686
:10208C004946202201F0A7F86846FFF76DFC7860FE
:10209C007448D54601F074F87B682BB9724801F08E
:1020AC006FF804F5404600E02646002E3BD06F4802
:1020BC00FFF738FF05466E483044FFF733FF002D1D
:1020CC00824630DB00282EDB431B01334FEA430BE7
:1020DC0000205946FFF7DAFCFEF7C0FB654B0026E3
:1020EC0003EB45033B6055451BDCF320FEF7CCFBB3
:1020FC003B68002133F81600FEF7E6FB082806F1D2
:10210C00010608D05C4801F032F8284601F03EF890
:10211C0001F025F805E030465946FFF7B7FC0135CC
:10212C00E1E7FEF7A9FB554801F02AF87B680BB1F3
:10213C004E4B00E0524B7B6063083B600025A54290
:10214C003CD2661BB6F5803F28BF4FF480362EB1CB
:10215C004C4805EB0901324601F03DF8D7F804A0D4
:10216C00FEF77CFBF320FEF78FFBAA444FF0000B2D
:10217C00B34519D043490BEB0A0011F80B10FEF7CD
:10218C00DBFB08280DD0404800F0F1FF504600F072
:10219C00FDFF00F0E4FFFEF76FFB3C4800F0F0FFA2
:1021AC000CE00BF1010BE3E7FEF766FB3B68214605
:1021BC0003EB5500FFF76AFC5D44C0E7344800F0C0
:1021CC00D6FF204600F0E2FF324800F0D9FF002095
:1021DC00FFF7CAFB20B1304800F0D2FF234D03E0DB
:1021EC002E4800F0CDFF264D4FF480500121A6085B
:1021FC00FEF78AFCFEF706FB31462846FEF70EFB7F
:10220C0004F0030105EB860000F0F4FE0021044607
:10221C004FF48050FEF778FC214800F0A8FF4046B0
:10222C0000F0B4FF1F4800F0A2FF204600F0AEFF04
:10223C0000F095FF444504D01B4800F0A1FF02209C
:10224C0000E000201C37BD46BDE8F08FDB390008EC
:10225C00E4390008EE390008F5390008143A000892
:10226C00313A0008543A0008673A00080040000868
:10227C00FF3F0008D83200087F3A0008973A000860
:10228C000000010844000020AA3A0008C33A0008E4
:10229C00CE3A0008DC3A0008E33A0008083B000894
:1022AC002D3B0008403B0008463B000870B54FF43E
:1022BC0080500121FEF740FCFFF774FD0520164C01
:1022CC00FFF75EFE002C04F1FF341FDCFFF740FD2E
:1022DC00FFF768FD9F20FFF753FEA920FFF750FE84
:1022EC000546A920FFF74CFE0646A920FFF748FE3D
:1022FC003602044646EA0545FFF72AFD4FF48050A6
:10230C000021FEF719FC45EA040070BDA920FFF777
:10231C0037FEC307D6D4D9E70090D00308B50446DE
:10232C00114800F024FF204600F030FF00F017FFAA
:10233C002046FFF7F5FB00F004FF0C4B20F00400E7
:10234C0018701D4600F0FDFE2B7800F0FB00834258
:10235C0001D10B2401E000F0C0FE013CF2D04FF49F
:10236C007A7000F07FFEF8E7F13B00084400012092
:10237C0080B5464B4FF4C06290B01A6001214FF00B
:10238C008050FEF7CDFB0120FEF714FB4048FFF711
:10239C002DFB4FF480200121FEF7C2FB3C480A21A3
:1023AC000722FEF7C6FE072239480B21FEF7C1FEB5
:1023BC0010AF4FF4806347F8383D00244FF001080C
:1023CC000225334839468DF80E408DF80F808DF874
:1023DC000C508DF80D50FEF754FE4FF400632C4852
:1023EC00394602938DF80C5004AEFEF74AFE4FF4BA
:1023FC006133049327480C233146ADF81A30ADF8FD
:10240C001440ADF81640ADF81840ADF81C40FEF77E
:10241C00CFFD41461F48FEF7FDFE1D48FFF7CAFAE7
:10242C001D4800F0A4FE1D4B586F00F0AFFE00F0ED
:10243C0096FE7920FEF7C8FB404502D1184800F003
:10244C009FFE012000F014FE10B90121FEF71CFDC7
:10245C004120FEF7B9FB58BB124800F091FE012059
:10246C00FEF7E0FA47F230544120FEF7ADFBF8B925
:10247C004FF47A7000F0F6FD013CF5D10A4800F0FB
:10248C007FFEFFF7D1FB094837E100BF003C02405B
:10249C000008024000480040FD3B000800380240A4
:1024AC000D3C00081D3C0008353C0008114550FE51
:1024BC004FF48070FEF70AFB0120FEF71FFBFEF7BE
:1024CC00E1FB0020FEF77CFA01214FF48040FEF77F
:1024DC0033FBBB48FFF78AFA3046FEF712FE0024A6
:1024EC000125B74831468DF815408DF816408DF80A
:1024FC00174004958DF81450FEF7C3FD2246B048E2
:10250C002946FEF711FEAE48FFF754FAAD4C04F124
:10251C00300954F8040CFFF769FA3046FEF7F1FD68
:10252C00236854F8040C4FF000083146022504933C
:10253C008DF814808DF815508DF817800C34FEF73B
:10254C00A0FD54F8100CFFF735FA4C45E1D14FF4CF
:10255C0080404146FEF7F0FA4FF4807000F088FDA1
:10256C00002800F0CC804FF4807000F08BFDFFF75A
:10257C0029FC954800F004FE0220FEF795FC9349D7
:10258C00884202D00220FEF77FFC914800F0EFFD5C
:10259C000220FEF789FC00F0F9FD00F0E0FD4FF49D
:1025AC00804000F065FD90B18A4800F0E9FD4FF4E1
:1025BC00804000F067FD082000F064FD102000F062
:1025CC0061FD202000F05EFD402000F05BFDFFF778
:1025DC002BFBFFF70DFB01214FF48050FEF7ACFAFB
:1025EC007748FFF703FA01200146FEF78DFA052123
:1025FC000A467348FEF79DFD714806210522FEF739
:10260C0098FD05226E480721FEF793FD0024022554
:10261C00C0236B4839468DF80C508DF80D50029341
:10262C008DF80E408DF80F40FEF72BFD20236448EB
:10263C0039468DF80F5002930125FEF722FD102329
:10264C0039465F4802938DF80C508DF80F50FEF709
:10265C0018FD6148FEF77EFC4FF48273ADF8123022
:10266C004FF40073ADF81A305B4807233146ADF8D0
:10267C002030ADF81040ADF81440ADF81640ADF870
:10268C001840ADF81C40ADF81E40FEF78DFD2946F4
:10269C005148FEF7A8FD4A48FFF78CF9FFF782FB7B
:1026AC00AB20FFF76DFCFFF753FB642000F0DAFC66
:1026BC0021464FF48050FEF73FFAFFF7F7FD28460E
:1026CC00FEF7F2FB25460490E8B2FFF753FB98BBEC
:1026DC0070550135042DF7D1049D3DB13F4800F0F4
:1026EC0046FD284600F052FD00F039FD0120294638
:1026FC00FEF7CAFB002C3DD03948FFF70FFE2846E9
:10270C00FEF764F9012814D12846FEF769F94FF455
:10271C000060FEF703FC18B1324800F031FDB9E05F
:10272C00314C00F00EFD002800F00481013CF8D182
:10273C00B0E000F0BDFC1CE7735D042B0ADD2B48F8
:10274C0000F01EFD049800F021FD01200021FEF791
:10275C009BFB0FE00133DBB2042B7355B9DD24482E
:10276C0000F005FD284600F011FD224800F008FDA0
:10277C000124AEE7FFF79AFD1F4B0344012B01D94F
:10278C001E48BAE71E4800F0F2FC0020FEF78CFB56
:10279C0000F0FCFC00F0E3FC802000F069FC18B1B8
:1027AC00802000F06FFC73E04FF4003000F060FC10
:1027BC00044638B34FF4003000F064FC04E100BF71
:1027CC0000000240A83200086D3C0008708641569B
:1027DC00A93C0008BE3C0008003001402C3D00081C
:1027EC00014550FE523C0008A0860100EB3C00085D
:1027FC00173D0008223D0008EA44DFFF024550FE69
:10280C00583D00080120FFF7B5FAD8B12046FFF774
:10281C00B1FAB8B1B74800F0B3FC41F288340120EA
:10282C00FFF7A8FA002800F08B800020FFF7A2FA2F
:10283C00002800F085804FF47A7000F013FC013C06
:10284C00EDD1C1E00020FFF78FF808B1AA4B00E0F2
:10285C00AA4B0CCB013301D0013271D1A84800F046
:10286C008FFCB1E0A74800F08BFC082000F00AFCBC
:10287C00102000F007FC202000F004FC402000F0A9
:10288C0001FC0024042000F0FDFB002C40F008812A
:10289C009D4832E7FFF77CF8002847D0002001A9BB
:1028AC009A4DFEF759FA344600203946FEF7B8FA2D
:1028BC000FCD0FC40FCD0FC495E80F0084E80F00A7
:1028CC009DF8092010A901EB82039DF80BE053F849
:1028DC00343C40F26D1101FB0E3303EB9E030EF101
:1028EC00010E1EF0030F02D1022A88BF01339DF89E
:1028FC000A409DF80410013C2344182404FB0314E3
:10290C009DF805103C2202FB04149DF806100320D0
:10291C0002FB0414FEF7C8FA01190320FEF7B4FAFF
:10292C0004200021FEF7B0FA00F0C2FB784800F05A
:10293C0027FC1EE6774800F023FCFFF743FAF5E787
:10294C007D20FEF741F970B94FF4007000F090FB58
:10295C0048B9714800F014FC082000F093FB1020DB
:10296C0000F090FB85E07D20FEF72EF910B16B484E
:10297C0000F006FC4FF4007000F07AFB10B16848D0
:10298C0000F0FEFB4FF4007000F07CFB102000F018
:10299C006FFB48B1634800F0F3FB082000F072FBBA
:1029AC00102000F06FFB12E0082000F061FB20B15A
:1029BC005D4800F0E5FB102003E05C4800F0E0FB14
:1029CC00082000F06AFB54E0594800F0D9FB594844
:1029DC0000F0D6FB4FF40010FFF7ECFA10B1022810
:1029EC0028D809E0202000F04DFB402000F04AFBE5
:1029FC00802000F052FB1DE0082000F04EFB102060
:102A0C0000F04BFB202000F033FB20B94A4800F0CB
:102A1C00B7FB202009E0402000F02AFB00287FF4BF
:102A2C0021AF464800F0ACFB402000F036FB4FF4E1
:102A3C0000701AE0012425E7414800F0A1FB0820B2
:102A4C0000F020FB102000F01DFB202000F01AFBF2
:102A5C00402000F017FB2046FFF7ACFA022840F0AC
:102A6C00F480082000F019FB102000F016FB00F099
:102A7C0034FB022000F0FCFA90B1042000F0F8FACC
:102A8C0004460028D8D02F4800F07AFB042000F030
:102A9C00F9FA022000F0F6FA4FF4004000F0F2FAD6
:102AAC004FF4005000F0E4FA04464FF4805000F06C
:102ABC00DFFA400040EA84044FF4006000F0D8FADA
:102ACC00E4B22043431C03F0FF03013B4FF40060CE
:102ADC00062B5CD8DFE803F03C383C043C383C0067
:102AEC0000F0D0FA4FF4805000F0CCFA4FF40050C4
:102AFC002EE000BF643D0008004000080000010803
:102B0C00963D0008C03E0008034550FE50320008B8
:102B1C005D3C00085F3F0008A93D0008BA3D000875
:102B2C00D23D0008F23D0008083E00081E3E000899
:102B3C00743F0008343E00084E3E0008873E0008F3
:102B4C00303F0008FA3E000800F09CFA4FF4805029
:102B5C0000F0A3FA45F25550FDF70AFF0420FDF7EB
:102B6C000DFF40F6FF70FDF70FFF0020FDF700FF93
:102B7C004FF480500121FDF765FEFDF713FFFDF7C3
:102B8C0009FF0020FEF7F0FE68B9354B0CE000F0B1
:102B9C0079FA4FF4805000F075FA4FF4005000F0C1
:102BAC0071FA3048A9E5304B5D6830481E6800F07A
:102BBC00DEFA284600F0EAFA00F0D1FA00F0CFFA7B
:102BCC0000239A0002F16042013302F561424FF09A
:102BDC00FF31082BC2F88010C2F88011F1D1244BC0
:102BEC0000241C635C639C631C645C64FDF700FF45
:102BFC0020480121FDF7ACFF21461E48FDF7A8FF38
:102C0C00F1200121FDF7B0FF2146F120FDF7ACFFCB
:102C1C0001200146FDF7B4FF21460120FDF7B0FF6E
:102C2C0015480121FDF7B8FF21461348FDF7B4FF05
:102C3C0012480121FDF7BCFF10482146FDF7B8FFF3
:102C4C0063B64FF0FF3EB5462847042000F01AFA51
:102C5C00022000F017FA4FF4004000F01EFA1FE7B4
:102C6C0000000108044550FE004000084B3F0008DE
:102C7C000038024000106022FFC9FE3633590700AD
:102C8C000748084A08B50849121AFDF7D7F907484A
:102C9C00074A0021121AFDF7DAF9FFF769FB00BFAA
:102CAC000000002020000020E03F00082000002051
:102CBC00480001202DE9F04FDDE909AB0E469C469A
:102CCC0003783B490746C95C01300D07F8D42B2B20
:102CDC0005D02D2B04D107464FF0FF3301E00746FA
:102CEC000123397830290ED17978782905D132F041
:102CFC00100103D10237102207E00AB1082A04D1CF
:102D0C000137082201E002B90A2200200021B8464E
:102D1C0017F8015BA5F13004E4B2092C0DD9A5F12B
:102D2C004104192C02D8A5F1370405E0A5F1610482
:102D3C00192C30D8A5F15704E4B294422BDA4FEA9F
:102D4C00E27900FB09F502FB0155A0FB0201E4B29C
:102D5C00294400194FF0000541EB0501BCF1000FAF
:102D6C00D5D0012B06D182457BEB0104CFDA50463E
:102D7C005946CCE75C1CCAD1DDE90B89444261EBB6
:102D8C004105444575EB0909C1DADDE90B01404207
:102D9C0061EB4101BBE70EB1C6F80080DD1700FB0B
:102DAC0005F203FB0122A0FB03011144BDE8F08FE7
:102DBC004C1200082DE9F04F91B01F9E0C463106C5
:102DCC0091468046DDE91A231E9D04D5CDE90223E8
:102DDC004FF0000C1BE0002A73F100071046194657
:102DEC0002DA504263EB4301002A73F1000ACDE989
:102DFC00020107DBB70708D416F0040C07D04FF01C
:102E0C00200C04E04FF02D0C01E04FF02B0C16F0D1
:102E1C004007089714BF704F704FDDE902AB07975E
:102E2C0000271C980137C117CDE90401DDE9042303
:102E3C000AA93944099150465946CDF804C0FEF709
:102E4C007FFA07980999835C504601F8013C594672
:102E5C00DDE90423FEF774FA82468B465AEA0B022C
:102E6C00DDF804C001D0162FDBD116F0080239466C
:102E7C001DD01C9B082B02D0102B0ED01CE0DDE9C2
:102E8C0002AB1DB95AEA0B0B13D004E05AEA0B0B38
:102E9C0012D0BD4210DC7B1C0FE0DDE902AB5AEA1C
:102EAC000B0B09D008982B4648B1582208E02B464A
:102EBC0006E02A46012303E02B46002200E078229C
:102ECC001CF1000B1D98C7EB030A18BF4FF0010B48
:102EDC00BB42A8BF1F46C01B2AEAEA7ACBEB000014
:102EEC000AB1022700E01746C71B16F0010027EABB
:102EFC00E77701D07F4205E0F60603D5013504BF24
:102F0C00BA4407463D46002D0BDD2068013D461CAA
:102F1C004E453CBF202608F8006020680130206038
:102F2C00F1E727EAE7703F1ABBF1000F08D02068E1
:102F3C00451C4D4538BF08F800C0206801302060A2
:102F4C008AB12068451C4D453CBF302508F800501F
:102F5C002568681C02354D45206038BF08F80020F4
:102F6C00226801322260BAF1000F0CD022680AF1FB
:102F7C00FF3A501C48453CBF302008F8020022683C
:102F8C0001322260EFE7DDE902AB5AEA0B0B10D1FC
:102F9C007BB919460DE0236801395A1C4A4505D204
:102FAC0001F1280568462A5C08F8032023680133E0
:102FBC0023600029EFD15FB1236801375A1C4A45C1
:102FCC003CBF202208F80320236801332360F2E77A
:102FDC0011B0BDE8F08F00BFA73F0008B83F000854
:102FEC001EF0040F0CBFEFF30880EFF30980FEF71F
:102FFC00BFBF7047032970B505460C4606D98E082D
:10300C003146FDF70BFCB6003544A41B14B9FDF793
:10301C0013FC70BD00231846EA5C0133A34242EA5C
:10302C000020F9D1FDF7F4FB70BD2DE9F041073319
:10303C00DE08079B4FF0120808FB02320731069F8F
:10304C00054602EBD1080024BC4209D0122000FB3B
:10305C00048029463246FCF7F1FF01343544F3E78E
:10306C00BDE8F0810623584301387FF4FDAF70476B
:10307C0010B504460020FDF717FF20420CBF0020BE
:10308C00012010BD10B504460020FDF70DFF20EA0D
:10309C0004010020FDF7F8FE10BD10B50446002019
:1030AC00FDF702FF40EA04010020FDF7EDFE10BD24
:1030BC001FB501A8FEF765F80723029301A80323A7
:1030CC000393FDF7BDFD6846FEF761F869460020E5
:1030DC00FDF7FAFD05B05DF804FB08B5FEF7BCFC86
:1030EC000020FEF733FC0020FEF730FC0020FEF73A
:1030FC002DFCFEF795FCFDF73BFBFEF701FC70B5D4
:10310C000646FEF7A9FC8020FEF720FCA82420BA76
:10311C0090FAA0F0C0B2FEF719FC1125705DFEF715
:10312C0015FC15F1FF35F9D20020FEF70FFC013C20
:10313C0006F11206EBD12046FEF708FCFEF770FCF8
:10314C0070BD38B500242546E0B2FEF713FEA04052
:10315C0001340543042CEDB2F6D1284638BD08B530
:10316C000D20FEF7DDFB0A20FEF7DAFB08BD10B5DB
:10317C00441E14F8010F10B1FEF7D2FBF9E710BD95
:10318C0008B5FFF7F4FFFFF7EAFF08BD1FB53023C2
:10319C008DF8043078238DF80530072399000F2221
:1031AC008A400240CA40092A01D8303202E00F2A74
:1031BC0002D85732D2B200E0202201A9CC1A13F166
:1031CC00FF336272EAD2002308468DF80E30FFF707
:1031DC00CEFF04B010BD70B504460D464FF48050C0
:1031EC0001211646FDF7A8FCFEF7DCFD0520FEF7D5
:1031FC00C7FEA920FEF7C4FEC307FAD4FEF7A8FD4C
:10320C00FEF7D0FD0320FEF7BBFEC5F30740FEF72B
:10321C00B7FEC5F30720FEF7B3FEE8B2FEF7B0FE2B
:10322C002644B44205D0A920FEF7AAFE04F8010BEF
:10323C00F7E7FEF78DFD4FF480500021FDF77CFC85
:10324C0070BD0000000000001F0000003B000000EB
:10325C005A0000007800000097000000B500000044
:10326C00D4000000F3000000110100003001000048
:10327C004E0100000000000800400008008000081B
:10328C0000C000080000010800000208000004084B
:10329C0000000608933F00080008024008000000E8
:1032AC00983F000800000240040000009B3F00080B
:1032BC000008024040000000A23F0008000002404D
:1032CC0002000000000002400100000000000800A5
:1032DC001000180020002800300038007C00FE0090
:1032EC00FF01C701C701C701C701C701C701C7015A
:1032FC00C701C701C701C701C701FF01FE007C0060
:10330C0038003C003E003E003800380038003800E1
:10331C003800380038003800380038003800FE001B
:10332C00FE00FE007C00FE00FF01C701C701C001CA
:10333C00C001E000F00078003C001E000E000F0001
:10334C000700FF01FF01FF017C00FE00FF01C70128
:10335C00C701C001C001F8007800F800C001C0012D
:10336C00C001C701C701FF01FE007C00E000E000C6
:10337C00F000F000F800F800F800FC00EC00EE00A3
:10338C00E600FF01FF01FF01E000E000E000E000CB
:10339C00FF00FF00FF000700070007007F00FF0091
:1033AC00FF01C701C001C001C701C701C701FF016F
:1033BC00FE007C007C00FE00FF01C701C701070076
:1033CC0007007700FF00FF01C701C701C701C70154
:1033DC00C701FF01FE007C00FF01FF01FF01E000BF
:1033EC00E0007000700070003800380038003800C1
:1033FC001C001C001C001C001C001C007C00FE009F
:10340C00FF01C701C701C701C701FE007C00FE0018
:10341C00C701C701C701C701C701FF01FE007C003E
:10342C007C00FE00FF01C701C701C701C701C7012E
:10343C00FF01FE01DC01C001C001C701C701FF0192
:10344C00FE007C0000000000000000007C00FE007C
:10345C00FF01C701C701F001FC01CE01C701C70183
:10346C00E701FF01DF01CE0107000700070007009D
:10347C00E700F701FF01CF01C701C701C701C70171
:10348C00C701C701CF01FF01F701E70000000000F1
:10349C00000000007C00FE00FF01C701C70107000F
:1034AC00070007000700C701C701FF01FE007C00F1
:1034BC00C001C001C001C001CE01DF01FF01E70165
:1034CC00C701C701C701C701C701C701E701FF0158
:1034DC00DF01CE0100000000000000007C00FE00B7
:1034EC00FF01C701C701C701FF01FF010700C701A9
:1034FC00C701FF01FE007C00E000F000F80038007E
:10350C00FE00FE00FE00380038003800380038009D
:10351C0038003800380038003800380000000683C6
:10352C000100000000000000000000000683010004
:10353C000000000C000000000000068301000000E9
:10354C00000C00000000D878369B79C0E3D90C8CB5
:10355C0067DB3C1BF8FD7EBFFDE0F7FB1FC6EFFBF6
:10356C007E1F98CD66B3CD60369B19C66C1866036A
:10357C0098FD66B3FD60309B19C66F18660398FD05
:10358C0066B3FD60309B19C36F186603980D66B364
:10359C000D60369B19C360186603F8FD7EBFFDEC09
:1035AC00F79B19C36F187E03D878369B79CCE399B7
:1035BC00998167183C03180000000000000080018E
:1035CC0000000000180000000000000000000000D7
:1035DC0000001800000000000000000000000000C7
:1035EC00000C000600000000600030000018000312
:1035FC0000000000C0001800003080010000000036
:10360C0080010C000060C0000000000000030600F8
:10361C0000C06000000000000006030000803100C4
:10362C0000000000008C010000001B0000000000E6
:10363C0000D8000000000E00000000000070000028
:10364C0000000E00000000000070000000001B00D5
:10365C000000000000D800000080310000000000D5
:10366C00008C010000C06000000000000006030098
:10367C000060C00000000000000306000030800164
:10368C000000000080010C00001800030000000086
:10369C00C0001800000C00060000000060003000A4
:1036AC00000000000000000000000000000000000E
:1036BC0000000000000000000000000000000000FE
:1036CC0000000000000000000000000000000000EE
:1036DC0000000000000000000000000000000000DE
:1036EC0000000000000000000000000000000000CE
:1036FC0000000000000000000000000000000000BE
:10370C000000000080FFFF0100000000000000002E
:10371C00FEFFFF7F00000000000000E07F0000FEC5
:10372C0007000000000000FE010000807F00000088
:10373C000000801F00000000F80100000000F001F4
:10374C0000000000800F000000007C000000000062
:10375C00003E000000000F000000000000F0000020
:10376C00008003000000000000C0010000E0000029
:10377C0000000000000007000070000000000000C6
:10378C0000000E00001800000000000000001800EF
:10379C00000C0000000000000000300000060000DB
:1037AC0000000000000060000003000000000000AA
:1037BC000000C0008001000000000000000080013B
:1037CC00C0000000000000000000000360000000CA
:1037DC0000000000000000063000000000000000A7
:1037EC000000000C100000000000000000000008A9
:1037FC000000000000600000030018000000000042
:10380C000000006000000300180000000000000031
:10381C0000600000030018000000000000000060C1
:10382C000000030018000000000000000060000011
:10383C0003001800000000E003001F60F800C3073D
:10384C0018C0070000F80FC07F60FE03F31F18F0CC
:10385C001F00000C1860C06003061B3018183000E5
:10386C000006303080E1010C0F60180C6000000382
:10387C00601800E3001807C01806C0008001400C57
:10388C00006200100380180380008001C00C0066E9
:10389C0000300380190380018001C0FCFF670030F9
:1038AC00038019FFFF018001C0FCFF63003003801F
:1038BC0019FFFF008001C00C006000300380190369
:1038CC0000008001C00C0060003003801903000070
:1038DC008001400C006200100380180380008003FC
:1038EC00601800C3001806C01806C00080073030EE
:1038FC008081010C0C60180C6000800D1860C000F9
:10390C00030618303818300080F90FC07F00FE0312
:10391C00F01F70F01F0080E103001F00F800C007CB
:10392C0060C00700800100000000000000000000E3
:10393C0000008001000000000000000000000000FA
:10394C008001000000000000000000000000800169
:10395C0000000000000000000000000080010000DA
:10396C00000000000000000000004E6F20485720AF
:10397C0056657273696F6E20696E204F5450004209
:10398C0042322E30007573622077616B6575702042
:10399C00737570706F7274656400456E74657269CE
:1039AC006E67207374616E64627900206973206F96
:1039BC007574736964652073797374656D20666CB6
:1039CC006173680048415244204641554C540044B0
:1039DC006573636C656E20000A4669726D6C656E6A
:1039EC0020000A5873756D20000A496E76616C6967
:1039FC0064206669726D77617265206465736372A9
:103A0C00697074696F6E2100436865636B73756DC3
:103A1C006D696E67206669726D776172652075706D
:103A2C006461746500496E76616C696420666972C4
:103A3C006D776172652043524320696E2053504963
:103A4C0020666C617368210065726173655F6F6CD1
:103A5C00645F6669726D77617265004F6C642057A4
:103A6C006F726C64206669726D7761726520626139
:103A7C007365006661696C656420746F20657261A2
:103A8C00736520736563746F722000777269746557
:103A9C005F6E65775F6669726D77617265006661EE
:103AAC00696C656420746F20777269746520616439
:103ABC0064726573732000576527726520646561B5
:103ACC006400436865636B73756D6D696E67200088
:103ADC00206279746573004E657720576F726C6441
:103AEC00206669726D776172652073797374656D88
:103AFC005F666C6173685F62617365004F6C642014
:103B0C00576F726C64206669726D77617265207391
:103B1C00797374656D5F666C6173685F6261736500
:103B2C0000436865636B73756D202D2077616E742F
:103B3C006564200020676F7420004F757220696ED9
:103B4C007465726E616C20666C61736820636F6E55
:103B5C0074656E74732061726520626164202863E1
:103B6C006865636B73756D206661696C656429218A
:103B7C002054686973206973207265616C6C7920BC
:103B8C006261642100FFFFFFFFFFFFFFFFFFFFFFEC
:103B9C00FF01000000000000000000008001000098
:103BAC000000000000000000800100000000000088
:103BBC000000000080010000000000000000000078
:103BCC0080010000000000000000000080010000E7
:103BDC00000000000000000080FFFFFFFFFFFFFF60
:103BEC00FFFFFFFFFF5341442057415443483A2005
:103BFC000052657365742052656769737465722031
:103C0C000042726F776E206F7574207265736574E5
:103C1C00005374617274696E67204C5345206F7346
:103C2C0063696C6C61746F72004C5345206F7363E5
:103C3C00696C6C61746F7220646964206E6F74209F
:103C4C007374617274005553422077616B657570A3
:103C5C00006C656176696E67207374616E6462795D
:103C6C0000205F5F5F5F5F5F202020205F5F0D0A99
:103C7C002F5F20205F5F2F205F5F2F202F0D0A20EA
:103C8C002F202F2020202F5F20205F5F2F0D0A2F49
:103C9C005F2F20202020202F5F2F0D0A00426F6FF6
:103CAC00746C6F616465722076657273696F6E3ABD
:103CBC0020004C617374206669726D7761726520A7
:103CCC00626F6F742077617320737461626C653BF3
:103CDC0020636C65617220737472696B6573005339
:103CEC007475636B20627574746F6E20726567698E
:103CFC007374657220697320696E76616C69642CCB
:103D0C0020636C656172696E672E00427574746F06
:103D1C006E2069642000697320737475636B2100D5
:103D2C00427574746F6E207761732070757368655B
:103D3C0064206F6E20626F6F742E20427574746FE6
:103D4C006E20636F756E7465723A2000426F6F74EB
:103D5C0020626974733A2000486F6C6420646F773A
:103D6C006E205550202B204241434B20666F722011
:103D7C003520736563732E20746F20666F726365D4
:103D8C002D626F6F7420505246004669726D7761D8
:103D9C0072652069732065726173656400426F6F90
:103DAC0074696E67206E6F726D616C6C790057610F
:103DBC00746368646F672063617573656420612048
:103DCC00726573657400536F6674776172652066F3
:103DDC0061696C757265206361757365642061201F
:103DEC00726573657400426F6F74206661696C65EF
:103DFC00642C20737472696B65203300426F6F748E
:103E0C00206661696C65642C20737472696B652023
:103E1C003200426F6F74206661696C65642C20738C
:103E2C007472696B652031004C6F6164696E672038
:103E3C007265636F76657279206669726D776172EF
:103E4C0065004661696C656420746F206C6F6164F9
:103E5C00207265636F76657279206669726D776121
:103E6C0072652C20737472696B65206F6E652E20E1
:103E7C0054727920616761696E2E004661696C65C8
:103E8C006420746F206C6F6164207265636F76655B
:103E9C007279206669726D776172652C2073747209
:103EAC00696B652074776F2E20547279206167617D
:103EBC00696E2E004661696C656420746F206C6FAE
:103ECC006164207265636F76657279206669726DC4
:103EDC00776172652C20737472696B6520746872DB
:103EEC0065652E20534144205741544348004F757B
:103EFC00722070726576696F7573206669726D7762
:103F0C0061726520757064617465206661696C65A9
:103F1C00642C2061626F7274696E672075706461C5
:103F2C0074652E004E6577206669726D77617265D7
:103F3C0020697320617661696C61626C6521004255
:103F4C006F6F74696E67206669726D776172652038
:103F5C0040200072657475726E696E6720746F20F4
:103F6C007374616E64627900466F7263652D626F63
:103F7C006F74696E67207265636F76657279206DF8
:103F8C006F64652E2E2E004261636B0055700053DA
:103F9C00656C65637400446F776E00303132333476
:103FAC003536373839414243444546003031323397
:103FBC0034353637383961626364656600286E754E
:103FCC006C6C2900000000000102030401020304D0
:043FDC0006070809C3
:103FE000FFFFFFFF00A000000202000000C004016C
:103FF00000000000000000021000000007000000A8
:040000050800134C90
:00000001FF
