:020000040800F2
:1000000000AA0120E1250008DD2500081D1E0008CA
:10001000DD250008DD250008DD25000800000000C2
:10002000000000000000000000000000DD250008C6
:10003000DD25000800000000DD250008DD250008A2
:10004000DD250008DD250008DD250008DD25000888
:10005000DD250008DD250008DD250008DD25000878
:10006000DD250008DD250008DD250008DD25000868
:10007000DD250008DD250008DD250008DD25000858
:10008000DD250008DD250008DD250008DD25000848
:10009000DD250008DD250008DD250008DD25000838
:1000A000DD250008DD250008DD250008DD25000828
:1000B000DD250008DD250008DD250008DD25000818
:1000C000DD250008DD250008DD250008DD25000808
:1000D000DD250008DD250008DD250008DD250008F8
:1000E000DD250008DD250008DD250008DD250008E8
:1000F000DD250008DD250008DD250008DD250008D8
:10010000DD250008DD250008DD250008DD250008C7
:10011000DD250008DD250008DD250008DD250008B7
:10012000DD250008DD250008DD250008DD250008A7
:10013000DD250008DD250008DD250008DD25000897
:10014000DD250008DD250008DD250008DD25000887
:10015000DD250008DD250008DD250008DD25000877
:10016000DD250008DD250008DD250008DD25000867
:10017000DD250008DD250008DD250008DD25000857
:10018000DD250008DD250008DD250008DD25000847
:10019000DD250008DD250008DD250008DD25000837
:1001A000DD250008DD250008DD250008DD25000827
:1001B000DD250008DD250008DD25000861070008B1
:1001C0006D070008DD25000800000000DD2500089F
:1001D000DD250008DD250008DD250008DD250008F7
:1001E000DD250008DD250008DD250008DD250008E7
:0801F000DD250008DD250008F3
:0801F8009C0000000100000062
:1002000053B94AB9002908BF00281CBF4FF0FF317D
:100210004FF0FF3000F03CB882B0EC462DE90050C2
:1002200000F01EF8DDF804E002B00CBC704700BF1F
:100230002DE9F041904606460F461D46069C00F00B
:1002400029F808FB01FC8646A8FB002300FB05C536
:10025000B21A2B4467EB0303C4E90023BDE8F08125
:100260002DE9F8431D46174680468946089E00F052
:1002700053F900FB05F3A0FB074507FB0137B8EB7B
:1002800004043D4469EB0505C6E90045BDE8F88373
:10029000704700BF00292DE9F047C0F2A280002678
:1002A000002BC0F298808C4690469E461546044628
:1002B0000F46CBBB8A4256D9B2FA82F33BB1C3F1A7
:1002C00020029F409D409C4020FA02F21743280CD8
:1002D000220C1FFA85FEB7FBF0F100FB11770EFB35
:1002E00001F342EA0747BB4207D97F1980F0018139
:1002F000BB4240F2FE8002392F44FF1AA4B2B7FB82
:10030000F0F300FB13770EFB03FE44EA0747BE45FC
:1003100006D97F1980F0EB80BE4540F2E880023BB1
:1003200043EA0143002203E08B420FD90022134627
:10033000341C4FF0000518BF0124604265EB4501F5
:100340005840514000196941BDE8F087B3FA83F283
:10035000002A40F08380804540F2CD808B42C0F07F
:10036000CA801346E4E712B90123B3FBF2F5B5FAEC
:1003700085F2002A3BD1781B4FEA154E1FFA85FC07
:100380000122210CB0FBFEF80EFB18000CFB08F359
:1003900041EA0047BB4208D97F1980F0B080BB42D8
:1003A00040F2AD80A8F102082F44FF1AA4B2B7FBB7
:1003B000FEF30EFB13770CFB03FC44EA0747BC4536
:1003C00006D97F1980F09980BC4540F29680023BA7
:1003D00043EA0843ACE752426FEA060663EB430385
:1003E00061E740424FF0FF3661EB410158E795402D
:1003F000C2F1200107FA02F34FEA154ECF4024FA6A
:1004000001F194401FFA85FC1943B7FBFEF24FEA55
:1004100011480EFB12770CFB02F348EA0747BB4278
:1004200005D97F1971D2BB426FD9023A2F44FF1A06
:1004300089B2B7FBFEF80EFB18770CFB08F041EA17
:100440000743984206D95B1961D298425FD9A8F157
:1004500002082B44181A48EA024292E7C2F1200728
:1004600003FA02FE08FA02F5914028FA07F32CFA83
:1004700007FCF84043EA0E0E08434FEA1E48070CFB
:100480001FFA8EFABCFBF8F908FB19CC0AFB09F13C
:1004900047EA0C4C614507D91CEB0E0C32D2614582
:1004A00030D9A9F10209F444C1EB0C0C80B2BCFBB9
:1004B000F8F308FB13CC0AFB03FA40EA0C418A4527
:1004C00006D911EB0E0125D28A4523D9023B71448E
:1004D00043EA0943CAEB0101A3FB0589494503D35C
:1004E00003D19440444500D2013B002220E7013B68
:1004F00016E7013901E701231AE7013B68E708F134
:10050000FF3852E709F1FF39CEE7013A8FE708F1EA
:10051000FF389FE7013BDBE72DE9F043002B40D19B
:100520008A42044615464AD9B2FA82F30F464BB1C5
:10053000C3F12006994000FA03F402FA03F5F040F3
:1005400040EA0107290C260C1FFA85FEB7FBF1F0E3
:1005500001FB10770EFB00F246EA07439A4207D9E7
:100560005B1980F0EA809A4240F2E78002382B441F
:100570009A1AA4B2B2FBF1F301FB13220EFB03FEA5
:1005800044EA0242964506D9521980F0DA8096452F
:1005900040F2D780023B43EA004000263146BDE8E6
:1005A000F0838B4244D8B3FA83F6002E45D18242C1
:1005B00040F2BF808B42C0F0BC803046EEE712B9FB
:1005C0000125B5FBF2F5B5FA85F2002A7BD14A1B6D
:1005D0002F0C1FFA85FE0126230CB2FBF7F007FB58
:1005E00010220EFB00FC43EA02418C4507D9491951
:1005F00080F0A1808C4540F29E8002382944CCEBEB
:100600000101A4B2B1FBF7F307FB13110EFB03FECC
:1006100044EA0144A64506D9641980F09080A645B5
:1006200040F28D80023B43EA00403146BDE8F08352
:10063000002630463146BDE8F083C6F12005B340C0
:1006400002FA06F701FA06F4EA40E94020FA05F555
:100650001A4325434FEA124C4FEA154E93B2B1FBB1
:10066000FCF80CFB181103FB08F44EEA01418C4224
:1006700006D9891869D28C4267D9A8F102081144B9
:10068000091BADB2B1FBFCF40CFB141103FB04FE1F
:1006900045EA01439E4505D99B1854D29E4552D93F
:1006A000023C134444EA0844CEEB0303A4FB07894D
:1006B0004B4503D351D1B04040454ED20026601E79
:1006C0003146BDE8F083C2F12006954001FA02F3FD
:1006D00000FA02F42F0CF140F0401FFA85FEB1FB46
:1006E000F7F6184307FB16110EFB06F24FEA104C03
:1006F0004CEA01439A4205D95B1929D29A4227D97B
:10070000023E2B449B1A80B2B3FBF7FC07FB1C3361
:100710000EFB0CF140EA0343994206D95B1919D24A
:10072000994217D9ACF1020C2B445A1A4CEA0646EE
:1007300052E7012032E7013861E7013818E7013B51
:1007400071E7013B27E7013CACE708F1FF3897E789
:10075000013ED7E70CF1FF3CE7E7204600261DE706
:10076000014800F0D6BF00BFE42B0008014801F0AB
:1007700038B800BFE42B0008014800F0F9BD00BF05
:10078000E42B000837B50024012002F007FA01909D
:100790002546E0B200F046F801AA08B910551DE060
:1007A000135D042B0BDD174800F03CF9019800F0B5
:1007B00040F90120002102F0E1F9002020E001339E
:1007C000DBB2042B135509D90F48012500F012F9AB
:1007D000204600F02EF90D4800F024F90134042CD5
:1007E000D7D1019C3CB10A4800F004F9204600F042
:1007F00020F900F08FF80120214602F0BFF92846C9
:1008000003B030BDC1650008ED650008F86500085B
:100810000266000808B500F077FB80F00100C0B266
:1008200008BD000008B50C22044B02FB003000F0AC
:100830008DFC80F00100C0B208BD00BF842C000810
:1008400010B5002401F094F8054820440C34017AD6
:1008500000F062FC302CF7D1BDE8104001F089B8FF
:10086000842C0008044BDA691106FBD59862DA691A
:100870001206FCD5704700BF0048004070B5214DFE
:100880008AB02148082101F075F828464FF48021EC
:100890001E4C01F06FF82B68642623F0010394E8E6
:1008A00007002B600C348DE8070000216846022207
:1008B0000B4600F013FC03AB94E8070083E8070045
:1008C00000211846022200240B4600F007FC06A86F
:1008D00002F07AF8089821460D4A70430023FFF78A
:1008E0008FFCC0F3420320F00F000004000C1843FB
:1008F0000D23B0FBF6F0E8606C60AC602B600AB0D2
:1009000070BD00BF00480040000C0240B42C00083D
:1009100040420F002DE9F043334D83B02C6800AF07
:1009200004F12E0304F1270823F00703ADEB030DB8
:1009300050238DF8003021236E460DF106028DF80C
:10094000013000238DF8023003238DF8033004F1C9
:1009500021035BBAADF80430244B03F11C0153F8BA
:10096000040B8B4242F8040BF9D11B7804F12309E4
:1009700006F123001E491370224602F01FF931468A
:100980004A46002001F070FD07F1080304F5927457
:10099000314643F8040D42461868FE23B4FBF3F3D6
:1009A000434446F80900073323F00703ADEB030D7A
:1009B00068466E4601F030FD044655206C44FFF752
:1009C00051FFA64207D016F8010B552808BF00209A
:1009D000FFF748FFF5E75520FFF744FF00230C37EA
:1009E0002B60BD46BDE8F08338000020CC2C000809
:1009F0003C00002010B5441E14F8012F7AB10849BC
:100A00000B68FF2B0BD80A2A02D1FFF783FFF3E70D
:100A10000D2A1FBF581C5B1808601A71ECE710BD47
:100A20003800002008B5FFF7E5FFBDE80840FFF7F4
:100A300071BF1FB50C2201A901F044FD01A8FFF709
:100A4000D9FF05B05DF804FB07B502A9012201F842
:100A5000010D042000F096F903B05DF804FB0021BD
:100A600002200A4600F08EB910B540F2F51400F0ED
:100A7000B9F850B1013C04D10548FFF7D3FF204637
:100A800010BD642001F010FDF1E7012010BD00BF92
:100A90002E66000810B5074C43F2CD71064848F6A3
:100AA000B803224601F056FD01462046BDE810403D
:100AB00000F0E4B83C010020E92C000810B500F07B
:100AC00099F8FFF7E7FF08B9154816E0002400F091
:100AD00039F9FFF7C4FF0120FFF7B6FFFFF7C4FFA6
:100AE00078B1002103200A4600F04CF90D48FFF7C9
:100AF00081FF2046FFF79DFF0B48BDE81040FFF740
:100B000091BFFFF7C7FF0028DED001340B2CE2D1E4
:100B10000648FFF787FFBDE81040FFF7A0BF00BF02
:100B2000516600086C660008876600089166000838
:100B300008B5FFF799FF0120FFF786FFFFF794FF45
:100B4000002103200A46BDE8084000F01BB9000060
:100B50002F2307B54A1C58430B4B00EB52001A7861
:100B6000B0FBF1F0C0B282420AD002A91870042290
:100B700041F8040D012000F005F90220FFF764FFA1
:100B800003B05DF804FB00BF0000002007B502A918
:100B9000042241F8040D012000F0F4F80320FFF7CF
:100BA00053FF03B05DF804FBFFF759BF0C4B014442
:100BB00030B51C68884207D022689568AD07FCD51F
:100BC00010F8015B1573F5E71B681A68936813F456
:100BD000C05FFBD10A20BDE8304001F065BC00BF1A
:100BE000342C0008024B1868403000F0AFBA00BF48
:100BF000342C000838B5204B012200211C6804F178
:100C00002005284600F03CFA0021284600F052FA60
:100C100004F1380000F094FA04F1400000F090FA7A
:100C2000012104F12C000A4600F02AFA002104F107
:100C3000080001220B4600F051FA0021012204F1C4
:100C400014000B4600F04AFA6068012101F06EFFC3
:100C50006068002101F06AFF94E8030000F08AFE5A
:100C600023684CF207321A604FF4B8525A601A687F
:100C700042F040021A6038BD342C00082B4B2DE99D
:100C8000F7431C68814601208846E36A04F1200787
:100C900004F12C060093236B019301F009FC384604
:100CA000012100F007FA0021304600F003FA01208C
:100CB00001F0FEFB684600F049FA054620B11C48E9
:100CC0000025FFF7AFFE2CE030460121383400F05C
:100CD000F1F9012001F0ECFB204600F037FA06465E
:100CE00008B114481BE0684600F030FA054608B920
:100CF000114814E0012001F0DBFB48464146FFF7B4
:100D000055FF3846314600F0D5F90C480921FFF768
:100D10004DFF204600F01AFA054610B90848FFF7C3
:100D200081FE284603B0BDE8F08300BF342C0008E4
:100D3000B0660008CC660008E6660008B6640008E5
:100D40000267000808B5022001F0B2FB0A4B1B68DD
:100D500093F8483043B10948FFF764FE012000F0E2
:100D6000D3FD022001F0A4FB0548FFF75BFE012044
:100D7000BDE8084000F0C2BD342C0008236700081D
:100D80003F6700080F4BF7B51C6802AD0F46012105
:100D9000203405F8010D1646204600F08BF964203A
:100DA00001F082FB28460121FFF700FF1EB1384603
:100DB0003146FFF7FBFE2046002100F07BF903B02F
:100DC000F0BD00BF342C0008F0B50746ADF2044D6D
:100DD0000E460C460025B919B4F5806F6846A1EBA4
:100DE00004010DD94FF48062A4F5806400F0CCF8C2
:100DF000284669464FF4806201F036FB0546EAE773
:100E0000224600F0C1F869462246284601F02CFB34
:100E10000DF2044DF0BD08B5202001F09FFD002823
:100E2000FAD108BD08B5022001F098FD0028FAD0DB
:100E30000220BDE8084001F09BBD00B58DB06846BA
:100E400001F015FD0023684600934FF480730A9368
:100E500035230B9301F03CFDFFF7E4FFFFF7DBFFC9
:100E60000DB05DF804FB000030B5002495B02448B7
:100E7000022100F07FFD23480021032220440C348E
:100E80000B4600F02BF9482CF5D101A8002401F005
:100E9000E5FC102301A802940193172303944FF457
:100EA0004075059304940694079401F0EFFC01202B
:100EB00001F032FDFFF7C1FF08A801F0D8FC66235E
:100EC00008A808941393129501F002FDFFF7AAFFFA
:100ED00008A801F0CCFC992308A808941393129554
:100EE00001F0F6FCFFF79EFF4CF2503001F0DCFA07
:100EF000FFF7A3FF0248022100F046FD15B030BD08
:100F0000001000A0C064000830B502218DB01C485C
:100F100000F030FD022001F013FD684601F0A7FC4F
:100F20004FF08063684600934FF0407304934FF492
:100F300040730A93AF230B9301F0CAFCFFF772FFD3
:100F400001F006FD054601F003FD044601F000FD39
:100F5000240244EA004040EA0504FFF75CFF094B25
:100F60009C4204D020460024FFF763FD00E00124EA
:100F70000348022100F008FD20460DB030BD00BF3F
:100F8000001000A020BB190070B515468CB00446B7
:100F90000E461B48022100F0EDFC681E01F0D0FC5B
:100FA000684601F064FC4FF0806368462544009376
:100FB0004FF0407304930A2305934FF44063099361
:100FC0004FF440730A934FF4005308930B230B9391
:100FD00001F07EFC304601F0ABFCAC4204D001F0E5
:100FE000B7FC04F8010BF8E7022001F0C1FCFFF7A1
:100FF00012FF0348022100F0C7FC0CB070BD00BF17
:10100000001000A0034A136B23F4FF6323F00703CF
:10101000136370470038024000F13F4000F57E0046
:10102000C0F387200A280AD8054A135C591C1154BA
:101030002BB9044901230A6B834013430B637047A8
:10104000F48900200038024000F13F4000F57E00A6
:10105000C0F387200A280DD8074A135C53B1013B1F
:10106000DBB2135433B9054901230A6B834022EAEA
:1010700003030B63704700BFF4890020003802406F
:10108000436813B500930123044600688DF80430CB
:1010900000238DF805208DF807308DF80610FFF736
:1010A000BBFF2068694601F063FB2068FFF7CCFFB7
:1010B00002B010BD38B5037A04460D460BB981F075
:1010C00001052068FFF7A8FF2068A1882A4601F0E3
:1010D0008DFB2068BDE83840FFF7B6BF13B5044666
:1010E00040688DF80730009002208DF805208DF8BB
:1010F000040020688DF80610FFF78EFFA27A2068A2
:10110000218901F077FB2068694601F031FB2068F6
:10111000FFF79AFF02B010BD002313B504460193F8
:101120004368006800938DF80710FFF775FF20688B
:10113000694601F01DFB2068FFF786FF02B010BD75
:10114000036813B10021FFF7E7BF704738B50446C5
:101150000068FFF761FFA188206801F041FB0546A8
:101160002068FFF771FF281C18BF012038BD1FB58C
:10117000836804460093C36868460193FFF7E0FF65
:10118000636902A80293A3690393FFF7D9FF04B030
:1011900010BD10B504460121083002220023FFF7DC
:1011A0009DFF04F11400012102220023BDE810403C
:1011B000FFF794BF0368DB6910B5044673B9C36ACF
:1011C00063B10A2001F074F92046FFF7D0FF2046F2
:1011D000E36A01219847142001F06AF92046FFF7DD
:1011E000D8FF2046BDE8104000F0E0B910B5044635
:1011F00000F04FFA48B10A2001F05AF9204600F0F9
:1012000048FA80F00100C0B210BD012010BD30B519
:10121000044687B0C36A00219847A36800210125CE
:1012200000936846E3680A468DF808500193FFF77B
:1012300027FF68460021FFF73DFF6369002103A8EF
:101240000393A3690A468DF814500493FFF718FF1F
:1012500003A80021FFF72EFF07B030BD10B50446EC
:1012600000F00AFA2368DB6933B9E36A4BB1204620
:10127000BDE81040FFF7CBBF2046BDE81040FFF7A8
:1012800076BF10BD10B50446FFF7E8FF2046BDE865
:101290001040FFF78FBF00002DE9F3419846036827
:1012A00004460E46DB6917460BB900205BE000F0F0
:1012B000F0F9B8B9256814220021284601F089FC0C
:1012C0009DF828306F8020466B71089B2E71AB60B3
:1012D000099B85F806802B6100F0ECF92368002259
:1012E0009A6111E02046FFF7CDFF2046FFF77EFF11
:1012F0000028DFD1D9E79A69B2F57A7F23DA013283
:1013000002209A6101F0D4F8204600F0DFF90122B2
:10131000236883F82020154A0192019A511E0191F9
:101320001AB193F82020002AF7D1002283F8202058
:10133000019A42B11D7D05F0FD02012ADBD16B1E31
:101340005D425D4103E00025204600F0A8F92368D6
:101350000022204683F82020FFF748FF10B92046DE
:10136000FFF790FF284602B0BDE8F08180841E00A0
:1013700010B5044618B90E48A92101F015F800214E
:101380002422006801F025FC204600F0CBF8236AF7
:101390002BB1002104F120000A46FFF771FEE36A39
:1013A00023B12046BDE81040FFF731BF10BD00BF9C
:1013B0009567000810B5044618B90848B62100F032
:1013C000F3FF00680368DB690BB9FFF7F3FE2368DE
:1013D0001A68D3690133D36110BD00BF9567000857
:1013E00008B518B90748BF2100F0DEFF00680268A1
:1013F000D36933B1013BD3611BB9BDE80840FFF7A6
:101400002DBF08BD956700081FB50C46114618B9D9
:101410000A4840F28D1103E023B908484FF4C77120
:1014200000F0C2FF82888DE80A0000212346029165
:101430000068FFF731FF04B010BD00BF95670008DA
:1014400013460122FFF7E0BF1FB50C46114618B93D
:101450000A484FF4D77103E023B9084840F2AF11AE
:1014600000F0A2FF82888DE80A0000230121029388
:1014700023460068FFF710FF04B010BD9567000811
:1014800007B502AB03F8012D0122FFF7DDFF03B022
:101490005DF804FB03680022197583F8202070476B
:1014A00010B5046863882279C3F3090322B922784E
:1014B000012A18BF43F48063A268E468121BFF2A64
:1014C00095BF120443F0FF7302F47F0243F48033AC
:1014D00098BF134309B143F4005342681268536044
:1014E00010BD43681B681A6822F0D60210B51A6056
:1014F0005A6842F480425A6008220368BDE81040EE
:101500001A70FFF7C7BF0368012110B50446586879
:1015100001F000FB00212368BDE81040586801F08D
:10152000F9BA000043685A7B53B2002B30B506DA93
:1015300002F00F021B4B1344C0221A7606E003F19F
:101540006043C02203F5614383F8002343689A7B1C
:1015500053B2002B06DA02F00F02124B1344C022E2
:101560001A7606E003F16043C02203F5614383F875
:10157000002350F8045F0C4C6B7B59B203F01F0240
:101580000123490903FA02F244F82120AA7B51B24F
:1015900002F01F024909934044F82130BDE8304071
:1015A000FFF7B1BFFCEC00E000E100E043682C492C
:1015B0009A688A42F0B5074687B004D92948512174
:1015C000294A00F0E5FE29498A4205D91C7B34B13D
:1015D000012C07D000F0F2FE0124254603E0092487
:1015E000102500E0022502A801F0EEF979686019E3
:1015F000049A8B684343B2FBF3F603FB162303B94B
:10160000013E0F2E03D91748702100F0CDFE03C90B
:1016100000F0B0F97B684FF0000100221B68013D2B
:1016200066F307110192013C8DF804508DF8071004
:1016300019688DF8054021F0010119600C491868FE
:1016400001401960019919619A60DA601A6842F0E4
:1016500001021A60074A59680A405A6007B0F0BD93
:10166000801A0600AE670008CB670008A08601005C
:10167000001F30FF008000F810B5044654F8043F06
:1016800093E8030000F080F92046BDE81040FFF722
:101690003ABF43681B689869C0F3C030704743681D
:1016A0001B681A6822F0D6021A605A6842F4804217
:1016B0005A60704703685A790AB9012204E01A791E
:1016C0000AB9052200E006221A70704743681B68B9
:1016D0001A6842F0D20210B51A60026814791CB977
:1016E000196841F004011960117801290CD1528860
:1016F000012CC2F309020CBF4FF08071002142F4AB
:1017000090320A435A6010BD0121BDE81040FFF736
:10171000C7BE38B5436805461C6803681A78013AA5
:10172000072A5BD8DFE802F0045A5A5A223B5A577C
:10173000A269910701D59A79A2621A793AB9A26988
:1017400052060FD50522284601211A7008E0012A09
:1017500008D1A269100605D50622284600211A7074
:10176000FFF79EFEA369D9063AD525E0A269520784
:1017700005D5DA681969501CD860636A8B54A3696F
:101780001B0603D528460021FFF78AFEA3695806E9
:1017900026D528460121BDE83840FFF7A2BEA26940
:1017A000910705D5DA681969501CD8608B5CA36273
:1017B000A16911F0100109D0E3692846022143F024
:1017C0001003E361BDE83840FFF764BEA3691A0661
:1017D000DCD52846D8E7A369DB0701D400F0EEFD8D
:1017E00038BD43681B689A69D20503D5DA6942F4AB
:1017F0008072DA619A69510503D5DA6942F4806230
:10180000DA619A69920503D5DA6942F40072DA6105
:101810000321FFF766BE0000094B70B51C680D463A
:1018200006462046FFF7C6FD2A4631462046FFF70A
:1018300007FE05462046FFF7D3FD284670BD00BFD2
:10184000182C0008094B70B51C680D46064620464A
:10185000FFF7B0FD2A4631462046FFF711FE054648
:101860002046FFF7BDFD284670BD00BF182C0008BC
:1018700037B500F07DF81D4801210222FFF700FC7A
:101880001B4801210222FFF7FBFB1A48012102221B
:10189000FFF7F6FB00F06DF800200DF10701FFF7F0
:1018A000BBFF9DF80750012D1DD114200DF107013C
:1018B000FFF7B2FFA8B1104C237813B101332370A6
:1018C0000FE09DF80710142021F0060141F00201FD
:1018D0008DF80710FFF7B6FF18B10320257000F050
:1018E000E7FD012000E0002003B030BD08650008DE
:1018F0001465000820650008FF89002001460148A2
:10190000FFF7D8BB0865000801460148FFF7D2BBC6
:1019100014650008B0F1804F08B503D20D4830219E
:1019200000F042FD0C4B98420ED903F580339842EB
:101930000CD9B0F1A04F0BD3084A094BB0F1204F9E
:1019400034BF1846104608BD064808BD064808BD05
:10195000064808BDEC670008FFFF0040852A000824
:101960006D2A00089D2A0008B52A0008552A00089B
:101970007047704710B50C46FFF7CCFF01210346B6
:101980002046BDE81040184710B50C46FFF7C2FFCF
:10199000002103462046BDE81040184738B5104CDA
:1019A00005464FF080512046FFF7E4FF45B154E86B
:1019B000003F43F4807344E80032002A08D0F6E781
:1019C00054E8003F23F4807344E80032002AF7D142
:1019D00003484FF08051BDE83840FFF7D5BF00BF46
:1019E00000700040024B5868C0F34000704700BFD1
:1019F00000700040024A136843F008031360704708
:101A000000700040B0F1006F10B504460BD20C48D6
:101A1000FEF7F0FF2046FFF70CF80A48FFF702F840
:101A20004FF0FF3010BD084B002053F8042BA242AA
:101A300002D81A68944202D301300B28F5D110BDA8
:101A40000B680008146800082C6500082DE9F843AD
:101A50000446174699460E46C1B3FFF7D3FF054625
:101A6000601E3044FFF7CEFF002D804631DB00289A
:101A70002FDB461B01361FB1002031464A46B847CE
:101A80002C4600F0D3FD44451EDCF32000F0E4FDBD
:101A9000114B002133F8140000F016FE09280AD07B
:101AA0000E48FEF7A7FF2046FEF7C3FFFEF732FF02
:101AB00000F0CAFD0DE02FB1C5F1010031464A46E4
:101AC0002044B8470134DEE700F0BEFD0120BDE848
:101AD000F8830020BDE8F8835C6500082D680008E5
:101AE0002DE9F0410F461646804600F09FFD3E442A
:101AF0003C46F32000F0B0FDB44216D0C7EB080519
:101B0000254414F8011B284600F014FE0928F3D0E0
:101B10000848FEF76FFF2846FEF78BFFFEF7FAFE38
:101B200000F092FD0020BDE8F08100F08DFD012065
:101B3000BDE8F0814568000808B545F2555000F051
:101B40006BFE042000F06EFE40F6FF7000F070FEA9
:101B5000002000F061FE4FF480500121BDE80840F4
:101B600000F058BD08B500F071FEBDE8084000F077
:101B700065BE08B57D2000F0E5FF003018BF0120EC
:101B800008BD4900FEF7E4BF2DE9F043012185B00F
:101B900005460020FEF7DCFF042000F051FB01A801
:101BA000294600F0A7FB01A800F0B3FB08B93B48A9
:101BB00014E00C353A48FEF735FF02992846FFF746
:101BC00003F904463748FEF715FF2046FEF731FFBC
:101BD000FEF7A0FE039B9C4204D03348FEF722FF91
:101BE000012057E0029CDFF8E0803048FEF71AFF42
:101BF00021462F4A002340460024FFF727FF029F7B
:101C00002C484FEA5709FEF70DFFBC421CD23E1B81
:101C100029486119B6F5803F28BF4FF48036324617
:101C2000FFF7B2F908EB040023493246FFF758FFEB
:101C300018B92248FEF7F6FE06E009EB54003946D3
:101C4000FEF786FF3444E0E71D48FEF7D3FE029816
:101C5000FEF7EFFE1B48FEF7CDFE1B49029A00205F
:101C600000F002FC04461948FEF7C4FE0398FEF794
:101C7000E0FE1748FEF7BEFE2046FEF7DAFEFEF74E
:101C800049FE039B9C4204D01248FEF7CBFE022083
:101C900000E0002005B0BDE8F08300BF56680008F2
:101CA0007468000891680008A7680008CA680008FE
:101CB000831B0008E1680008008A0020F86800081B
:101CC0000369000811690008008000081A6900080B
:101CD0002D6900083369000810B5022000F0C8FA29
:101CE000D8B3042000F0C4FA044670B11B48FEF7D4
:101CF00099FE042000F0B0FA022000F0ADFA4FF493
:101D00000040BDE8104000F0A7BA1548FEF78AFE73
:101D1000082000F0A1FA102000F09EFA202000F028
:101D20009BFA402000F098FA2046FFF72DFF02288A
:101D300007D1082000F084FA102000F081FA00F0AA
:101D400061FB042000F088FA022000F085FA4FF4CD
:101D50000040BDE8104000F073BA10BD7E69000875
:101D6000B469000810B52548FEF75CFE4FF480000A
:101D7000FFF70AFF10B102283AD809E0202000F04E
:101D80006BFA402000F068FA802000F059FA2FE04A
:101D9000082000F055FA102000F052FA202000F040
:101DA00067FA20B91648FEF73DFE202007E04020E4
:101DB00000F05EFA58B91348FEF734FE402000F0F8
:101DC0003FFA4FF4007000F03BFA00F01BFB0E48A6
:101DD0000024FEF727FE082000F03EFA102000F055
:101DE0003BFA202000F038FA402000F035FA00E0FD
:101DF0000124042000F030FA204610BDCF6900080D
:101E0000E9690008226A00085B6A000808B5024810
:101E1000FEF708FE00F0FDFA956A00081EF0040FB8
:101E20000CBFEFF30880EFF30980FFF7EFBF7047B7
:101E300008B50120FEF7F6FC08B900200FE00020ED
:101E4000FEF7F0FC0028F8D00220FEF7EBFC00289B
:101E5000F3D00320FEF7E6FC80F00100C0B200F0F2
:101E6000010008BD1FB504460E48FEF7DBFD01A9C1
:101E70000C22204600F026FB01A8FEF7D3FD2046E9
:101E8000FEF784FE0220FEF7CDFC04460220FEF79A
:101E9000C9FCA04201D000F0B5FA0A2000F008FB0E
:101EA000F4E700BF8B6A00087FB5BF484FF0805150
:101EB000FFF760FDFFF796FD044630B1FFF79AFD8E
:101EC000BA48FEF7AFFD00F0A4FA4FF08051B648D3
:101ED000FFF75AFDFEF750FCFEF7D0FCB448FEF7C2
:101EE000A1FDB448FEF79EFDB348FEF79BFDB34845
:101EF000FEF798FDB248FEF795FDB248FEF792FD59
:101F0000B148FEF78FFDFFF7B3FC00F0BBF900F01E
:101F1000DBF921460C2201A800F05BFE00F0D0F9AD
:101F200001A90C2200F0CEFA01A8FEF77BFDA7481C
:101F3000FEF778FDA548FEF775FD4FF4804000F0F0
:101F400097F990B1A248FEF76DFD4FF4804000F084
:101F500083F9082000F080F9102000F07DF920209E
:101F600000F07AF9402000F077F9FEF77DFFFEF7E8
:101F700067FCFFF77DFCFEF7A1FDFEF7D9FDFEF73C
:101F800001FC08B1934803E0FEF744FC10B192480D
:101F9000FFF768FF00F084F9802000F069F918B1BC
:101FA000802000F059F94BE04FF4003000F060F968
:101FB00020B14FF4003000F04FF943E0FFF738FF55
:101FC00068B141F288348548FEF72CFDFFF730FFF9
:101FD00078B1012000F06CFA013CF7D132E0804B7F
:101FE0000CCB013301D0013203D17E48FEF71AFD3C
:101FF00028E0FFF7BEFD48B3FFF7BBFD10B17A48FC
:10200000FEF710FD4FF4007000F032F910B1774880
:10201000FEF708FD4FF4007000F01EF9102000F0EC
:1020200027F9002800F0F8807148FEF7FBFC082033
:1020300000F012F9102000F00FF9FFF793FE98B9A5
:102040006C48A5E76C48FEF7EDFCF6E74FF400702E
:1020500000F00EF90028CFD1082000F0FDF8102084
:1020600000F0FAF8FFF738FE4FF4005000F000F9E6
:1020700004464FF4805000F0FBF8400040EA840032
:10208000C4B24FF4006000F0F3F82043C0B2072858
:10209000C3B20DD14FF4006000F0DEF84FF4805071
:1020A00000F0DAF84FF4005000F0D6F853486FE72C
:1020B00001334FF40060DBB2023B052B11D8DFE89F
:1020C00003F00C1003100C1000F0C6F84FF4805011
:1020D00000F0C2F84FF4005003E000F0BDF84FF4F8
:1020E000805000F0ADF84648FEF79CFCFFF724FD59
:1020F000FFF738FDFEF786FF394B42485D681E68E2
:10210000FEF778FC2846FEF794FC3F48FEF772FC89
:102110000022930001324FF0FF3103F16043082A9F
:1021200003F56143C3F88010C3F88011F1D1374B38
:102130004FF4801200241A634FF480625C639C6346
:102140001A645C6400F01AFC3148012100F0BEFC06
:1021500021462F4800F0BAFCF320012100F0C2FC18
:102160002146F32000F0BEFC0320012100F0C6FC54
:102170002146032000F0C2FC6FF4A050012100F0C2
:10218000C9FC21466FF4A05000F0C4FC2148012195
:1021900000F0CCFC1F48214600F0C8FC63B64FF0AD
:1021A000FF3EB546284700BF00700040A06A000807
:1021B000AD6A0008B46A0008416B0008D86B0008DB
:1021C000596C0008DA6C00085D6D0008B36A0008FD
:1021D000DA6D0008014550FE024550FE076E00080A
:1021E00000800008426E0008556E00086D6E000801
:1021F0008D6E0008034550FE016F0008044550FE37
:10220000206F0008326F0008466F00080038024057
:102210000010E022B379F764082000F029F820B11B
:102220000548FEF7FFFB102003E00448FEF7FAFB29
:10223000082000F005F815E7B56E0008DB6E000811
:1022400010B50446002000F0A9FC40EA040100207B
:10225000BDE8104000F092BC10B50446002000F02C
:102260009DFC20EA04010020BDE8104000F086BC7F
:1022700010B50446002000F091FC204214BF01205C
:10228000002010BD08B50120FFF788FB0120FFF7F3
:10229000EFFF20B90121BDE8084000F06FBC08BD88
:1022A00008B50648FEF7A6FB002000F077FCFEF715
:1022B000C0FBBDE80840FEF72DBB00BF4E6F000815
:1022C000022000F06BBC000008B5FFF7F9FF0449DD
:1022D000884204D00220BDE8084000F04FBC08BD91
:1022E0008BB8185808B50248FEF79CFB00F08AF836
:1022F0005A6F00081FB504460C2201A8FEF744FEE1
:1023000001AB03CB206018686160A060204604B078
:1023100010BD0068A0F10C035842584170470000FE
:1023200080B51746064610480D461C46FEF762FB70
:102330003846FEF75FFB0D48FEF75CFB3046FEF7C4
:1023400059FB0B48FEF756FB2846FEF772FB2CB1F3
:102350000848FEF74FFB2046FEF74CFB0648FEF709
:1023600061FBFFF7BFFF00BF776F00085A6D0008E1
:10237000806F00085B6D0008B36A00081FB506AAED
:1023800052F8044B039200921A462346FFF7C8FF07
:102390000CB41FB506AA52F8043B03920092014AFE
:1023A000FFF7BEFF826F0008002307B57246009357
:1023B000014BFFF7E3FF00BF896F00087446064832
:1023C00008B5FEF717FB2046FEF733FB0348FEF780
:1023D00029FBFFF787FF00BF916F0008B36A000871
:1023E000BFF34F8F0549064BCA6802F4E0621343FE
:1023F000CB60BFF34F8F00BFFDE700BF00ED00E0F3
:102400000400FA0508B5FEF7CFFB00F0AFFBFFF7BD
:10241000E7FF08B5FFF7E4FFF0B50646002401200A
:102420002546034694421DD011F804C000F1010E68
:10243000BCF1000F03D17355774605460DE001331B
:10244000774606F800C0DBB2FF2B07D102F1FF3C54
:10245000644506D07355871C754601230134384600
:10246000E0E770467355F0BD30B5C9B1C0430A44CA
:10247000914213D011F8013B0A4D83EA000404F0A5
:102480000F0455F8244084EA101080EA131303F077
:102490000F0355F8233083EA1010E9E7C04330BD3D
:1024A000084630BD7465000800010138FDD1704751
:1024B00010B504462CB14FF47A70013CFFF7F4FFDD
:1024C000F8E710BD0A2A10B504DC1148BDE8104039
:1024D000FEF7A8BA30230C461C2204F8023B7823EE
:1024E0004B700F2393400340D340092B01D8303366
:1024F00002E00F2B02D85733DBB200E02023043A6E
:1025000004F8013B131DECD100238B7210BD00BFFA
:10251000CB6F000808B582684368934203D3044830
:102520001421FFF741FF0268591C4160D05C08BDCF
:10253000E16F000843688268934210B503D30448F2
:102540001921FFF731FF02685C1C4460D15410BDB3
:10255000E16F0008F0B587B00E460746154600212A
:102560000C2268461C4600F034FB00210C2203A814
:102570000296009700F02DFB684603950594FFF73F
:10258000C9FF06466846FFF7C5FFB042014601D0C5
:1025900003A808E06846FFF7BDFF0446D8B101284C
:1025A00004D103A83146FFF7C5FFEBE7030608D5C2
:1025B00004F07F046846FFF7ADFF40EA042000F115
:1025C0008004A4B20025A542DCDA03A80021FFF7AD
:1025D000B1FF0135F7E7049807B0F0BDFEE7000052
:1025E0000748084A0849121A08B500F0E7FA0748F0
:1025F000074A0021121A00F0ECFAFFF755FC00BF61
:102600000000002014000020F46F000814000020D7
:10261000008A0120044B9A6809B1104301E022EAC4
:1026200000009860704700BF002004E0044B1A6966
:10263000002A04DA034A5A6002F188325A6070476D
:10264000003C024023016745024A136943F00043FE
:1026500013617047003C0240014BD860704700BFD7
:10266000003C02400E4BDA68D20310D4DA68D1067F
:102670000FD4DA68D2050ED4DA6812F0E00F0CD16C
:10268000DB6813F0020F14BF0820092070470120F7
:10269000704706207047022070470720704700BF30
:1026A000003C0240092307B58DF80730FFF7DAFF39
:1026B0008DF807009DF80730012BF7D09DF8070033
:1026C00003B05DF804FB000070B5064641B1012976
:1026D00008D002290CBF4FF400754FF4407503E099
:1026E0000D4601E04FF48075FFF7DCFF09281ED18D
:1026F0000F4C236923F4407323612169294321612D
:10270000236923F0F8032361236943F002031E4386
:102710002661236943F480332361FFF7C3FF2369F4
:1027200023F002032361236923F0F803236170BDC2
:10273000003C024070B505460E46FFF7B3FF09287E
:1027400013D10A4C236923F4407323612369236165
:10275000236943F0010323612E70BFF34F8FFFF70E
:10276000A1FF236923F00103236170BD003C0240F7
:10277000F0B500220E680123934003EA060E9E4541
:102780002AD1550003230468AB40DB431C4004609E
:102790000C79076804FA05FC013C4CEA0707012C98
:1027A000076011D884684F791C40AF40846084680A
:1027B00027438760446824EA0E0444608C794768A4
:1027C0009440A4B23C434460C4682340C360CB79C6
:1027D000C468AB402343C3600132102ACBD1F0BDA3
:1027E0000369194214BF01200020704702B909048F
:1027F0008161704701F00703C9089B0000EB81006D
:102800000F219A40994010B5046A24EA010101623F
:10281000016A1143016210BD014B1860704700BF8F
:1028200000300040014B5860704700BF003000404E
:10283000014B9860704700BF003000404AF6AA2262
:10284000014B1A60704700BF003000404CF6CC428C
:10285000014B1A60704700BF003000400023036046
:1028600043608360C36003614361836170470023F9
:1028700043608360C3600360036143618361C3613C
:10288000036243628362C362704700000E490368BB
:102890000A6810B544691C4383691C4322F07F43D6
:1028A000426823F03003234343EA02630B60C368AA
:1028B00082684C681A43054B23401343026943EA7C
:1028C00002434B6010BD00BF001000A0FEF7E0FF08
:1028D00090E80C000E491A4383681A43C3681A43F0
:1028E00003691A4383691A43C3691A43036A1A4383
:1028F000436A1A43836A1A43C36A10B51A434C6980
:10290000044B23401343426943EA82434B6110BDA9
:10291000001000A000008090044B1A6810B142F033
:10292000010201E022F001021A607047001000A0CD
:10293000024B9A68920600D498617047001000A07C
:10294000024B9A68920600D418617047001000A0EC
:10295000014B1878704700BF201000A0034B9B6804
:10296000184214BF01200020704700BF001000A0D3
:10297000014BD860704700BF001000A00F4B002132
:102980001A6842F001021A6099601A6822F0A8528F
:1029900022F410221A600A4A5A600A4AC3F88420B4
:1029A00002F18062C3F888201A6822F480221A603B
:1029B000D960C3F88C10C3F89010704700380240FB
:1029C00010300024003000201E4A936803F00C03EE
:1029D000042B10B503D0082B03D01B4B19E01B4B65
:1029E00017E05168536811F4800F516803F03F03FA
:1029F00018BF164AC1F3881108BF134AB2FBF3F39C
:102A0000104A4B435268C2F3014201325200B3FBF9
:102A1000F2F30C4A036093680D49C3F30313CC5CD3
:102A20000368E34043609468C4F382240C5D23FA96
:102A300004F484609268C2F342328A5CD340C3607B
:102A400010BD00BF003802400024F40040787D0132
:102A500001000020044B1A6B09B1104301E022EA87
:102A600000001863704700BF00380240044B5A6BE7
:102A700009B1104301E022EA00005863704700BF2B
:102A800000380240044B9A6B09B1104301E022EA7E
:102A900000009863704700BF00380240044B1A6C76
:102AA00009B1104301E022EA00001864704700BF3A
:102AB00000380240044B5A6C09B1104301E022EA8D
:102AC00000005864704700BF00380240044B1A6988
:102AD00009B1104301E022EA00001861704700BF0D
:102AE00000380240044B5A6909B1104301E022EA60
:102AF00000005861704700BF00380240044B9A69DB
:102B000009B1104301E022EA00009861704700BF5C
:102B100000380240044B1A6A09B1104301E022EA6E
:102B200000001862704700BF00380240044B5A6A28
:102B300009B1104301E022EA00005862704700BF6B
:102B4000003802404209084B012A01D11B6804E009
:102B5000022A01D11B6F00E05B6F00F01F0023FA17
:102B600000F000F00100704700380240024A536F45
:102B700043F08073536770470038024082B00023EF
:102B80000193054B0193019B03EB80000190019B96
:102B9000196002B0704700BF5028004082B0002387
:102BA0000193054B0193019B03EB80000190019B76
:102BB000186802B0704700BF50280040431E0A4406
:102BC00010B5914204D011F8014B03F8014FF8E71A
:102BD00010BD02440346934202D003F8011BFAE7FA
:102BE0007047000014000020242C0008001402404C
:102BF000004000000E0004000014024000800000AD
:102C00000F000400000000000000000000000000B1
:102C100000000000B46500081C2C0008E42B00082C
:102C2000500000000060004000000001801A060013
:102C3000005F6000382C00080054014000002000B4
:102C400000000240200000000500080000000240D3
:102C50008000000007000800000002401000000093
:102C60000000000000000240080000000100000019
:102C700000040240040000000004024001000000C3
:102C800001000000001802404000000001000000A8
:102C90000018024008000000000000000018024078
:102CA0002000000001000000001802401000000099
:102CB00001000000000C02400001000008000700B5
:102CC000000C0240000200000900070001424F4FC3
:102CD000544C4F414445520000000000002A2A0095
:102CE00000000000000000000047FF004C61747409
:102CF000696365006943456375626532203230312E
:102D0000362E30322E323738313000506172743AFC
:102D1000206943453430554C314B2D434D333641BA
:102D200000446174653A204A756C20323520323097
:102D300031362030393A35363A33394702FF7EAAE8
:102D4000997E5100010592002062016F8247027254
:102D5000007011000101470B104702804705024730
:102D6000058003470801470208471120470C024726
:102D70000B02471740470501470540470C040090E8
:102D8000470F1047064047050147054047050147E3
:102D900004800004471080470502002000080080DE
:102DA000470201470908471701470434000C47044C
:102DB00003470D30475970470E801047040200400A
:102DC000470408014702070200404704080147057D
:102DD0002004474103470B03470D1C471080470958
:102DE000010080470203470908470324472B78471F
:102DF000124007470A40470C040008470E404705A9
:102E0000014706044704014706044706104711809E
:102E10000747061C470380470C08470A0C30204729
:102E20000F30E8470C63C1470C0C30470F400105D9
:102E3000470C03C0470C0C3020470D184702E047F1
:102E400004020CB10018003847064047080C304710
:102E50001001074702010001CD72470398470F0C8C
:102E60003020470D3000F9A04708100001C0470589
:102E7000038047070C30470E3000710547083000CB
:102E800001470F0C3020470F5808470401DCA00011
:102E900080470363C1470203C020AF5247050C308F
:102EA00047100803470402E0F5470503C047020244
:102EB000E0050FA01047040C3020471240002020EE
:102EC000470AC001E007A547060C3047110D47032C
:102ED00014470B4047030547031447020C302047B3
:102EE0000F900004470220470E17CFA24702084761
:102EF000020C30471030092447022C470D02CD0F39
:102F0000F047050C3020470F108004470368470343
:102F1000010547100C30471011073047190C3020BD
:102F2000470D300010470A0147100C30470E30475C
:102F300002052047023447050247100C302047079E
:102F4000044706404704203404ED80000247091C72
:102F5000000847050C30470F4047050422FC470294
:102F6000014707A00002C047060C3020470903EACA
:102F7000F52000404706035CA500184708401C8F59
:102F80000847050C30470A03D05047024047060166
:102F9000F0554703104706200200F047050C30208B
:102FA0004709284703110001E047032038FC80024D
:102FB000470A1E8F0847050C3047080800404703A2
:102FC0003029470402BC03D0470AC04703F0470535
:102FD0000C3020470A1C0F10470829DCA500304799
:102FE000090E8F0847050C30470C0F470941505513
:102FF000002047090200F047050C3020470D044728
:10300000065C76EC80024707084702068047060CFC
:103010003047080247050447030147033CF0470ACD
:1030200001400C00F047050C3020470820470B1CDE
:1030300021FAE732004047100C3047090C470B24B7
:1030400064F0F7084709028047070C302047141C3A
:1030500031CCE720804703383D44470202804707D0
:103060000C30470F404705027668FB47024000C01E
:10307000403D4703028047070C302047080C4705B6
:103080000147053C63DE800010470C0447040C3008
:10309000470A2047040247052402E8470210470672
:1030A00001014047020147050C302000A100123CFD
:1030B00020000447021EF060470720001EF0404732
:1030C000030D72BD400003428EEF47060C304705EA
:1030D00003C0C04704F047024000974703042000A4
:1030E000F0470401403C470201429C47070C302056
:1030F00047033A3C200647030CF06018021080009A
:10310000060140024AA500188000077815006047B4
:10311000020CC96047050C30470503C0104704F096
:10312000470205090747038001D055470390004037
:103130001620000142C1096047050C3020470332C8
:103140003C202C47031CF04030470280000447021B
:10315000204705018839414702020025ACC02047BD
:10316000040C30470503C0044704F001300801098E
:10317000000C4702404705F00F4282010020402525
:1031800047070C30204703323C20470280001EF0E6
:1031900040470280E847037C470705781547044409
:1031A00088002047040C3047040803C80001470288
:1031B00010F0470371094703964708C01640000303
:1031C00042150020470202001C0C30200001017A49
:1031D0003C2047040EF0600008704703A00601DAA7
:1031E000A047090A007E8800300002C0000C30476A
:1031F000038D0003C04000243000F0470308FB4764
:103200000240000340F54709014287002047040CB3
:103210000C30202000013A3C20201004470708040D
:10322000001000045AA102004000A04705603EEFD4
:10323000A547050C300010070D0803C047020247E0
:10324000070520470334E001470B1C05A047020295
:1032500047020C3020040500723C20001047060491
:1032600050800447022021EEE2020040181047047B
:1032700003601FAAF5470202C0000C300004054796
:103280000203C0001004470542D8BD2C00103C7654
:103290007042470240008047030102C02C00F04703
:1032A000050C3020000800723C2000A02078470365
:1032B000300010470501DCA302304702804703C0FD
:1032C00001C047080C3000040B470203C000521431
:1032D0004704300008033C4702343830A300204044
:1032E0000147048101C2C0470C0A723C204702A07A
:1032F0003BF9014001404705202C0CF040470307F3
:103300008402470306DEF5E0470A100803C1000106
:10331000547D69A7004040470402046000F0470262
:103320008050003C470402BCF1D0104706018047A2
:1033300002723C20060024017F74400140470306CE
:1033400047034EA50018470215A3C2806002002C57
:1033500091A0470B0803C047023C2E78A010024002
:103360004707D055470490003C470201401DF3F049
:103370004707034703121540040036687B6440305A
:1033800047040CA047020DD1000147020723C247A2
:1033900002034614ABC420470A08154004023C004F
:1033A0004A58007047040C470203DFE24705803C9F
:1033B00047020266C20BC208470A03BC1047023C20
:1033C000294B7440002847042000281EF0400002CA
:1033D0001801A3C20004016060AB470C043C470322
:1033E000164268A0004047074010F0470205080059
:1033F000803C47021403B4C70010470A03BC100CFA
:103400004702035D7A014706A00E60FEA047023026
:1034100001A7A3C2000803469E81A020470A043CDE
:103420000004470202C85A0847071E03C0F54705B3
:10343000803C470201601D03F0470C295047021EE3
:1034400001D95B10404705800423CCA1024703113A
:1034500023C247041D95E0470B90168047021C319C
:103460004CA547080202C002470480003C47043EC6
:10347000E1D0470A1B47051F470601C04703062046
:10348000E8A3024703B325ED0004016640ABC42066
:1034900047090A4705024706014705267003470406
:1034A000AFB694010A0242B507C004471064F85051
:1034B000104708701AA302B10001D04703C00003EF
:1034C000DDB5E0471164005047083443D053002273
:1034D0008051A0470380D6C76EE1D04709081E5B24
:1034E000C8104703040AF0404709FE00404702198C
:1034F0008F304002000166A5E0470A0B00121E80D3
:103500006000142800F04702400007470403F0A0C1
:103510004080020007B0470301C24E944708018073
:10352000470506470308F040184702100006200030
:10353000020C0A001947020B3A81816002E68405F9
:10354000A020470801470810F04704B7470240048D
:103550003CC0050002801087400101000260140297
:10356000400447060300080036C9580C0034001A0E
:10357000F04030470218000CA14000FE504A0247BC
:10358000020120288047030480D0A04706010003E1
:103590000A7A05424702144702F000304702FB0056
:1035A00004408003F080404704402880000340012D
:1035B00000D080470603000500DE11D84702366CB4
:1035C0001AF060470308000D8000020C0A40300822
:1035D000000B3801010002000D85E02047060100C4
:1035E0000F0052E0404702142800F04703B00700E4
:1035F00009024702C0054820040007414104470270
:10360000401602E0470A08F680D2100E47021AF070
:10361000404703184703200400A54000805011755F
:10362000D04703C067A0140447080B091B28C0201B
:10363000470310F04704C900400E3C38C05A480107
:1036400000D887B5F8470303AEE8008047080801B3
:103650009F141447041AF040470280180400201EEB
:103660002200A54130005C037B08084702E021CA24
:10367000470A050C56788240470310F04703F0E5EF
:103680003C470340C05A40104702A7C30C04000245
:1036900062DC05470A0D81D6C9504705A54047029F
:1036A00098984702A004301C0540800018E04705A8
:1036B000600685014709050A32054A4704405A4712
:1036C0000399933400400201C00A40470210B047FA
:1036D000030847020105470A0581FE51D047040A45
:1036E000F0403000901000040004027E5F401000A3
:1036F00050E1B8280400E0400FF812470A0B53E0ED
:103700004A4705F000300070FD3C04000220E00F45
:1037100048100079098168040002600CC447111444
:10372000004EA0400240470607C850C047039047DC
:1037300005407EC70008470F020010A040804047A8
:10374000063BC00542470210D04705235DAF014745
:103750000E06470744470306470203C850C0180037
:1037600018033E01006000063DC0471104470542B2
:1037700047050402C005404702188FBC01204703DB
:103780000E824716100001C000044702674850C06F
:10379000100001E130104703604718300001470274
:1037A00004470223E005401047020DE047160C478E
:1037B000070547030C0006674850C0F0001017B219
:1037C000012847020780471008470B08470222E0FC
:1037D0000540204702E7C00147234003E850C147A6
:1037E00003F0470402662F90471B10470203C005F1
:1037F000404703D0470401442FB040471D73685031
:10380000C010470219F56C47020366EED0471E420E
:10381000C00540304702ADE11C47020142AEF080D6
:10382000470240470E0447090226036850C00007BC
:10383000101DFB08084702068DE800204710384796
:103840000A0403E0054040003085830C4705084723
:103850000F04470B040020736850C11047028047D3
:1038600003C00060208E5420470D04470B04000461
:1038700042E00540100051E04703804142650DA041
:10388000470372009011010101470B1047064047A2
:1038900005014705400002470608471120470680FA
:1038A0004705024712084722010002470404471156
:1038B00010470640470501470540470316000147EA
:1038C0000604472202002000084702084703104769
:1038D000243C000C47063047688010470402004033
:1038E0004704080147030200404704080147043029
:1038F0002004474D01470604472103008047050285
:1039000047030C471F1E472D024703404705014749
:1039100017404705014706044703030147060447CC
:103920000610471D8047050247110C30472C0C300C
:1039300020472B0C30472C0C3020472B0C30470EE7
:1039400001470C1047100C3020470D02471D0C306A
:10395000472C0C3020472B0C30472C0C3020472BA9
:103960000C30472C0C3020472B0C30472C0C3020CF
:10397000472B0C30472C0C3020472B0C30471308BA
:103980000004002055470880004247080C302047BB
:10399000120C0020016855404707400200404707CD
:1039A0000C3047150400200F470B02055004470454
:1039B0000C30204714260168F0C04709661E855464
:1039C00047050C3047180F470DF08047040C302096
:1039D00047150168F0C0470A168F0C47050C3047A1
:1039E000150C47020F470DF08047040C3020471597
:1039F00001E8F0C0470A1E8F0C47050C3047150C34
:103A000020200F470B0200F047050C3020471426FA
:103A10006548F0C04709601C8F0C47050C304716FD
:103A200020200F470A460200F047050C30204715BA
:103A30006548F0C047080207548F0C000147030C8B
:103A40003047180F470DF047050C30204712064746
:103A50000201C8F0C047076047021C8F0C47050CE5
:103A60003047170C0F470503C01247020401B0F09E
:103A700047050C3020471501DAF0C0470423C04742
:103A80000307148F0C47050C304718F04703D9B0D3
:103A9000A4470280470A0C30204714060008F0476C
:103AA0000350A780020040470A0C30471620300F11
:103AB0004703D900A047040247080C3020471505EA
:103AC000780F80470250A780024703404047070C09
:103AD00030471524201B0F470528470D0C30204781
:103AE0001501F80F804703078002470C0C30471779
:103AF0000D0F4704B020470D0C30204714066179A4
:103B00000F804703078402470C0C30471504200D33
:103B10000F47035000A8470D0C302047142004F82D
:103B20000F804703070002470C0C30471506203C66
:103B30000F47035000B4470440050A088047040CAF
:103B4000302047143501C90F8047030100024702A6
:103B5000026000E50447050C304715366C1C0F4722
:103B6000035000284707588047040C30204714149E
:103B700028E80F8047030704020060470214E0545E
:103B800047050C3047166D4CA547035000204704ED
:103B9000C0040A088047040C3020471529415A8088
:103BA00047038700024702024702A504471B10048F
:103BB0004000F0470301A9A00004800042471F20F5
:103BC0007808F047020800BFA021404002004047AB
:103BD0001D10042060A54702404702A047020100D3
:103BE00040020550471C2007605A804703078002A7
:103BF000470202601E8556471D0340A547035190AA
:103C0000B04702014704F0471D01605A804702D9BE
:103C1000A3840247020800168F0E470E01470D1CB1
:103C2000004FA54704A0703C4706F0470E01470D22
:103C30002601E15A80470219B5F43E47041E8F0E53
:103C4000471C1C20390F47031900B44704028200A7
:103C5000F1471C2605580F804702F9E3800247030D
:103C600060148F0C471C1C3C2F0F47031000344777
:103C70000320020200F1471C2061DB0F8047028015
:103C8000030002470306548F0C471C3C381C0F47A7
:103C900002180090F03C4703028000F1471D04C861
:103CA0000F8018003DA5E03E006047021C8F0C47C6
:103CB0001C3C380C0F47031000283C47040190F1CE
:103CC000471D25CA0F8047029005643E47041DBF6B
:103CD0000C470E04470222CF4A6047050400042027
:103CE00047031000188F62E1004100421C05A04705
:103CF0000E04000467FB40404705040036044703F8
:103D00001000981D6CF1024002002C470210014780
:103D10000604470208284702100025F03C600042D4
:103D20004704100232DAC3400040018541410005DA
:103D3000000381005004470A16A804470206067AC9
:103D40007C424047060402DFD348000459F07281E8
:103D500047041EE0504710023FE8F24707801C7AF4
:103D6000E0A5470220080F3001400001C25C05A019
:103D70000401470D100E62DFFA4707102026FC50A1
:103D80000100C018E13A01000147026E4713214FBC
:103D9000F54707014221D90740007D000F28110097
:103DA0000101C026020414471006EBF64707011C68
:103DB00005FD036100021987F69D000247021F807E
:103DC0000420470809470408000628E01820404757
:103DD0000408470202DFE3402000D80B656100942D
:103DE0000142B501470A0847040C002E07FA0402F5
:103DF00047050C00042BCCC36070009187BA890082
:103E0000CA020021C20020470F3C0010A047020850
:103E1000470601F0D3410147029FF9510004000217
:103E2000B680404711014EA0470902E8C342020094
:103E300070153EC1470306D5A0A047100642D0B971
:103E4000404707042830A047031805732147036043
:103E500037A1470F06000E3BDCB16247050647035A
:103E6000DAA00018007C0FBB09006001E035D047E4
:103E7000020A470810470602CFE0470D0400190F59
:103E800021194702014247040447080E47040E4720
:103E9000021BD0470930470304059981720D470280
:103EA00002470B03000980920447047F60C2470663
:103EB000040142034005001008018047034003400D
:103EC000470A03000F80174705386CC302470504F3
:103ED000009E000E0A20100058F0470340471018BB
:103EE00014470403F00347081E3C30A00847029023
:103EF000E77F21470306EED4A447090100DE80478F
:103F0000030402DA430247073E056EA04703B819CF
:103F1000FF4147024002B689144709090894104737
:103F2000034040F0024707802C3F5ECB470308A9BF
:103F3000836101470202020F470A0801F747028026
:103F4000470260C80A0247060E20060CC710470247
:103F5000781BEB0108084702468F0847094B0016FB
:103F60004047020146387B0201000247053C3C10F5
:103F70000A47033009807447020363C00F470A20D1
:103F80000012204703BC7AF947030D47052005DAE4
:103F90000A200247020772B4080009405E8F081029
:103FA00047080B0D941A4247033C00A00847050838
:103FB000001C294B08002020D00541470280000248
:103FC000C20F470A080B06A590470369CAA02047FD
:103FD000050C0020020C042032801809200008C0C3
:103FE00047025C8F084709200E1000084703243061
:103FF0000401470504470220CCA141470218B0C084
:10400000284704020F470C17900080001429EA0487
:104010000247050447020378D1408000D005782884
:1040200047041C8F0847090700D04703401472D982
:1040300047030147050401CA5B4703110567B84000
:10404000470242800F47080180000A760080808086
:1040500000767B802000024703060E14000DA7089F
:10406000180159C573BC006047024C8F0847090509
:104070000EDF00804703237B470A26CEFF0940005E
:10408000D9E3384147072047080518DA47053CE9D6
:1040900080200038470603DBF7470338A138014783
:1040A000040C000800404702350050134703040386
:1040B000C04702266D7040084047040400047C702D
:1040C00005470308ABA39C20470203010F040040EF
:1040D000014020E0A00147030683D047022428DAEC
:1040E0005012470504002423EC4702800071B17E82
:1040F000BD40404702418F044703467E0D344702CE
:10410000014706046410A04707020036DAF048476A
:1041100002500743000147040F04470201639CEC6F
:10412000342000098047052065DEA0470901FFF41F
:10413000404000D9A720000A47020700CF044702E9
:1041400002403401A0470802266650014709437027
:10415000A04703500FA40020470204010F044704A6
:104160002FE00220470826760E022247070621ECA0
:104170004704980FF420470303808F06470201404D
:10418000010A4706154001800C62CC4705C0470470
:104190003D40E740C10050A7030020470202410F05
:1041A000044702020284AA47055A1550010020263E
:1041B000FE0847041000804702077CD34A020081B2
:1041C000D772000C0801E001CF04008000424705CF
:1041D00001800803C047020C41DD20470608002E7D
:1041E00039D00A47030800C02820470220010F04E5
:1041F00000C002004047040D98523C300240002AA3
:10420000CF47070C0006036C470430073028010035
:1042100001C000EF044703029E4705080803C0479A
:10422000021401E024001047061C207000414703DF
:10423000A0C14702404702010F04470437AA010406
:10424000470219523C30470302DA10023002470697
:1042500004EE8063470315310028C0470201EF04D4
:1042600047034035040010470403C0470303F047E9
:104270000340470506034A1047030803240020476C
:104280000202400F04006047038801218047027248
:104290003C30470368EE4022004047030600060218
:1042A0001E2000180031EF32002160470201AF04E8
:1042B00010470223CDE0470603C14704EF47034000
:1042C00047051401E04705A5FBE0470306010F047D
:1042D00047036004C0804704723C304703027D807E
:1042E0004702404706036A0A4703019B2FF48347AE
:1042F0000203808F048047060100010E0803C004FA
:104300004702404BF1493000080F280447101405BC
:1043100000044706030008187A3C300447023BCDEE
:10432000F04070001047020447061047028047051E
:1043300003A18A4704028047060803C447050A40D0
:10434000800070FD24470280470D028047050280EF
:10435000470401805A3C3040000600FA0A404703F7
:1043600080470201470D0142C04704014047040352
:104370008F470203C010470238ED0BC10002008DC9
:1043800028470A010141840001C0278247040680B2
:1043900047065A3C30400006027A054900054702AC
:1043A00004000E47092A81A047031F938047095044
:1043B000470203C010002401505F40470270030011
:1043C000404702304703044706400002800F0008C0
:1043D000470820007A3C30000E00637AA54047026F
:1043E000804705044705184704C00060008F00049B
:1043F0004709180803C05800042C70E34047029096
:104400009D0008470E01C00300F04709018B523C94
:10441000300C002C03FCC34200380008000C470E8F
:10442000020014E0F847043FC04704080803C050E6
:10443000470201700500300031F1000C00044047D4
:104440000B40022ECA5047041DD080470319523C2E
:104450003020470202DA470230008090000400203A
:10446000704705784706065415A847080347030315
:10447000C04702042C6A814000020007470304473A
:10448000052800F3C2BF800003D280C0F0470701B7
:10449000804702723C3006010C026F504018014701
:1044A0000306470618180007E2954703400EE0F898
:1044B000470950000AC0470401DA3C47024010CBCC
:1044C000470402C00544428008470604024702220E
:1044D000470820007840204703016D3447041847FF
:1044E00004014850400100704706071C00084703BC
:1044F00072007011020101470802470608470402D2
:10450000470A04470220470680470C014706044734
:104510000401470802C0470310471702470608472F
:104520000B084716024706084704024706084706D5
:1045300020470680471F0300070004470B7C471DE8
:1045400003470F6C470CA84705024727204708047C
:1045500047220240C04704080147030200404704C5
:1045600008014705200447058010474C03470D709C
:10457000471F014703044709D0470340473A024712
:104580001208470D80470A80000247030247058052
:10459000470502470608470620472204470D4010FA
:1045A00030C04718067B38470240626D61404703C0
:1045B00083DC05470430C0471803DBD0470301AB59
:1045C0002022C0470203C0008047021030C04716B7
:1045D0000103F8EC00B0018047020162000600838D
:1045E000D6000A00180030C0471703F83001F04722
:1045F0000903C20D1047021030C047160108805A47
:1046000000B01400AA49A16040030083C447030C12
:104610000030C0471702002D01800800064B6C02D5
:1046200080030003C247041030C0470A80470D14BE
:10463000EC50104702A2EDF540470383CC0547023A
:10464000800030C047193AD8F04703A1E42047035F
:1046500003C2008B01001030C04716010A805F8042
:104660004708030083C60847032030C047172100CE
:1046700028104708020003C00547031030C0471048
:1046800002470980470502470483C647025C470288
:1046900030C0471A10470503C0470303C2470280D2
:1046A000001030C04717080969470740470383D601
:1046B0000581470330C04718215D470720470303A2
:1046C000C0000A47021030C0471708805F18104723
:1046D00007100083DC4703800030C0470901470E04
:1046E000227A00804707600003C2470201001030B1
:1046F000C0471704000A1847024010F12960470616
:104700000A470330C0471801504703040F00014017
:1047100047091030C04717043C585010018010F171
:104720006A06804704014702180030C047183C1051
:10473000508047020F00414047091030C04717041E
:104740003C5878A0470210F121404703A906F380A6
:1047500000480030C047183C105847030F00400283
:10476000800020193FE547028C1030C04717043CF9
:104770005C470410F121604047028BACE00A47031C
:1047800030C047183C1000C047020F0040028000B4
:104790002002A7B50A47021030C04717043C5C4707
:1047A0000410F160470490B788470430C047183CB4
:1047B0001047040F47050222EFF54702201030C0D2
:1047C000471708024B9980470210F16047048BAEEF
:1047D000F81B470330C0470901470D0210DA1047A4
:1047E000030F004047030202A5A50A47021030C08C
:1047F000471708025A470410F168470320A907D158
:104800009A020C0030C047170122EB470220000F2C
:1048100047048000193EA58002081030C0471708E1
:10482000826B470410F1284704A93CE00A47033093
:10483000C04718115D47040F0040470280022A2636
:10484000800002001030C04717183DC04704169979
:1048500047058001B50A08470230C04712028C00A4
:104860000800083C20470303096B47053FC1ED9052
:1048700047021030C04709056047081C47026047DF
:1048800005018010F1624702060083DE470318002D
:1048900030C0470940470802803047068000010FBA
:1048A0000041C0470303C047041030C047130C7CCD
:1048B00000304703100080800AA13847020300A996
:1048C000408047020C0030C0471202C278003047D7
:1048D00003084702C00AA0404704294047030810C4
:1048E00030DE4710084702404709C060F1804704A6
:1048F00083C4470530C2470F01140003470A400034
:10490000F0800008470203C20D0B47021030CE476B
:10491000090847095C470A2A500447030183C44732
:104920000240470230C247090847062002024702F8
:10493000804706200045A0344702800003C2094793
:10494000031030C00700A0470F804E7847072000B3
:104950002A50470902470230C04709084708B242B7
:1049600078470905A03C402847081030C04712800E
:104970000E470C024702808083D6470530C04709A6
:104980000847062000F24000084704D000204703F3
:10499000024000800003C0470202001030C00747F9
:1049A00003020F78044702204708540500304706E9
:1049B00080470A1C000C0030C04704020F08024761
:1049C000082000B3823A80204706804705804704CC
:1049D00010A20447071041F700280010470380A0E9
:1049E00047050800080379000447095981A50A40D2
:1049F000470ADFB44047057147060800608369D065
:104A0000B04709198D0D904709022483802800447E
:104A1000090AF900A0018047030800083DC080E0B2
:104A2000018020F5470306005A64A0470A02E7B355
:104A3000C0400010222FDA11B047050847023C2081
:104A400071B04702A0F080038047021A74470B023E
:104A5000AA77144703014148504702804704304772
:104A600004A010002A57A86047035A44850A470942
:104A700002AA0C022C4702014000D8B00080470473
:104A8000204703F147030F50F5C047031A64009015
:104A9000470A1892D428000101406A5010470708BD
:104AA0003DC030470320F5806047035A4488470BD8
:104AB000341EB46C470223401BD8F0470608203C44
:104AC0000030470320F08047041A65010B47094076
:104AD000053EC04704046B804702080020470814C5
:104AE000470302000347020CC5A8000D4047070812
:104AF0000807C04704035810470202003C47080853
:104B00004704404703332CBB0E0080470801128640
:104B10002800014294DB4703C0470F08470780473E
:104B20000A1E8040470202003B0090008047102888
:104B3000470660470850A55EE060000208BBDA80C7
:104B4000E0470701E94E518047061047023C1C0729
:104B5000470B85068447042A6EF04706744702AA6D
:104B600078F847072847023C0207804709025A00A5
:104B70005470007047038047070108F46A47042017
:104B8000F18247020240029DE7470280470702A5E3
:104B900003424000304703F000024707980B4704E8
:104BA00020F001C047028002830080014708030F04
:104BB00052A047030C3E6A47090294DE18470A5484
:104BC00014850A470AF0983C470303C3604709016C
:104BD000541FD0470990144702904709030F1380D0
:104BE0004702600C3C4E30000180470614C8470263
:104BF00001804703E00846005A45E047021847088D
:104C0000F0470503C0470A02BC1CD047062200201B
:104C1000001A7400084709030F13A60447020C3C4E
:104C20004A9810470505000294DD51E000100AF192
:104C300084470443C48047020C4708F0043C2047E3
:104C40000203C01010804705020001540909470300
:104C500005F0A047043C010D0B000C4707030F12A1
:104C6000806030000C3C4AB180C8470715CA500428
:104C7000470220F580038003005A65E047020C4795
:104C800008F004470403C010100014470602BC1CBF
:104C9000084704F0470302001A54000B00044707BA
:104CA000030F178047030C3C5E47028047060294BF
:104CB000CDF9F0470903C4470CF0470503C0470A84
:104CC00001541F70D0470603470203C0470820471E
:104CD00002030F168047030C3C5A0001C847071413
:104CE000FAB8E047080183DE47021C4709F0470590
:104CF00003C0470314470602BC3CB890470983C071
:104D0000470B02AA17A06047020C3C5A01804706D5
:104D10000101E8FF71C047050780470401001080CA
:104D20004708AA0404470303C010470A542C084745
:104D30000604470680470C200400200AA85E1814C9
:104D400000C047040108F54C704704A76000044701
:104D500005080008470A0420001002A810008A0075
:104D600040470404006419F8F0000100A0470A0855
:104D7000470E083D60000447052000083DC0470479
:104D80008005E000380004C3FCA04711483C00F057
:104D90004708083C47062BA342D000043C3E470B83
:104DA000020F78470360083D6010000180470A0544
:104DB000804019B006000600C3C4E0470218470748
:104DC000020F084704083C00F8470B700008470230
:104DD00001EB404702243C471230083CE070470298
:104DE00080470440083DE0304702802845E0470402
:104DF000C3C4A981470F22083C20080014C04705FE
:104E0000083C204703C0242BA002C047023C0101FC
:104E1000084709020F304704083CE001F047070843
:104E20003C604703204009B047023000C3C4A99842
:104E30004709020F4705083C2001E04707083C20CE
:104E4000470521EB4047033C0101470D2004470281
:104E5000183C60008008470405470905E2E0284740
:104E600002C3C5E0470D3C384702083C2001470516
:104E7000024705B04703808BA06047033C471308F7
:104E80003C40F84708083CC047042A01A4404702B8
:104E900001C3C5A04711083C20F04708083C20B0DA
:104EA00047032050A04703043C471202083CC04778
:104EB000070100083DE0470501B1404703C3C5A015
:104EC000184710083C470A083C4702C047033B7C90
:104ED0002047033C0103470D0E010020083C6047BA
:104EE00003804705083CE047038400012447020291
:104EF00000AA85A101000C470B028000083C20009D
:104F0000044707083C2010E147020200B447042A86
:104F10008100080004470272009011030101470854
:104F20000247060847040247080780044702204753
:104F30000680470C01470604470401470D10472A25
:104F40000847160247060847040247060847062096
:104F5000470680471F024703044729034729A04704
:104F60002D10471E0200404704080147030200407D
:104F70004704080107804703200447058010474580
:104F800001470603470D204718024706034703045D
:104F90004709C0470340472B38472108470B4000CB
:104FA00080470A80470502470580470502470518E4
:104FB000084706202C471101470F04470D400030D9
:104FC000C0472B1030C0472C30C0472B1030C04793
:104FD0002C30C0471004471801001030C0470F8024
:104FE000471C30C0472B1030C0472C30C0472B1017
:104FF00030C0470E10471D30C0470A0200140B474F
:105000001D1030C0470C28E1471E30C0471B044725
:105010000F1030C0471B0A471030C0470B20280B29
:10502000471D1030C0470C14E1471E30C0472B10FD
:1050300030C0472C30C0472533069047031030C09E
:1050400047242031A480470430C0472B1030C0478C
:105050002C30C047253C0247041030C04723048051
:105060003C14470530C04708804721801030C047B6
:105070002901400030C047270147031030C0472CAA
:1050800030C0470A80471D0A47021030C047280138
:10509000470330C0471D0300F047070547031030A2
:1050A000C0471FF147070D9A470330C0471702A8B2
:1050B00009704705404706010800041030C0471139
:1050C00080470501544147041000796047050801F5
:1050D00000080030C047150447023C47060B404714
:1050E00003802A81000847021030C04715020007DC
:1050F000C05847041008684704AA85E1994703305F
:10510000C047183C1047050301428047023C470551
:105110001030C0471707C04A470410086A06C04746
:1051200002C3C5A0470430C0470F04470530000242
:105130005A40470503014047033C47051030C0472C
:105140000F0A4707065848470410086B6680470255
:10515000C3C5E00080470230C0470FF047083C104D
:105160000847040B41428047023C0147041030C00D
:10517000470F10470707C05A38470310002A06C0D8
:105180004702C3C4E018470330C04711C0470502B7
:105190005A500147040B41428047023C010147033A
:1051A0001030C0470E50470280470506585E71C058
:1051B000470210002B66C04702C3C4AF00A04702DD
:1051C00030C04717025A504705034704013C4705C2
:1051D0001030C047100180470506584870E047026C
:1051E000100028470301C3C4E04702180030C0473D
:1051F0000B083C47090100014098470401000340A7
:1052000047023C3647041030C0470B083D60470951
:1052100004470238E0470210002800404702C3C498
:10522000E7470E3C47021010D9470D04470506C05A
:105230004702080247112000034B470D02470502B1
:10524000800010081CE0470D0200084704020020FF
:105250004703028047041047041BB842C0470210AE
:1052600080900902470B1C470C01470A073E470381
:105270001014979598471301E04707016BCA99905E
:1052800047093016B500024713F0470701606999D6
:1052900090470506804702103488470F08470401ED
:1052A00000204704040002A8100847030A00836492
:1052B000471580470401E04705020202A85C184731
:1052C000030A037942804718D9F0470702003C10CF
:1052D00000E04704704704069E901B47110B4B806B
:1052E000E0470707C05C001000040807B04703014F
:1052F000A94F800A470E053203D42008B0024705A3
:1053000008003C47020A470240A08047042801DD0C
:1053100080470F3003D56A7880024704300007C009
:105320005C00044703A37847051C95471E3C4702D1
:10533000A047090E01AD1A470E01604703784708E0
:1053400017C05C00104708100617900A001847079E
:10535000020F4705A0014C470602900147021000CA
:10536000E04702080B38470534A01B4709920F7825
:105370004705824D470601470204000C0010470311
:1053800003BC000447020216950A471103D04702E6
:105390002047040604003C2047032020F0804704F7
:1053A00002378009471004001A7881470501041864
:1053B0003C6047032020F78166800201802CE04793
:1053C00003023FC04709024703D070002047040290
:1053D0004706202020F001428080001382990902B4
:1053E00000443FC04709010004001A8180470B01B7
:1053F000002020F30366C00012A346054713404770
:105400000A3C470280003020F047051E81002947F2
:105410001004021A01E0470604183C60470420F714
:1054200080E04702101E8CC0470E01470301C009EF
:10543000E02847097008002060F0804400800008E0
:105440004E810A0080470B02470204021A79F004D9
:10545000470B200020F3800700800004B4084712A7
:1054600002D050A04707603C2047032060F08047EF
:1054700002500010038D471104000A50A00847068F
:10548000183C4047032020F7470410001D80470EBA
:1054900001470203C25010A04707229447048060CE
:1054A000F080470202003040C79F470D028000078E
:1054B000C0CAD04707081A9408470201E020F747FE
:1054C00003031030941F0E471003C06047020447C7
:1054D000050C02940050A0006060F047052001ED2B
:1054E00080471007C1EE01E0804705080A9408478D
:1054F00002010020F7470306100014A547021847D1
:105500000B01470203C040508447060C01680C5051
:10551000A0003860F0470502810D1F40470C02478C
:105520000207C0EA00B84705020A0A940100A04732
:105530000220F74702084000029EE00A471042A8F6
:10554000103080004047112047040B47100AA85A2A
:10555000001000C0471150471543C0100080470895
:105560003C470401010F34028047020142000E470C
:10557000100C3C5A01904707083CE04705073140B2
:105580004702208155E0471123C0003047093C0005
:10559000080040008000A0000347160C3C5A0001A0
:1055A0004707083C6071804703512047070E4710AA
:1055B00023C0470201C047073C20008080000FF055
:1055C000A14047170C3C5E4709083C400190470248
:1055D0008FA5200280470401471123C010104709FE
:1055E0003C204703010103B8001000402042E09036
:1055F00047100C3C4A99804707083C404704020783
:1056000047022000100056879E471023C010104705
:10561000093C00084702C04702014047031C16B17D
:1056200047110C3C4A984708083CC058470280473D
:1056300007102DD0471143C0470B3C470280004064
:1056400047040347160C3C4E470201804705083CBF
:10565000C0001001470520470718470E43C2E04726
:105660000A3C2010470501428047050D47100C3FBA
:10567000EE4709083CE098470602804705011047BD
:105680000C40471A6300294000100020470B704768
:10569000088047111200A9408018470D40024704B6
:1056A00008472720014704384712064706180040DC
:1056B000472503004003C20010472701470283D655
:1056C0000018470E30470401470C04470540471BAC
:1056D00080470B02470402470240470F0F068047EE
:1056E00003083C000147050285470B0447020402FA
:1056F00081C047090102007A804703083D400080CD
:1057000047040102470B074703A804B18A470D2845
:105710000002083C20014702C0470408403C000842
:105720008000802A5034024702840281E108470C3D
:10573000064703083C6001E000C047034000183CF6
:10574000605010148025A04702404702E804B98148
:10575000470F50083C470B3C20014702402AA0401D
:10576000470201000280C0471050083D607A0001E6
:10577000804705183D4000A001002AA730470204D9
:1057800005E804F00A2018470C7000483C4707025F
:10579000700023C000700447022E7B3847030602C6
:1057A00094E00E4710083CC047090BC140000A476F
:1057B0000222402800054702E826B00147031006F0
:1057C000B04704807E80470301541847080800B0A2
:1057D0001908D04705034047022A81470580BEF1DA
:1057E000984702020276803847022295EA01E100DA
:1057F000804704010A75E971F0470401E0400201A5
:105800002A96E7804705D010470280AF0654300043
:1058100002017C0B470601470202F43C470480501A
:10582000BC6047020430E6D047048286B01C4703C0
:10583000053376684703147D4707800101417918D5
:1058400008C00040A187E0470391E7B180470320EB
:1058500004A1470484128228470209680908804786
:105860000702BC2A7180470401E047033E82091900
:10587000470380A5E847030200F20E6C47020A9432
:105880000139E1C0470714FA01C04705E047033E6C
:1058900094C009470303C14705AF0E4260020209E5
:1058A00068087047080154087047034000FC47052A
:1058B00015910F470343C4A0470304053A46280542
:1058C000000A940080470802955E800800040011D9
:1058D00064470554A8470403C10100180008550A8D
:1058E000470420141C470601470202BC3A70804757
:1058F0000205008002470303C0001E470343C5ADF5
:105900009A4703A51F86470302BD6950A04705803B
:10591000470215EC80B04702050121404047028351
:10592000D6000A470303C0050A4703403604204750
:1059300002083C20084702804702024703D82F088C
:10594000F04702A8503C002047023C00D59B47038B
:1059500043C4880147020220D2A0644702083CE009
:10596000504702C047040148D47A701000042475DF
:10597000F847043C15C38A470303C04703100004DB
:1059800003CC004040083C4708040001C019D84738
:10599000030500BC0020008028B5918A470343C559
:1059A000A01E001042205220600050283CE0798068
:1059B000018047040102E8EBB80001800007A16004
:1059C0000006001407E947021847023D000D0002D7
:1059D00000050AC03C47047C10F0470702A809D024
:1059E000A540002CBD746247022030CE8D47044094
:1059F00021A01B4703A557542802002040F980B07E
:105A0000470401470202955D800847022C3DF7607C
:105A100040200020F4950A470472008011006200C3
:105A20002F824702010347041000080010100202F1
:105A3000040022002020000804240447070804472B
:105A4000032004002020202400082C040C0C470311
:105A50000410100C00100008470308084703083022
:105A60000030300400222606040800040400044725
:105A7000042008000C000828000C0008002808007A
:105A80001008082808470228282847020C10101080
:105A900024000224242C2C0400282C2101080011AD
:105AA0003010200004220222470320202030040866
:105AB0003010001008000404040400040004470629
:105AC00008000408080847020847022424040004C8
