:1000000000000420D934000049350000411B0000E5
:100010004D3500004F350000513500000000000054
:100020000000000000000000000000005335000048
:10003000553500000000000057350000593500001C
:100040005B3500005B3500005B3500005B35000070
:100050005B3500005B3500005B3500005B35000060
:100060005B3500005B3500005B3500005B35000050
:100070005B3500005B3500005B3500005B35000040
:100080005B3500005B3500005B3500005B35000030
:100090005B3500005B3500005B3500005B35000020
:1000A0005B3500005B3500005B3500005B35000010
:1000B0005B3500005B350000000000000000000020
:1000C0005B3500005B3500005B3500005B350000F0
:1000D0005B3500005B3500005B3500005B350000E0
:1000E0005B3500005B3500005B3500000000000060
:1000F000000000005B350000000000005B350000E0
:1001000000000000000000000000000000000000EF
:1001100000000000000000000000000000000000DF
:1001200000000000000000000000000000000000CF
:1001300000000000000000000000000000000000BF
:1001400000000000000000000000000000000000AF
:10015000000000000000000000000000000000009F
:10016000000000000000000000000000000000008F
:10017000000000000000000000000000000000007F
:10018000000000000000000000000000000000006F
:10019000000000000000000000000000000000005F
:1001A000000000000000000000000000000000004F
:1001B000000000000000000000000000000000003F
:1001C000000000000000000000000000000000002F
:1001D000000000000000000000000000000000001F
:1001E000000000000000000000000000000000000F
:1001F00000000000000000000000000000000000FF
:10020000537475636B20627574746F6E20726567CA
:10021000697374657220697320696E76616C6964B4
:100220002C20636C656172696E672E004275747470
:100230006F6E2069642000697320737475636B218D
:1002400000427574746F6E207761732070757368E7
:100250006564206F6E20626F6F742E204275747417
:100260006F6E20636F756E7465723A200042616331
:100270006B0055700053656C65637400446F776E56
:10028000004A454445432049443A200054574920F8
:10029000696E6974206661696C65643A2000545720
:1002A00049207472616E73666572206661696C655F
:1002B000643A20006164647265737320002069737E
:1002C000206F7574736964652073797374656D202C
:1002D000666C6173680073797374656D5F666C61D9
:1002E00073685F65726173653A20616464726573F7
:1002F00073206E6F7420776F726420616C69676E13
:1003000065640073797374656D5F666C6173685FB3
:1003100077726974653A2061646472657373206EE4
:100320006F7420776F726420616C69676E6564001A
:10033000496E76616C6964206669726D7761726579
:10034000206465736372697074696F6E210043681D
:1003500065636B73756D6D696E67206669726D7725
:10036000617265207570646174650043616C6375CA
:100370006C6174656420636865636B73756D3A20A6
:1003800000496E76616C6964206669726D7761728E
:10039000652043524320696E2053504920666C61AA
:1003A0007368210065726173655F6F6C645F666975
:1003B000726D776172650077726974655F6E6577DB
:1003C0005F6669726D776172650057652772652097
:1003D0006465616400436865636B73756D6D696E18
:1003E0006720002062797465730D0A0043686563B5
:1003F0006B73756D202D2077616E7465642000200D
:10040000676F7420004F757220696E7465726E613B
:100410006C20666C61736820636F6E74656E7473B4
:1004200020617265206261642028636865636B7374
:10043000756D206661696C65642921205468697353
:10044000206973207265616C6C792062616421009F
:100450004F75722070726576696F75732066697268
:100460006D7761726520757064617465206661697D
:100470006C65642C2061626F7274696E67207570A0
:10048000646174652E004E6577206669726D7761D0
:10049000726520697320617661696C61626C6521A7
:1004A000004C6F6164696E67207265636F76657278
:1004B00079206669726D77617265004661696C6565
:1004C0006420746F206C6F6164207265636F766561
:1004D0007279206669726D776172652C207374720F
:1004E000696B65206F6E652E20547279206167619B
:1004F000696E2E004661696C656420746F206C6FB4
:100500006164207265636F76657279206669726DC9
:10051000776172652C20737472696B652074776FD4
:100520002E2054727920616761696E2E00466169E0
:100530006C656420746F206C6F6164207265636FFA
:1005400076657279206669726D776172652C2073A9
:100550007472696B652074687265652E205341441E
:100560002057415443480048415244204641554C8D
:1005700054002020205F202020202020205F2020E9
:100580002020202020202020205F2020202020004C
:1005900020202F5F5C2020205F5F7C207C5F205F1D
:1005A0005F5F205F205F285F295F205F5F00202F53
:1005B000205F205C20285F2D3C20205F2F202D5FB6
:1005C0002920275F7C205C205C202F002F5F2F20BC
:1005D0005C5F5C2F5F5F2F5C5F5F5C5F5F5F7C5F7A
:1005E0007C207C5F2F5F5C5F5C00626F6F742062B9
:1005F0006974004C617374206669726D776172650D
:1006000020626F6F742077617320737461626C6510
:100610003B20636C65617220737472696B65730053
:10062000537475636B20627574746F6E0042726FE1
:100630006B656E20666C61736800486F6C64206443
:100640006F776E205550202B204241434B202B20AA
:1006500053454C45435420666F72203520736563C3
:10066000732E20746F20666F7263652D626F6F74D6
:1006700020505246004669726D7761726520697339
:1006800020657261736564005761746368646F67A5
:100690002063617573656420612072657365740001
:1006A000536F667477617265206661696C757265F7
:1006B00020636175736564206120726573657400E1
:1006C0004661696C656420746F2073746172742074
:1006D0006669726D776172652C20737472696B65DF
:1006E0002074687265652E004661696C65642074CB
:1006F0006F207374617274206669726D77617265C0
:100700002C20737472696B652074776F2E004661BC
:10071000696C656420746F207374617274206669FB
:10072000726D776172652C20737472696B65206FCE
:100730006E652E00466F7263652D626F6F74696E11
:1007400067207265636F76657279206D6F64652EC0
:100750002E2E00426F6F74696E67206669726D7726
:10076000617265204020002E2E2E0D0A0D0A0042D7
:100770006F6F7420626974733A20004669726D77F6
:10078000617265206C656E6774683A200043686525
:10079000636B73756D3A20004153534552543A20B0
:1007A000003A00415353455254004153534552546B
:1007B0004E002A2A2A20575446200053544D3332E3
:1007C0000053544D333220706572697068657261F0
:1007D0006C206C69627261727920747269707065E4
:1007E0006420616E206173736572740043524F41DF
:1007F0004B204F4F4D0069746F61206275666665CE
:100800007220746F6F20736D616C6C002E2E2F2E12
:100810002E2F2E2E2F2E2E2F74686972645F70611A
:100820007274792F68616C5F6E6F726469632F6E8A
:100830007266782F68616C2F6E72665F6770696F81
:100840002E68002E2E2F2E2E2F2E2E2F2E2E2F7472
:10085000686972645F70617274792F68616C5F6E31
:100860006F726469632F6E7266782F647269766541
:1008700072732F7372632F6E7266785F7173706913
:100880002E63002E2E2F2E2E2F2E2E2F2E2E2F7437
:10089000686972645F70617274792F68616C5F6EF1
:1008A0006F726469632F6E7266782F647269766501
:1008B00072732F7372632F6E7266785F7370696DD7
:1008C0002E63002E2E2F2E2E2F2E2E2F2E2E2F74F7
:1008D000686972645F70617274792F68616C5F6EB1
:1008E0006F726469632F6E7266782F6472697665C1
:1008F00072732F7372632F6E7266785F7477692ECE
:10090000630000006D020000000000501C000000A9
:100910000300000072020000000000501D000000F3
:100920000300000075020000000000501E000000DF
:10093000030000007C020000000000501F000000C7
:100940000300000001424F4F544C4F4144455200B8
:1009500000000000002A2A00000000000000000043
:100960000000000000000000000000000000000087
:100970000338FDD87047000000000060000003004D
:1009800018000000000000000060000003001800D4
:1009900000000000000000600000030018000000DC
:1009A00000000000006000000300180000000000CC
:1009B00000000060000003001800000000E00300D9
:1009C0001F60F800C30718C0070000F80FC07F6061
:1009D000FE03F31F18F01F00000C1860C060030630
:1009E0001B30181830000006303080E1010C0F6019
:1009F000180C60000003601800E3001807C0180618
:100A0000C0008001400C00620010038018038000C9
:100A10008001C00C00660030038019038001800152
:100A2000C0FCFF670030038019FFFF018001C0FC9C
:100A3000FF630030038019FFFF008001C00C0060DD
:100A400000300380190300008001C00C00600030FA
:100A50000380190300008001400C00620010038035
:100A6000180380008003601800C3001806C0180631
:100A7000C000800730308081010C0C60180C6000D1
:100A8000800D1860C000030618303818300080F957
:100A90000FC07F00FE03F01F70F01F0080E1030015
:100AA0001F00F800C00760C00700800100000000C0
:100AB00000000000000000008001000000000000B5
:100AC00000000000000080010000000000000000A5
:100AD0000000000080010000000000000000000095
:100AE0000000800100000000000000000000000085
:100AF0007C00FE00FF01C701C701C701C701C70194
:100B0000C701C701C701C701C701C701C701FF016D
:100B1000FE007C0038003C003E003E0038003800FB
:100B20003800380038003800380038003800380005
:100B30003800FE00FE00FE007C00FE00FF01C70141
:100B4000C701C001C001E000F00078003C001E00B9
:100B50000E000F000700FF01FF01FF017C00FE00F7
:100B6000FF01C701C701C001C001F8007800F8000B
:100B7000C001C001C001C701C701FF01FE007C0028
:100B8000E000E000F000F000F800F800F800FC00E1
:100B9000EC00EE00E600FF01FF01FF01E000E000D5
:100BA000E000E000FF00FF00FF0007000700070073
:100BB0007F00FF00FF01C701C001C001C701C701DD
:100BC000C701FF01FE007C007C00FE00FF01C701A1
:100BD000C701070007007700FF00FF01C701C70139
:100BE000C701C701C701FF01FE007C00FF01FF0133
:100BF000FF01E000E0007000700070003800380075
:100C0000380038001C001C001C001C001C001C00CC
:100C10007C00FE00FF01C701C701C701C701FE003C
:100C20007C00FE00C701C701C701C701C701FF0162
:100C3000FE007C007C00FE00FF01C701C701C70168
:100C4000C701C701FF01FE01DC01C001C001C701EE
:100C5000C701FF01FE007C00000000000000000052
:100C60007C00FE00FF01C701C701F001FC01CE01BD
:100C7000C701C701E701FF01DF01CE01070007003F
:100C800007000700E700F701FF01CF01C701C70117
:100C9000C701C701C701C701CF01FF01F701E70085
:100CA00000000000000000007C00FE00FF01C70102
:100CB000C7010700070007000700C701C701FF01C0
:100CC000FE007C00C001C001C001C001CE01DF01F7
:100CD000FF01E701C701C701C701C701C701C7017C
:100CE000E701FF01DF01CE0100000000000000006D
:100CF0007C00FE00FF01C701C701C701FF01FF0122
:100D00000700C701C701FF01FE007C00E000F00002
:100D1000F8003800FE00FE00FE0038003800380001
:100D20003800380038003800380038003800380003
:100D3000FFFFFFFFFFFFFFFFFFFFFFFF01000000BE
:100D40000000000000000080010000000000000022
:100D50000000008001000000000000000000008092
:100D60000100000000000000000000800100000001
:100D700000000000000000800100000000000000F2
:100D800000000080FFFFFFFFFFFFFFFFFFFFFFFFEF
:100D9000AB010101000000000000000000000000A5
:100DA0000338FDD870479F04010100000E000000C9
:100DB0000F00000000009801070000000000000084
:100DC0006410B71DC8206E3BAC30D9269041DC764C
:100DD000F4516B6B5861B24D3C7105502083B8EDF6
:100DE00044930FF0E8A3D6D68CB361CBB0C2649B1A
:100DF000D4D2D38678E20AA01CF2BDBD0000000068
:100E00000338FDD87047000000000000000000001B
:100E10000338FDD870470000FF000000FF0000000D
:100E2000FF000000FF000000FF000000FF000000C6
:080E30000338FDD870470000F3
:080E380094000000010000001D
:100E40000348044B834202D0034B03B11847704759
:100E5000A4040020A4040020000000000548064B64
:100E60001B1AD90F01EBA301491002D0034B03B1A8
:100E700018477047A4040020A404002000000000CC
:100E800010B5064C237843B9FFF7DAFF044B13B1D2
:100E90000448AFF300800123237010BDA404002098
:100EA00000000000FC37000008B5054B1BB10549E8
:100EB0000548AFF30080BDE80840FFF7CFBF00BF93
:100EC00000000000A8040020FC370000A3F5803AD1
:100ED000704700BF174B002B08BF134B9D46FFF711
:100EE000F5FF00218B460F461348144A121A02F0F0
:100EF0003BFC0E4B002B00D098470D4B002B00D035
:100F000098470020002104000D000D48002802D061
:100F10000C48AFF3008002F02FFC2000290000F005
:100F20005BFE02F00FFC00BF0000080000000000A4
:100F30000000000000000420A40400206806012036
:100F40000000000000000000F7B5012001F082F869
:100F50000024019001AD2746E0B200F049F80646B2
:100F6000A0B928700134042C05F10105F4D1019CCD
:100F70003CB1174800F0F4F8204600F010F900F0FA
:100F800085F82146012001F05DF80DE02B78042B57
:100F90000DD9104800F0FCF8019800F000F900218C
:100FA000012001F04FF80027384603B0F0BD0133AF
:100FB000DBB2052B2B70D5D1074800F0D1F82046C5
:100FC00000F0EDF8054800F0E3F83746CAE700BF47
:100FD00041020000000200002C0200003702000065
:100FE00008B500F0FBFA80F00100C0B208BD0000B7
:100FF000064B03EB001043688268D3F810350120DC
:1010000090401840B0FA80F0400970470409000091
:10101000002110B50C46C8B2FFF7EAFF8840013145
:1010200004430429E4B2F6D1204610BD10B5074BA5
:101030000422D3E90141187B01F5E0718000013AF7
:1010400044F8210003F11003F3D110BD040900009E
:10105000054BC3F81C05D3F81C21012AFBD1002243
:10106000C3F81C21704700BF00200040064B04223B
:10107000C3F800254FF08052C3F8242501229A605E
:101080001B22C3F80C257047002000402DE9F843CF
:10109000304E346804F12E0323F0070300AFADEBAC
:1010A000030D50238DF8003021238DF801300023EB
:1010B0008DF8023003238DF8033004F121035BBA6D
:1010C000ADF80430244B04F127086D460DF10602FB
:1010D00003F11C0153F8040B42F8040B8B42F9D1C5
:1010E0001B78137004F1230922461C4905F12300E3
:1010F00002F066FB4A462946002000F0DFFF04F5B7
:101100009273FE22B3FBF2F34344073323F0070349
:10111000ADEB030D45F8090042462946684600F04C
:10112000A1FF01465520FFF793FF6C4669448C42AE
:1011300007D15520FFF78CFF00233360BD46BDE883
:10114000F88314F8010B552808BF0020FFF780FF33
:10115000EDE700BFC004002044090000C4040020E3
:1011600038B50A4D441E14F8012F12B12B68FF2B1D
:1011700000D938BD0A2A02D1FFF788FFF3E70D2A0C
:101180001FBF591C5B1929601A71ECE7C0040020CD
:1011900008B5FFF7E5FFBDE80840FFF777BF1FB5CB
:1011A0000C2201A900F0B8FF01A8FFF7D9FF05B094
:1011B0005DF804FB7FB50DF1070300228DF80700F1
:1011C000029302A9012304480592CDE9033201F0FC
:1011D0004BFD07B05DF804FB00010020F8B50733B4
:1011E000122706460698079C0731DD0807FB02F325
:1011F00003EBD1031044234407FB004404EBD10468
:10120000314618462A4602F0DBFA03461233A3425F
:101210002E44F5D1F8BD0000044B0822C3F8082580
:10122000034B4FF4E07043F00103184700030050F4
:101230007009000010B5084C4FF4E07044F0010450
:10124000A047064B0822C3F80C254FF480702346B4
:10125000BDE81040184700BF7009000000030050AF
:101260002DE9F0410646FFF7D7FF8020FFF7A2FFE8
:101270000025012420BA90FAA0F0C0B2FFF79AFF2F
:1012800006EB0508002718F8010B00BA90FAA0F049
:101290000137C0B2FFF78EFF122FF4D100200134C6
:1012A000FFF788FFA92C05F11205E3D10020FFF715
:1012B00081FFBDE8F041FFF7BDBF000010B5ADF6FE
:1012C000D83D02AC4FF43D620021204602F04CFABA
:1012D0001B23009340226923102105480194FFF746
:1012E0007DFF2046FFF7BCFF0DF6D83D10BD00BFC7
:1012F000760900002DE9F04FADF6E43D04AD039012
:101300004FF43D620021284602F02EFA47232A4876
:1013100000930195452318222321FFF75FFF1C202E
:1013200006464FF024084FF0010C039A0F23834028
:101330001340224AC34008FB03230DF6380700245C
:1013400003F1010913F814B00022082A06D00CFAA0
:1013500002F111EA0B0F05D10132F6E719F814106A
:10136000C9070FD59119C1F3C40E01F0070117F891
:101370000EA00CFA01F1013241EA0A01092A07F82C
:101380000E10E2D10134122C07F11207DAD10B361C
:10139000742EA0F10400C8D10E23009390226D2377
:1013A000102107480195FFF719FF2846FFF758FF5E
:1013B0000DF6E43DBDE8F08F08010020F00A0000C2
:1013C0008703002008B5FFF727FF0020FFF7F2FE94
:1013D0000020FFF7EFFE0020FFF7ECFEBDE808401D
:1013E000FFF728BF5E23F0B55843224BB0FBF1F462
:1013F000D3F84C23A242ADF6DC3D38D002AD4FF419
:101400003D6200212846C3F84C4302F0ADF91B238E
:10141000194800934022692310210195FFF7DEFE51
:101420000823009318211548019560236A22FFF7CD
:10143000D5FE0DF28E7700214FF0010C78180022B6
:101440000DE002F11903C3F3C40603F0070310F81B
:1014500006E00CFA03F343EA0E0383550132A2427D
:10146000EFD112316C29E9D12846FFF7F9FE0DF6CC
:10147000DC3DF0BD0001002076090000300D0000C9
:101480000C4A08B511460C4BC2F8643301F554718F
:1014900000231A46A1F5547001F0AAFB074B032262
:1014A000C3F80C274FF0A043C3F810271022C3F84D
:1014B000082508BD0001002040420F000003005035
:1014C00070B50C46ADF5806D00254618B4F5806FFB
:1014D000A6EB04010BD82246684600F0ABF8224682
:1014E0006946284600F0EAFD0DF5806D70BD4FF4A9
:1014F0008062684600F09EF828464FF48062694694
:1015000000F0DCFDA4F580640546DFE7F7B5304D5B
:10151000304C00264FF44173012732463146AB83ED
:101520002846032385F8233085F8206085F82A7043
:1015300001F06AF84FF0FF33C4F824353846C4F898
:101540002835C4F83035C4F83435C4F83835C4F813
:101550003C3501F0F1F86B68FF2B08BF4FF0FF330B
:10156000C4F82435AB68FF2B08BF4FF0FF33C4F835
:101570002835EB68FF2B08BF4FF0FF33C4F8303538
:101580002B69FF2B08BF4FF0FF33C4F834356B696C
:10159000FF2B08BF4FF0FF33C4F83835AB69FF2B82
:1015A00008BF4FF0FF33C4F83C350B4C2068A388CC
:1015B00000903246314668461034ADF804303C4362
:1015C00001F052F84FF40C60A04703B0F0BD00BF2B
:1015D0007004002000900240900D00001FB5124BD7
:1015E000D3F81600029001AA00215B8BADF80C30F5
:1015F00002A801F039F89DF805409DF804300B4829
:10160000240244EA03449DF806301C43FFF7A8FD7A
:101610002046FFF7C4FDFFF739FD0548231A58425D
:10162000584104B010BD00BF900D000081020000C1
:101630001960C80013460A46194601F099B800001F
:1016400010B586B04FF4D643ADF804300322002322
:10165000CDE902236A46CDE90423304930481A46D1
:1016600001F0F2FD2F4B9842044607D02E48FFF7B9
:1016700077FD2046FFF793FDFFF708FD284801F0AE
:1016800037FE40F60813ADF800302548012300224C
:1016900001A98DF8023001F077FE224B98420446F2
:1016A00007D02248FFF75CFD2046FFF778FDFFF7E3
:1016B000EDFC40F60853ADF800301948082300222D
:1016C00001A98DF8023001F05FFE164B98420446E6
:1016D00007D01648FFF744FD2046FFF760FDFFF7EF
:1016E000D5FC4FF40273ADF800300D480123002201
:1016F00001A98DF8023001F047FE0A4B98420446DA
:1017000007D00A48FFF72CFD2046FFF748FDFFF7FA
:10171000BDFC034801F00CFE06B010BDAC0D00008E
:101720009C0400200000AD0B8C0200009E02000013
:10173000B0F5801F10B504460BD90F48FFF710FD18
:101740002046FFF72CFD0D48FFF722FD4FF0FF303C
:1017500010BD00231A46B4EB023F03F101034FEA28
:10176000023105D301F580518C4201D21046EFE7DA
:10177000FF2BEFD11846EBE7B4020000BD020000DA
:101780002DE9F047044616461F4651B30D182C4369
:1017900014F0030805D01B48FFF7FAFC0020BDE851
:1017A000F087FFF7C5FF0446681EFFF7C1FF611C05
:1017B0000546F3D0421CF1D0A0EB040909F1010960
:1017C0001EB13A4649464046B047DFF83C80022306
:1017D000C8F80435C4F1010AAC4204DD0023C8F89E
:1017E00004350120DBE72303C8F80835D8F80034B6
:1017F000DB07FBD526B13A4649460AEB0400B04761
:101800000134E9E7D602000000E001402DE9F0478D
:101810008418044314F003040646894615461F46FF
:1018200005D01248FFF7B4FC0020BDE8F087DFF8D0
:1018300040800123C8F804354FEAD21AAC4204D3E1
:101840000023C8F804350120EFE7D8F80034DA07A0
:10185000FBD559F80430A3512FB1630603D1089A80
:101860005146E009B8470434E8E700BF030300002D
:1018700000E00140044B0122C3F808254FF4003278
:10188000C3F80425704700BF000001404FF08043BB
:101890004FF0FF32D3F80004C3F80024C0F3400037
:1018A00070474900FFF79EBD2DE9F047012186B042
:1018B00005460020FFF796FD042000F0E6FA03A895
:1018C000294600F039FB03A800F05AFB30B93C4828
:1018D000FFF75EFC012006B0BDE8F08739480C3503
:1018E000FFF756FC04992846FFF7EAFD0446364800
:1018F000FFF736FC2046FFF752FCFFF7C7FB059BBE
:101900009C4201D03148E3E7049CDFF8E080304896
:10191000FFF73EFC21462F4A00234046FFF730FFE9
:101920002D48049FFFF734FC0024A1464FEA570AD4
:10193000A74217D93E1BB6F5803F28BF4FF480362B
:10194000264832462919FFF775FE2449CDF8009044
:101950000023324608EB0400FFF758FF38BB20484D
:10196000FFF716FC1F48FFF7FBFB0498FFF717FC77
:101970001D48FFF7F5FB049A1C49002000F09EFB70
:1019800004461B48FFF7ECFB0598FFF708FC1948D5
:10199000FFF7E6FB2046FFF702FCFFF777FB059B0E
:1019A0009C420BD01448FFF7F3FB022093E734442A
:1019B00039460AEB5400FFF715FDB9E700208AE726
:1019C000300300004E0300006B03000081030000A1
:1019D000A4030000A3180000B7030000C405002002
:1019E000CA030000D5030000E3030000004000002C
:1019F000EC030000FF0300000504000010B5022006
:101A000000F05BFAD8B3042000F057FA044670B136
:101A10001B48FFF7BDFB042000F043FA022000F052
:101A200040FABDE810404FF4004000F03ABA1548C3
:101A3000FFF7AEFB082000F034FA102000F031FA76
:101A4000202000F02EFA402000F02BFA2046FFF76D
:101A50002BFF022807D1082000F017FA102000F011
:101A600014FA00F0E9FA042000F01BFA022000F05A
:101A700018FABDE810404FF4004000F006BA10BD5F
:101A8000500400008604000010B52548FFF780FBD5
:101A90004FF40010FFF708FF0138C0B201280ED93B
:101AA000202000F0FEF9402000F0FBF9802000F03B
:101AB000ECF90124042000F0F4F9204610BD0820C0
:101AC00000F0E3F9102000F0E0F9202000F0F5F933
:101AD00058B91448FFF75CFB202000F0D6F94FF40A
:101AE000007000F0D2F900F0A7FA402000F0E5F90C
:101AF00020B90D48FFF74CFB4020EEE70B48FFF7FD
:101B000047FB082000F0CDF9102000F0CAF9202092
:101B100000F0C7F9402000F0C4F90024CAE700BF74
:101B2000A1040000BB040000F40400002D05000027
:101B300008B50248FFF72CFB00F0FBF96705000031
:101B40001EF0040F0CBFEFF30880EFF30980FFF7DE
:101B5000EFBF704708B50120FFF74AFA18B9002017
:101B600000F0010008BD0020FFF742FA0028F6D07F
:101B70000220FFF73DFA0028F1D00320FFF738FAE2
:101B800080F00100C0B2EBE71FB504461048FFF734
:101B9000FFFA0C2201A9204600F0BEFA01A8FFF7C7
:101BA000F7FA2046FFF7A6FBFFF732FA094C20F0C0
:101BB00004002070FFF72CFA237800F0FB0083422A
:101BC00001D000F039FA0A2000F098FAF2E700BFDD
:101BD0005D050000C405012030B585B0FFF746FA69
:101BE0009148FFF7D5FA9148FFF7D2FA9048FFF7EE
:101BF000CFFA9048FFF7CCFA8F48FFF7C9FA8A4826
:101C0000FFF7C6FA00F063F98C48FFF7C1FA00F05D
:101C100084F90023CDE90133039300F07BF90C2212
:101C200001A900F079FA01A8FFF7B2FA7E48FFF7A0
:101C3000AFFA7D48FFF7ACFA4FF4804000F03DF971
:101C400090B17F48FFF7A4FA4FF4804000F029F9E3
:101C5000082000F026F9102000F023F9202000F0E1
:101C600020F9402000F01DF9FFF7EAFCFFF74EFCD9
:101C7000FFF7DCF9FFF704FCFFF720FBFFF764F93F
:101C800028B17048FFF784FA6F48FFF77DFFFFF730
:101C9000A7F920B16D48FFF77BFA6D48F5E700F032
:101CA00029F9802000F009F920B1802000F0F9F82E
:101CB0006848EAE74FF4003000F0FFF838B14FF41D
:101CC000003000F0EEF86448FFF762FA48E0FFF7F2
:101CD00041FF68B16148FFF75BFA41F28834FFF7D2
:101CE00039FF60B1012000F009FA013CF7D1EAE7C1
:101CF0005B4B1A685B68013312D0013210D0FFF7DA
:101D0000C5FD88B94FF4007000F0D7F878B9082005
:101D100000F0C7F8102000F0C4F8FFF76FFE23E0D2
:101D20005048FFF735FACEE74F48FFF731FA4FF446
:101D3000007000F0C2F810B14C48FFF729FA4FF4D8
:101D4000007000F0AEF8102000F0B7F878B3484803
:101D5000FFF71EFA082000F0A4F8102000F0A1F808
:101D6000FFF792FE0028A3D04FF4005000F0A5F832
:101D700005464FF4805000F0A0F844004FF4006096
:101D800000F09BF844EA850464B2204340B207287F
:101D90001DD14FF4006000F084F84FF4805000F043
:101DA00080F84FF4005000F07CF832486DE70820CE
:101DB00000F083F830B13048FFF7EAF9102000F066
:101DC00064F8AAE72D48FFF7E3F90820F7E70328AE
:101DD0001FD020F0040001284FF4006014D000F060
:101DE00054F8FFF747FD1E4B25485C681D68FFF758
:101DF000B7F92046FFF7D3F92248FFF7B1F963B6E8
:101E00004FF0FF3EAD46204700F04BF84FF48050B6
:101E1000E5E74FF4006000F044F84FF4805000F024
:101E200040F84FF40050DAE76E070000720500003A
:101E300090050000AE050000CC050000EA0500009A
:101E4000F305000020060000014550FE2D060000AD
:101E5000024550FE034550FE340700003A060000DC
:101E6000004000007506000088060000A006000083
:101E7000C0060000044550FEE80600000E07000002
:101E80005307000067070000704710B504460020A4
:101E900000F0E0F840EA0401BDE81040002000F046
:101EA000D1B810B50446002000F0D4F820EA0401AF
:101EB000BDE81040002000F0C5B810B50446002071
:101EC00000F0C8F82040003818BF012010BD4FF0C6
:101ED000804208B5D2F8043943F48023C2F80439AB
:101EE0000120FFF7EAFF20B9BDE80840012100F01A
:101EF000A9B808BD08B50648FFF732F9002000F080
:101F0000A9F8FFF74CF9BDE80840FFF7BFB800BFDC
:101F10006F070000022000F09DB808B5FFF7FAFF38
:101F2000012805D0BDE808400121022000F08AB850
:101F300008BD00BEFDE700001FB50C22044601A845
:101F4000FFF778FB0C48FFF70BF90298FFF727F92A
:101F5000FFF79CF80948FFF703F90398FFF71FF90B
:101F6000FFF794F801AB03CB20601868A06020460F
:101F7000616004B010BD00BF7B0700008D0700004A
:101F80000068A0F10C0358425841704780B50646DE
:101F9000174610480D461C46FFF7E2F83846FFF793
:101FA000DFF80D48FFF7DCF83046FFF7D9F80B48AB
:101FB000FFF7D6F82846FFF7F2F82CB10848FFF7EC
:101FC000CFF82046FFF7CCF80648FFF7E1F8FFF717
:101FD000B0FF00BF980700008D050000A1070000BA
:101FE0008E0500006E0700001FB506AC1A4654F8B7
:101FF000043B00940394FFF7C9FF000007B5034BAF
:1020000000937246024BFFF7EFFF00BFC1070000CD
:10201000BB070000BFF34F8F0549064BCA6802F4A7
:10202000E0621343CB60BFF34F8F00BFFDE700BFFB
:1020300000ED00E00400FA0508B5FFF7C3F9FFF76B
:10204000E9FF0000024B800043F82010704700BFFA
:1020500000000020024B800053F82000704700BFB2
:10206000000000202DE9F04105460024012027460C
:10207000034602F1FF38944205EB070C03D18CF8BC
:102080000030BDE8F08111F804E0461CBEF1000FFD
:1020900005D1EB550746012301343046EBE7013308
:1020A000DBB2FF2B05F800E0F6D1A04504D037469F
:1020B0008CF80030861CEEE73046E0E730B5C9B159
:1020C0000D4DC0430A44914201D1C04330BD11F8C7
:1020D000013B83EA000404F00F0455F8244084EA2D
:1020E000101080EA131303F00F0355F8233083EA2E
:1020F0001010E8E70846E9E7BC0D000038B5054DCB
:10210000044645F0010504B938BD4FF47A40A847AC
:10211000013CF8E7000E00000A2A30B403DC30BCB2
:102120001048FFF735B80C46302304F8023B7823FB
:102130004B701C220F2505FA02F30340D340092BF4
:102140000AD83033DBB2043A04F8013B131DF2D154
:10215000002330BC8B7270470F2B01D85733F1E747
:102160002023F0E7F607000070B546090D4600F0A1
:102170001F0419D0012E04D14FF6FF73E340DB0793
:1021800004D413484FF46C71FFF738FF7EB1012E71
:102190001CD00F4840F2B931FFF730FF04F5E0746E
:1021A000002353F82430FFDE4FF0FF33E6E74FF013
:1021B000A04202EB8402074BD2F800170B4043EA1F
:1021C000052343F00203C2F8003770BD024AF0E76E
:1021D0000C080000F0F8FCFF000300500E4B023822
:1021E000D3F83C26D3F8383610B5072813D8DFE8E3
:1021F00000F0110F0D0B0A080604100EC871100C28
:102200008871100A48710A711A0ECA701A0C8A7005
:102210001A0A4A700B7010BD00900240023807285D
:102220001FD8DFE800F02927251123211F04CB79CF
:102230001B068A7943EA02434A7943EA02230A7970
:1022400013430E4AC2F83C36CB781B068A7843EA21
:1022500002434A7843EA02230A781343074AC2F842
:10226000383670470023E4E70023E5E70023E6E77C
:102270000023EBE70023ECE70023EDE700900240AA
:102280000268154BFF2A08BF4FF0FF32C3F8242520
:102290004268FF2A08BF4FF0FF32C3F82825826842
:1022A000FF2A08BF4FF0FF32C3F83025C268FF2A6B
:1022B00008BF4FF0FF32C3F834250269FF2A08BF78
:1022C0004FF0FF32C3F838254269FF2A08BF4FF0AC
:1022D000FF32C3F83C25704700900240F8B5114D1D
:1022E0006C6BB4B14FF47A735C430A23B4FBF3F420
:1022F0000D4E0E4F46F00106D7F8003163B995F840
:1023000039304BB94FF42070B047013CF4D1084844
:10231000F8BD4CF25034EBE795F83930002BF6D18C
:102320000448F5E7C8050120100E000000900240A7
:102330000700AD0B0000AD0B0A4B10B500220124C5
:10234000C3F80045C3F800211C6038B1FFF7C6FF91
:10235000054B984204D1054B83F83840024810BD24
:102360000348FCE7009002400000AD0BC8050120C7
:102370000700AD0B2DE9F8433D4C994694F83030F9
:102380000646884617461BB93A487F21FFF736FEB6
:102390002EB938488021FFF731FE374841E006F07A
:1023A0006043B3F1005FF8D1B307F6D194F8303051
:1023B000012B05D04B4558D194F83830002B54D020
:1023C0002E4AB9F1020F4FF000030BBFC2F810758F
:1023D000C2F80475C2F81465C2F808650CBFC2F8EB
:1023E0001885C2F80C8584F8393023680CBF08259D
:1023F0000425C3B994F838306BB1204B05F1804502
:1024000005F524350022C3F8002101232B60BDE827
:10241000F843FFF763BF0120FFF78EFF184B984288
:10242000EBD1BDE8F883A3682BB1E660C4F8148053
:10243000E7611448F5E7114AA660C4F81080A76167
:1024400084F83090C2F800310123C2F8043394F8C4
:10245000382002F0FF0012B9FFF76EFFE9E705F13F
:10246000804505F524352B60E3E70748D9E700BF31
:10247000C8050120430800000A00AD0B009002408F
:102480000700AD0B0000AD0B0B00AD0B30B5194DC7
:102490000FCD8DB006AC0FC495E8030084E80300AF
:1024A0001549D1F82435DBB20093D1F82835DBB2D9
:1024B0000193D1F83035DBB20293D1F83435DBB279
:1024C0000393D1F83835DBB20493D1F83C3506A834
:1024D000DBB20593FFF7D4FE0023C1F800310123DE
:1024E0000B60D1F80031002BFBD06846FFF7C8FE27
:1024F0000DB030BD180E00000090024090F8293059
:1025000070B5044613B190F82A206ABB6068FF28B2
:102510006DD0A268FF2A6AD0E268FF2A67D02269DC
:10252000FF2A64D0D3B90321FFF71EFEA068032160
:10253000FFF71AFEE0680321FFF716FE206903216A
:10254000FFF712FE6069FF2802D00321FFF70CFE9F
:10255000A069FF2802D00321FFF706FE94F82A3075
:1025600013B9201DFFF78CFE224E636A224D736360
:1025700094F8293086F83A300123C5F80833FFF77C
:1025800085FF2368C5F84035A37F617F227F9B01CB
:1025900043EAC1031343E27F43EAC213C5F844355B
:1025A000D5F8002694F8203022F07F4222F0FF0276
:1025B000134394F8212043EA026394F8222043EA6B
:1025C000426394F8232043EA0273C5F80036336867
:1025D0005BB194F82830094A5B01DBB282F82933F9
:1025E0004FF40073C2F884315360054870BD05484C
:1025F000FCE700BFC80501200090024000E100E0B8
:102600000000AD0B0400AD0BF8B50F4616460546AD
:1026100020B910484FF4DB71FFF7F0FC0E4C94F832
:102620003030A3B9C4E900764DB90023C4E90233C0
:1026300001220A4884F8302084F83830F8BD284652
:10264000FFF75CFF054B9842EFD00548F6E70548D9
:10265000F4E700BF43080000C80501200000AD0BEF
:102660000400AD0B0C00AD0B2DE9F047DFF8C4A062
:102670009AF8303005468946164623B928484FF463
:102680000171FFF7BBFC9AF83000012846D19AF897
:102690003830DFF8948063B3224F0123C7F8083342
:1026A000FFF7F4FE6C78B9F1000F29D1AA784FF04A
:1026B00000098AF839902302C7F8009143EA0233EF
:1026C0002A781343EA7843EA42332A7943EA823389
:1026D0006A7943EAC233C7F83436FFF7FFFD404555
:1026E00013D12B794BB90E4840F23621FFF786FC07
:1026F00003E0FFF721FE4045CED10B48BDE8F0874F
:1027000049462046FFF78AFDD0E7C7F800911EB181
:1027100068783146FFF762FD0448EFE70448EDE7CB
:1027200043080000009002400700AD0B0000AD0B15
:102730000B00AD0BC805012038B50A4D95F83030B7
:10274000044623B908484FF43F71FFF757FC95F84A
:10275000383023B92046BDE83840FFF7EDBD0348C7
:1027600038BD00BFC8050120430800000C00AD0BB8
:102770000323FFF7FFBD30B505469008403801241C
:10278000844014EA010009D0A85838B10021A950AA
:10279000AA5813B11A6822431A60012030BD2DE9EE
:1027A000F341002304460D460193904601AB4FF4DC
:1027B000A672FFF7E0FF4FF4827229462046FFF72A
:1027C000DAFF4FF48C72074629462046FFF7D3FF05
:1027D000064630B1B8F1000F1DD017B1D4F83C3522
:1027E0003E4601AB4FF4887229462046FFF7C3FFEF
:1027F00030B1B8F1000F03D016B90FB1D4F83C35A1
:1028000001AB4FF4907229462046FFF7B4FF0198C0
:1028100002B0BDE8F0814646E3E7000003685A09CC
:1028200010B504461CD0012A06D14FF6FF7203F002
:102830001F03DA40D30704D40D484FF46C71FFF73F
:10284000DDFB236803F01F025B0922600BD0012B24
:102850000CD0074840F2B931FFF7D0FB002010BD83
:102860004FF0FF32E3E74FF0A040F8E70148F6E70A
:102870000C0800000003005007B5019001A8FFF705
:10288000CDFF019A01239340C0F8083503B05DF8ED
:1028900004FB07B5019001A8FFF7C0FF019A0123CF
:1028A0009340C0F80C3503B05DF804FBF7B517464C
:1028B000421C1C460646089B0D4618D0012902D131
:1028C000BBB1FFF7D9FF01A80196FFF7A7FF019B56
:1028D00000EB83002402D0F80027074B44EA87046A
:1028E0002C4313401C4344EA4504C0F8004703B09E
:1028F000F0BDFFF7CEFFE6E7F0F8FCFFF8B51A4FA2
:10290000012304460D46436164261F430022022131
:102910002046FFF744FF18B94020B847013EF5D1E3
:102920004FF080530022D3F830116A77082918D16C
:10293000D3F83431ABB94FF0FF32D4F80805D4F8EE
:102940000C15C4F80035C4F80825C4F80C25092274
:10295000C4F80025C4F80035C4F80805C4F80C15FF
:10296000F8BDC4F80025FBE7300E0000104B98427C
:102970001BD011D80F4B984217D008D80E4A0F4BD6
:10298000984218BF90420CBF0120002070470C4BAA
:10299000C31A5842584170470A4B984205D002D892
:1029A000094A0A4BECE70A4BF2E70120704700BFE7
:1029B00080841E0020A1070090D0030048E8010099
:1029C00040420F000024F40000127A0000093D008C
:1029D0000048E8012DE9F3474B69794A90F80490E3
:1029E000934207460C4600F0D08000F2B880754A4A
:1029F000934200F0CD8000F2AB80734A934200F026
:102A0000CA80724A934200F0C98071484FF4BC7189
:102A1000FFF7F4FA4FF08045DFF8D081E67E2422FC
:102A200002FB0983997F66F3000199773B79217C4A
:102A300002FB03839A7F61F341029A775EBB62696E
:102A4000644B9A420CBF4FF0030A4FF0000A237EFA
:102A5000012B94BF00230123009320685346324684
:102A60000121FFF723FF009660685346324601219B
:102A7000FFF71CFF0096A27EA06853463146FFF781
:102A800015FF237C83F001030093E0685346324630
:102A90000121FFF70BFF242303FB0983E2681A627D
:102AA000217C9A7F267F61F341029A7794F812C0C5
:102AB000217E94F819E03B6896B9D4E90190226828
:102AC000C3F80825C3F80C95C3F810054FF0FF3084
:102AD000C3F86C05C3F81405C3F86865C3F86465EA
:102AE000BEF1000218BF01220229C3F8C0C5C3F815
:102AF000245559D003295AD0012901D142F00202AC
:102B0000C3F854250222C3F860253A7924214A43A8
:102B100058F80220CAB1627C43F307335201002BFC
:102B2000D2B247DB03F1604101F5614181F8002336
:102B300003F01F015B099B0003F1604303F5614350
:102B400001228A40C3F880211A6002B0BDE8F087F4
:102B5000214A93427FF459AF4FF080555CE71F4AFA
:102B600093421ED00AD81E4A93423FF453AF1D4AE7
:102B700093427FF44AAF4FF000454DE7154A934228
:102B80007FF443AF4FF0A05546E74FF0005543E7C1
:102B90004FF0006540E74FF000753DE74FF080656E
:102BA0003AE74FF0206537E742F00402A8E742F029
:102BB0000602A5E70C4903F00F03CA54C5E700BF9E
:102BC00080841E0020A1070048E8010090D0030087
:102BD000830800000048E80140420F000024F40090
:102BE00000093D0000127A0014ED00E00406012007
:102BF0002DE9F8430646914698460D4621B91548F9
:102C000040F24B21FFF7FAF93779134C242303FBE9
:102C100007431B7FD3B91DB16869FFF7A7FEB8B1A1
:102C200024217943631844F80190C3F804801DB14E
:102C300029463046FFF7CEFE242303FB074400233A
:102C40006377064801232377BDE8F8830448FBE750
:102C50000448F9E783080000040601200000AD0BDA
:102C60000C00AD0B0400AD0B2DE9F04F6D4F90F84B
:102C70000480242303FB087385B01B7F82460D4626
:102C8000164623B9684840F29131FFF7B7F92B682F
:102C900033B96B6823B1644840F29231FFF7AEF963
:102CA000AB68002B55D1EB68002B4DD1EB88002B86
:102CB00052D116F008090AD0242303FB08731B6ABB
:102CC000013304D0584840F29731FFF797F9242395
:102CD00003FB08F3FA18517F002940F0A180FB584C
:102CE00023B116F0140F04BF0123537795E80F00AA
:102CF000242404FB087404F10C0C8CE80F00206AF7
:102D0000431C04D0A37F99072CD5FFF7B5FDD5F858
:102D100000B0BBF1000F04D00BF06043B3F1005FD3
:102D200009D1D5F808E0BEF1000F1ED00EF06043C7
:102D3000B3F1005F19D0242303FB087300223B4842
:102D40005A7705B0BDE8F08F374840F29331FFF76E
:102D500055F9EB89002BA9D033484FF46571FFF783
:102D60004DF9A6E7FFF795FDD1E7DAF8004016F038
:102D7000010318BF0123C4F8503516F0020318BF31
:102D80000123C4F8403595E80F00C4F844B58DE838
:102D90000F00C4F84815C4F834E5C4F838350023EA
:102DA000C4F81831D4F818310723C4F800352423A7
:102DB00003FB08F3EC46FB58B9F1000F21D10122C7
:102DC000226103BBD4F81831002BFBD062464021AE
:102DD0002046FFF7E4FC242303FB0873186A421C17
:102DE00004D09B7F9B0718D5FFF753FDB9F1000F67
:102DF00005D1242101FB08712046FFF77FFD0C4817
:102E00009FE7002BE7D016F0040F4FF0400314BFEC
:102E1000C4F80833C4F80433F1E7FFF72DFDE5E704
:102E200004488EE704060120830800000A00AD0B69
:102E30000000AD0B0B00AD0BCA7B036810B52AB9BF
:102E4000D1E90042C3F80845C3F80C258A68C3F8E5
:102E5000242502793C20424311488258CAB10A7B9A
:102E600043F307335201002BD2B213DB03F160416D
:102E700001F5614181F8002303F01F015B099B000C
:102E800003F1604303F5614301228A40C3F88021C6
:102E90001A6010BD034903F00F03CA54F9E700BFDD
:102EA0002806012014ED00E0D0F8043130B52BB134
:102EB0000023C0F80431D0F80431012391F82F2009
:102EC00022B30022C0F82421D0F82441C0F81C21EC
:102ED000D0F81C41C0F80821D0F80821002B79D087
:102EE000002281F82D2091F82F20002A37D14D6B38
:102EF0008C6AA5421FBF0523C0F80025C0F8003525
:102F0000134683F0010381F82F3028E0D0F82441E4
:102F100014B1C0F824210EE0D0F81C216AB3C0F827
:102F20001C41D0F81C214A6BD0F8245101324A636D
:102F300045B1C0F82441D0F824210122426181F832
:102F40002F20CBE78C6AA24204D24C6AA25CC0F864
:102F50001C25C3E791F82C201AB10123C36100207E
:102F600030BD0A6A12F0400F4FF0010203D0C26177
:102F700081F82D20F3E74261B0E7D0F80841002C3A
:102F8000ACD0C0F80821D0F80841D0F82441002C7A
:102F9000BFD14A6B8C6AA242A0D24C6AD0F81855B5
:102FA000A5544A6B8C6A0132651EAA424A6308D155
:102FB0000A6A540602D40222C0F8002201220262E8
:102FC0008CE7A242FAD10A6A520687D5022381F819
:102FD0002D30C4E70120C3E72DE9F0415FEA501826
:102FE0000E4617461C4600F01F051DD0B8F1010F14
:102FF00004D14FF6FF73EB40DB0704D416484FF4BF
:103000006C71FEF7FBFFB8F1000F10D0B8F1010FA3
:103010001FD0114840F2B931FEF7F0FF05F5E07519
:10302000002353F82530FFDE4FF0FF33E3E74FF086
:10303000A04303EB8503094AD3F80017240244EAAE
:1030400087040A4044EA46041443C3F80047BDE835
:10305000F081034BEDE700BF0C080000F0F8FCFF27
:103060000003005013B53A4B01930023C0F804311C
:10307000D0F80421C0F82431D0F82421C0F81C3144
:10308000D0F81C21C0F80831D0F80821C0F800326F
:103090004B6381F82F300123036291F82D209A426F
:1030A00018BF83608B6A044673B14B6A1B78C0F803
:1030B0001C350B6803B340F286238B608B68254870
:1030C000C4F8043302B010BD91F82C3013B10123C1
:1030D000C361EEE70B6A13F0400F4FF0010316BF18
:1030E000C361436181F82D30E3E72046FFF7DCFE42
:1030F00028B1019B013B0193019B002BF5DC91F86A
:103100002F305BB91348019B002BDBDC0023C4F894
:10311000003505231048C4F80035D3E7D4F8C4348B
:10312000C4F8C4348BB10C4A0C4813F0010F08BF2B
:10313000104613F0020F02F5803218BF104613F04C
:10314000040F074B18BF1846DDE70348DBE700BF55
:10315000A08601000000AD0B0100AD0B0000AE0B1E
:103160000200AE0B13B5334B01930023C0F80431BA
:10317000D0F80421C0F82431D0F82421C0F81C3143
:10318000D0F81C21C0F80831D0F808214B6381F831
:103190002F308B6A012B044617D10B6A5B0614D4BF
:1031A0000223C4F800320123236291F82D20022A61
:1031B00018BF23600B688BB140F286238B608B684D
:1031C0001D48C4F8043302B010BD0123E9E72046CE
:1031D000FFF76AFE28B1019B013B0193019B002B85
:1031E000F5DC91F82F305BB91348019B002BEADC2A
:1031F0000023C4F8003505231048C4F80035E2E781
:10320000D4F8C434C4F8C4348BB10C4A0C4813F05D
:10321000010F08BF104613F0020F02F5803218BFED
:10322000104613F0040F074B18BF1846DDE703489C
:10323000DBE700BFA08601000000AD0B0100AD0B75
:103240000000AE0B0200AE0B2DE9F0470746914699
:103250009A460C4619B92248B521FEF7CFFE97F8D9
:103260000480204D3C2000FB08F0291891F82E60C6
:103270009EBB8E6045F80090C1F804A081F82D60D7
:1032800081F8316081F83060F4B1637B81F83830C7
:10329000A37B81F839309BB9D4E900239A4203D14A
:1032A0000F48E821FEF7AAFE20680623032200212A
:1032B000FFF792FE6068062303220021FFF78CFED1
:1032C00021463846FFF7B8FD3C2303FB0855064866
:1032D000012385F82E30BDE8F0870448FBE700BFE6
:1032E000C3080000280601200000AD0B0C00AD0B48
:1032F00070B50D4C06793C2303FB0643054693F855
:103300002E30012B04D0094840F23111FEF776FE31
:103310002B680522C3F800253C2303FB0644022347
:1033200084F82E3070BD00BF28060120C3080000BD
:1033300070B5124C06793C2303FB0643054693F80F
:103340002E3023B90E484FF49F71FEF757FE2B68BD
:103350000C4AC3F80823D3F8002222F00302C3F872
:1033600000220022C3F800253C2303FB064401236E
:1033700084F82E3084F8302070BD00BF280601206C
:10338000C3080000864204002DE9F8434D4F06793A
:103390003C2303FB0673054693F82E30022B0C46A4
:1033A000904604D0484840F2AE21FEF727FEE3687D
:1033B00033B9636823B1444840F2AF21FEF71EFEE3
:1033C000236933B9A36823B13F484FF42C71FEF74A
:1033D00015FE4FF03C0909FB06F957F80930A3B96F
:1033E0002378022B08D02378032B0ED136484FF4D4
:1033F0002D71FEF703FE08E0334840F2B321FEF7DB
:10340000FDFD57F80930002BEDD03C2303FB06737C
:10341000D5F8009093F82D30012B04D12378012B9F
:1034200006D12A4811E0022B02D12378012BF8D1D2
:103430003C25274BC9F8083305FB067595F8303055
:103440002BB1AB682348C9F80433BDE8F883C8F34F
:10345000800383F00103DBB2A64685F83030BEE876
:103460000F0005F10C0CACE80F00DEF80030CCF8D2
:1034700000306368AB62E368C5F820806B626378F4
:10348000C9F888352378012B17D09BB9C8F34018A9
:103490003C2303FB06732946484683F82C80FFF73C
:1034A000E1FD3C235E43BA19BB59002BCDD182F814
:1034B0003030CAE74FF00108EAE729464846FFF7EF
:1034C00051FEEEE728060120C30800000500AD0B01
:1034D000864204000B00AD0B0F49104A104B00F060
:1034E00010F81049104A114B00F00BF81049114A1E
:1034F000114B00F006F81149114A124B00F001F887
:1035000006E0521A03DD043A98588850FBDC7047F5
:1035100000F03AF8FDF7DEFC00010020A4040020D2
:1035200048380000A4040020A4040020EC3B000064
:10353000A4040020A4040020EC3B0000A40400200C
:10354000A4040020EC3B0000FEE7FEE7FEE7FEE7F8
:10355000FEE7FEE7FEE7FEE7FEE7FEE74FF08053FB
:10356000D3F83021082A03BFD3F83401B0FA80F031
:103570004009002070470000024AD2F80034002BB6
:10358000FBD0704700E0014008B54FF08053D3F8FE
:103590003021082A4ED14FF080420021C2F80C1190
:1035A000C2F81011C2F8381502F54042D3F80414DD
:1035B000C2F82015D3F80814C2F82415D3F80C1457
:1035C000C2F82815D3F81014C2F82C15D3F8141427
:1035D000C2F83015D3F81814C2F83415D3F81C14F7
:1035E000C2F84015D3F82014C2F84415D3F82414B7
:1035F000C2F84815D3F82814C2F84C15D3F82C1487
:10360000C2F85015D3F83014C2F85415D3F8341456
:10361000C2F86015D3F83814C2F86415D3F83C1416
:10362000C2F86815D3F84014C2F86C15D3F84434C6
:10363000C2F87035FFF792FF18B13B4B3B4AC3F815
:103640008C26FFF78BFF18B1394BFB22C3F81825E6
:10365000FFF784FF58B14FF080424FF08051D2F80D
:10366000E43ED1F8581261F30303C2F8E43EFFF7D9
:1036700075FF20B12F4B4FF40072C3F840264FF076
:103680008053D3F83031082B09D14FF08043D3F861
:103690000024D20744BF6FF00102C3F80024264A79
:1036A000D2F8883043F47003C2F88830BFF34F8FEC
:1036B000BFF36F8F4FF08053D3F83021082A0BD11E
:1036C000D3F83431042B81BF4FF01023D3F80822F4
:1036D0004FF08043C3F858254FF01021D1F80C3239
:1036E000DB071FD515480123C0F80435FFF744FF59
:1036F000D1F80C3223F00103C1F80C32FFF73CFF84
:103700000023C0F80435FFF737FFBFF34F8F0A4996
:103710000B4BCA6802F4E0621343CB60BFF34F8FD8
:1037200000BFFDE708BD00BF005000404881030016
:1037300000F000400090024000ED00E000E0014099
:103740000400FA0508B5064B044613B10021AFF397
:103750000080044B1B6803B198472046FEF794FB9A
:10376000000000006406012002440346934200D199
:10377000704703F8011BF9E770B50D4B0D4D5B1B4E
:103780009C100026A64209D100F028F80A4D0B4BE8
:103790005B1B9C100026A64205D170BD55F8043B6A
:1037A00098470136EEE755F8043B98470136F2E7B3
:1037B000E8370000E8370000E8370000EC37000089
:1037C0000A44914200F1FF3300D1704710B511F85F
:1037D000014B03F8014F9142F9D110BDF8B500BF7C
:1037E000F8BC08BC9E467047A90E0000F8B500BFA3
:1037F000F8BC08BC9E467047810E00000000000027
:103800004838000000010020E9000000EC3B000007
:10381000A404002000000000EC3B0000A4040020F1
:1038200000000000EC3B0000A404002000000000A9
:10383000A404002071400000680601200000000080
:083840006806012000000000F1
:1038480000F0024000000000000000E0FF0F000050
:1038580000000000F8FF7F000000000000FEFFFFEE
:10386800030000000080FFFFFF1F00000000E01FB2
:1038780000F87F00000000F80F00C0FF0000000003
:10388800FE030000FE010000807F000000F003003E
:1038980000C01F000000C0070000C0070000008033
:1038A8000F0000E003000000001F0000E00100001E
:1038B80000003E0000F000000000007C0000F00066
:1038C80000000000780000780000000000F0000010
:1038D800780000000000F000003C3000000000E02C
:1038E80001003C7000000000E001001E7000700044
:1038F80000C003001EF000780000C003001EE000B6
:103908007C00008007000FE0013E00008007000FE8
:10391800C0011F00008007000FC0830F0000800750
:10392800000FC0C307000080078007E0C303000042
:1039380080078007F0C103000080078007F8800334
:103948000000800780077C800700008007C0033ED6
:10395800000700008007C0031E000F00008007E07A
:10396800030E000E00008007F00100000E0000802A
:1039780007F80000000C000080077800C071000004
:103988000080077C00E07900180080073C00F0FF09
:10399800003C0080073C00F8FF003C0080073E0028
:1039A800F8FF011E0080071E0038CF011E008007A7
:1039B8001E0000C7010F00C0031F000000000F0019
:1039C800C0030F000000800700E0010F0000008026
:1039D8000700E0010F000000C00300F0000F000026
:1039E80000C00300F0000F000000C0030078000FC3
:1039F800600000C0030078000FF80000C0033C3CE2
:103A0800000FFE0100C0033F3C009FFF0300C0C33E
:103A18003F1E00FFFF0700C0E30F1E00FE870F00D8
:103A2800C0FF031E00F8031F00C0FF001E00600057
:103A38003E00807F001E000000FC00003E001E00CB
:103A48000000F80F0018001E000000F07F000000C2
:103A58001E000000E0FF0700001E00000080FF3F7E
:103A680000001E00000000F8FF03003C00000000FA
:103A7800C0FF0F003C0000000000FC3F0078000081
:103A8800000000E0FF00F8000000000000FE03F066
:103A9800010000000000F01FE0030000000000C06B
:103AA8007FC007000000000000FFFF0F00000000BB
:103AB8000000FCFF1F000000000000F0FF1F0000D6
:103AC80000000000C0FF0F00000000000000000020
:103AD800000000000000000280000000814000009B
:103AE8000000000000028000000081400008000083
:103AF800000000028000000081400000000000007B
:103B08000002800000008140000000000000001E4C
:103B18008E3CD01C8F471C8807000000002291446F
:103B2800B022914822480800000000229F44103E1D
:103B380091483E4808000000002281441002914844
:103B480002480800000000228144120291480249FC
:103B58000800000000229E3C123C8F473C89070069
:103B68000000000000040000000000000000000049
:103B78000000000400000000000000000000000039
:103B8800000400000000000000000000FFFFFFFF2D
:103B98000600000008000000FFFFFFFFFFFFFFFF17
:103BA8000007FF0000093D000000000000000000C1
:103BB80000000000130000001100000014000000C5
:103BC80015000000160000001700000000000000AB
:103BD8000500000FF401000007000000004000404D
:043BE80000000000D9
:020000042000DA
:1000000000000000000000000000000000000000F0
:1000100000000000000000000000000000000000E0
:1000200000000000000000000000000000000000D0
:1000300000000000000000000000000000000000C0
:1000400000000000000000000000000000000000B0
:04000003000034D9EC
:00000001FF
