:020000040800F2
:1000000068200020B50100080102000899180008C6
:1000100001020008010200080102000800000000BF
:1000200000000000000000000000000001020008C5
:10003000010200080000000001020008010200089F
:100040000102000801020008010200080102000884
:100050000102000801020008010200080102000874
:100060000102000801020008010200080102000864
:100070000102000801020008010200080102000854
:100080000102000801020008010200080102000844
:100090000102000801020008010200080102000834
:1000A0000102000801020008010200080102000824
:1000B000010200080102000801020008C51300083F
:1000C000D1130008DD130008E9130008010200083D
:1000D00001020008010200080102000801020008F4
:1000E00001020008010200080102000801020008E4
:1000F00001020008010200080102000801020008D4
:1001000001020008010200080102000801020008C3
:1001100001020008010200080102000801020008B3
:1001200001020008010200080102000801020008A3
:100130000102000801020008010200080102000893
:100140000102000801020008010200080102000883
:100150000102000801020008010200080102000873
:100160000102000801020008010200080102000863
:100170000102000801020008010200080102000853
:040180000102000870
:1001840041A3525576332E302D6265746131312D81
:1001940038342D673532376464626500000000002E
:0F01A4000000000035323764646265000000011E
:1001B400002100F004B80C4B5B58435004310B4849
:1001C4000B4B42189A42FFF4F6AF0A4A00F003B808
:1001D400002342F8043B084B9A42FFF4F9AF01F0C4
:1001E4008DFE01F089FB704730AB00080000002051
:1001F400140000201400002068000020FFF7FEBF58
:1002040030B501208BB002F0C5FA002401902546D8
:10021400E0B200F0BBFB01AB08B9185519E01A5D58
:10022400042A10DD164800F025FD02A920220198B9
:1002340001F02CFE02A800F01DFD0120002102F0B7
:1002440099FA00201AE00132D2B2052A1A55A8BF41
:1002540001250134042CDBD1019C54B1094800F080
:1002640009FD204602A9202201F010FE02A800F098
:1002740001FD0120214602F07DFA28460BB030BD75
:1002840008A4000834A4000808B500F087FA80F038
:100294000100C0B208BD000008B54FF480610348F6
:1002A40002F063F8003018BF012008BD00180240B6
:1002B4002DE9F0434A4D89B0284600F00BFD28464D
:1002C4000D21052208AE02F05BF8052228460E2116
:1002D40002F056F84FF4005346F81C3D0024012761
:1002E4004FF00209284631468DF80A408DF80B403C
:1002F4008DF808908DF8097001F0EEFF4FF48043FB
:1003040028463146019301F0E7FF4FF48053284615
:10031400314601934FF400788DF808408DF80A4077
:1003240001F0DAFF284631468DF808408DF80B704D
:10033400CDF8048001F0D0FF4FF4806328463146A5
:1003440001938DF808408DF80B4001F0C5FF4FF480
:1003540080732846314601938DF808708DF80B4060
:1003640001F0BAFF4FF40043284631460193A5F546
:1003740044451C4E8DF80A708DF80B4001F0ACFF1B
:1003840039464FF4001002F099F9174B33602846B0
:1003940002F010FA03A802F084FA4FF44043ADF8D7
:1003A4000C3039464FF482733068ADF80E30ADF836
:1003B4001040ADF81290ADF81470ADF8168001F04D
:1003C40019F803A9ADF818002846ADF81A4002F050
:1003D40049FA2846394602F070FA09B0BDE8F083BC
:1003E40000180240140000200024F40008B5022084
:1003F40001F036FD012000F0B7FA022001F030FDD3
:100404000120BDE8084000F09DBA000010B5044684
:100414000548022102F05FFA0028F9D0214602487B
:10042400BDE8104002F055BA0054014038B501222D
:1004340004460D4628484FF4807101F09CFF0120CA
:1004440001F00EFD24484FF40041002201F093FF17
:100454004FF480710022204801F08DFF012001F04B
:10046400FFFC4FF400411C48012201F084FF0120ED
:1004740001F0F6FC18484FF4007101F076FF18B152
:100484001648174A68210AE013484FF4004101F066
:100494006CFF08B1254404E01048124A692101F0B8
:1004A40099FCAC4204D014F8010BFFF7AFFFF8E756
:1004B40009484FF48071012201F05DFF08240020F7
:1004C400FFF7A4FF013CFAD103484FF40071BDE8E3
:1004D400384001F04ABF00BF001802404DA4000894
:1004E40057A4000872A4000810B54FF480710446A4
:1004F4000022054801F03FFF642001F0ABFC2046D8
:10050400BDE81040FFF782BF0018024008B5074855
:10051400802102F0E0F90028F9D105484FF48071F8
:100524000122BDE8084001F026BF00BF005401408D
:100534000018024010B540F2F514FFF7ADFE50B1BB
:10054400013C04D1054800F095FB204610BD642011
:1005540001F080FCF1E7012010BD00BF8FA400086A
:1005640010B504460420FFF7BFFF2046FFF74EFFF7
:10057400BDE81040FFF7CABF10B504460120FFF7DD
:10058400B3FFE0B2FFF742FFC4F30720FFF73EFFDB
:10059400C4F30740FFF73AFF200EFFF737FFBDE82B
:1005A4001040FFF7B3BF000010B5FFF781FE1848F5
:1005B40047F6DE01FFF73AFFFFF718FF002401209A
:1005C400FFF7CEFFFFF7B6FF78B10320FFF78CFFEC
:1005D400FFF79CFF0F4800F063FB204600F06EFB22
:1005E4000D48BDE8104000F045BB094847F6DE0160
:1005F4000134FFF71BFF152CE1D1084800F03AFB4A
:100604000220FFF771FFBDE81040FFF77FBF00BF76
:10061400E6290008B2A40008CDA40008D7A4000865
:1006240008B55D224B1C504300EB5300074BB0FB55
:10063400F1F01A78C0B2824207D01870FFF79CFF1D
:100644000220BDE80840FFF78BBF08BD0000002072
:1006540008B5FFF791FF0320BDE80840FFF780BF0E
:1006640008B50220FFF740FFBDE80840FFF74EBF82
:1006740001F1C04102F0A4B970B543489AB000F04A
:1006840029FB424800F026FB414800F023FB414B84
:1006940093E8030001AC84E803003C48214601F0E0
:1006A4001BFE3A480421012201F065FE00250223C5
:1006B400029535488DF80830072103230C228DF864
:1006C4000930019501F05CFE80232F4801932146F7
:1006D40001F002FEEBB2022B04D02C48A9B20C228A
:1006E40001F04EFE0135102DF4D14FF6FB7327486F
:1006F4000193214601F0F0FD0226314601362448DB
:100704000C22B6B201F03CFE102EF6D14FF6FC736B
:1007140021461F48019301F0DFFD042100221B48FC
:100724001D4D01F028FE0A2001F094FB0122042152
:10073400164801F020FE1E2001F08CFB012001462A
:1007440001F0A4FF0FCD03AC0FC495E8070084E8C3
:100754000700402200210AA802F03BF902230B9370
:1007640008230C934FF4805312934FF400531393C4
:100774000AA803AB18930D9601F02CFD002001216B
:1007840001F09AFD1AB070BD00040240000C024052
:1007940000100240C4A20008CCA200080E4B98220C
:1007A4001A80A3F68A231B88DBB2512B07D10B4B8B
:1007B4001888C0B2B0F152025042504100E000200B
:1007C40030B1074B1888C0B2B0F1590358425841B0
:1007D400014BF0221A807047AA0A006022000060D0
:1007E4002400006002460B460420502100F0C9BDDD
:1007F40002460B460420502100F0D8BD032873B5EF
:100804000E4603D0042804D001F0FAFA14251C4C37
:1008140001E01C4C162528460DF10701FFF7E2FF05
:1008240008B900202AE02378AEB10BB1013323E0EC
:100834009DF8071021F0060141F0020128468DF8C9
:100844000710FFF7D5FF0028EBD001250320257002
:1008540001F006FB11E05AB2012A0CDC9DF80710E6
:10086400284601F0F9018DF80710FFF7C1FF0028B1
:10087400D7D0267001E0013B2370012002B070BD87
:10088400180000201900002073B5254800F022FA52
:1008940002254FF410730024012621480093694671
:1008A4008DF804508DF805508DF806608DF80740DA
:1008B40001F012FD1A480621042201F061FD042210
:1008C4000921174801F05CFD154800F01DFA154890
:1008D40000F000FA42F20C036946124800938DF8C6
:1008E40005508DF804608DF806408DF8074001F03E
:1008F400F3FC0C4800F008FA042000F0DFFC20466A
:100904006946FFF76FFF9DF80050B54205D10320FB
:100914002946FFF773FF284600E0204602B070BD69
:10092400000402400014024010B50446042000F004
:10093400C5FC21460420FFF761FF0420BDE81040F8
:1009440000F0EABC38B5074C0546204600F0C2F971
:1009540020462A46042101F00EFD2046BDE8384019
:1009640000F0D2B90014024038B5074C05462046C1
:1009740000F0B0F920462A46082101F0FCFC20468C
:10098400BDE8384000F0C0B90014024038B5094C45
:1009940004EB0014606800F09DF92189606801F09F
:1009A400E4FC0546606800F0AFF9D5F1010038BFFA
:1009B400002038BDE8A2000838B500242546E0B27E
:1009C400FFF7E4FFA04001340543042CEDB2F6D157
:1009D400284638BD73B54FF480400121154C01F011
:1009E4006DFE04F1400654F80A0C00F073F96846F1
:1009F40001F0B2FC02238DF80530237854F80A0C78
:100A04008DF80730694654F8063C009300258DF8AC
:100A14000450103401F060FC54F81A0C00F074F91E
:100A2400B442E0D14FF48040294601F047FE02B0C1
:100A340070BD00BFF6A2000808B5054B1B781BB9B2
:100A44000448322101F0D2F9BDE8084001F002BBAC
:100A54001A0000200AA50008114B1B7870B5054642
:100A64000C461BB90F48382101F0C0F9032906D9F7
:100A74008E083146FFF7E0FFB6003544A41B1CB9CD
:100A8400BDE8704001F0F4BA00231846EA5C013373
:100A9400A34242EA0020F9D1BDE8704001F0D4BA83
:100AA4001A0000200AA50008024B1A780AB901228C
:100AB4001A7070471A00002008B5084B1A781AB942
:100AC40007482B2101F092F901214FF4805059700D
:100AD40001F0D0FDBDE8084001F0B0BA1A000020D2
:100AE4000AA5000808B5074B1A781AB90648512117
:100AF40001F07CF9002159704FF48050BDE80840A2
:100B040001F0B8BD1A0000200AA5000870B50C4613
:100B14000546A608FFF7D0FF28463146FFF78CFFAD
:100B240004F0030105EB8600FFF796FF0446FFF788
:100B3400D9FF204670BD70B5A0B00D460646FFF73C
:100B4400BBFF2C467119802CC4EB0101684608D9FF
:100B54008022FFF78DFD68462021FFF76DFF803C62
:100B6400F0E72246FFF784FD21466846FFF774FF4D
:100B74000446FFF7B7FF204620B070BD2DE9F041D1
:100B8400284C86B0204600F0A5F84FF480200121BF
:100B940001F088FD20460A21072201F0F1FB06AE90
:100BA400072220460B2101F0EBFB002501274FF023
:100BB40002084FF48063204669468DF8065046F8D3
:100BC400183D8DF807708DF804808DF8058001F0CC
:100BD40083FB4FF400632046694600938DF804803C
:100BE40001F07AFBADF80C50ADF80E50ADF8105092
:100BF400ADF814500C4D4FF46133029328460C2386
:100C040002A9ADF8123001F06DFE2846394601F014
:100C1400C1FE204600F078F8044B1F7006B0BDE812
:100C2400F08100BF00080240004800401C00002082
:100C3400084B1B7810B504465BB10748402101F00E
:100C4400B9FE0028F9D021460348BDE8104001F060
:100C5400ADBE10BD1C0000200048004008B5FFF7E1
:100C6400E7FF0348402101F0A5FE0028F9D008BDA4
:100C740000480040094B1B7810B573B1441E14F8AA
:100C8400010F10B1FFF7EAFFF9E70D20FFF7E6FFC8
:100C94000A20BDE81040FFF7E1BF10BD1C00002092
:100CA400054B1B7810B533B1441E14F8010F10B175
:100CB400FFF7D4FFF9E710BD1C0000201FB50C227C
:100CC40001A901F0E3F801A8FFF7EAFF05B05DF818
:100CD40004FB000000F13F4000F57E00C0F38720D4
:100CE40008280BD8064A135C591C115433B9054B18
:100CF40001211A6B01FA00F010431863704700BF1A
:100D04001D0000200038024000F13F4000F57E0045
:100D1400C0F3872008280ED8074A135C5BB1013B57
:100D2400DBB213543BB9054B01211A6B01FA00F0F5
:100D340022EA0000186370471D00002000380240BA
:100D440002460068838823F4E0631B041B0C838041
:100D540003889BB243F40073038008230020517579
:100D640013751076704737B504460D46FFF7B2FF8A
:100D74000023204669468DF804308DF805308DF83F
:100D84000730009501F0A8FA2046FFF7BDFF03B035
:100D940030BD00000A4B10B5342400FB0434236B2F
:100DA4006BB10A2001F05CF86068A168FFF7DBFF13
:100DB40020696169FFF7D7FF236B0120984710BDB5
:100DC40030A30008F7B5044616460D461F46FFF744
:100DD40081FF022001238DF804008DF805008DF8B1
:100DE40006302046002369468DF80730009501F04F
:100DF40073FA204631463A4601F0C2FA2046FFF71C
:100E040083FF03B0F0BD0000037D082B10B504463A
:100E140007D10268938823F4C0631B041B0C9380DE
:100E240083E0434A006802EB8303996E01F07CFB84
:100E340000287AD0237D072B71D8DFE803F0040B58
:100E44001A22323A596D227A236802F0FE021A827B
:100E5400012305E02368A27A1A82627A12B102237E
:100E6400237562E09A8892B242F480629A800623E3
:100E7400F6E723681A8892B242F480721A80032338
:100E8400EEE7237A226843F001031382E37A012B0D
:100E940005D1138823F480631B041B0C13800423E3
:100EA400DEE723689A8892B242F480629A8005232E
:100EB400D6E72368227B198A23699954237BE27A33
:100EC4000133DBB2591C9142237307D12268138882
:100ED40023F480631B041B0C138026E0934224D16B
:100EE4002268938823F480631B041B0C938013E013
:100EF400217B236922685B5C1382237BE17A0133C3
:100F0400DBB29942237310D1938823F480631B04CA
:100F14001B0C93800723A3E72046012101E0204610
:100F24000021BDE81040FFF70BBF002010BD00BF3B
:100F340030A300087FB51D4E1C2303FB0063054648
:100F44001B790BB9FFF726FF194B342405FB043436
:100F54006068A168A289A37BFFF734FF228BA37E7C
:100F640020696169FFF72EFFE069012101F09AFB16
:100F7400684601F0B3FA0F4A236A009393424FF490
:100F84008063ADF80A304FF01C0303FB05F588BFFE
:100F9400626A705988BFADF80620694601F030FADC
:100FA4007059012101F0A8FA04B070BD2800002096
:100FB40030A30008A086010073B504460E46002540
:100FC400FFF788FE0123204669468DF80430009619
:100FD4008DF805508DF8075001F07EF92046B1B226
:100FE4002A4601F0C8F92046FFF78EFE02B070BD14
:100FF400094B10B5342400FB0434236B5BB100208F
:1010040098476068A168FFF7D7FF20696169BDE868
:101014001040FFF7D1BF10BD30A300081C23104AB5
:10102400434370B50546D058D61801F0BBF90D4BB3
:10103400342405FB04340021E06901F033FB3379E7
:1010440023B92846BDE87040FFF7D2BF6068A168A5
:10105400FFF789FE20696169BDE87040FFF783BE30
:101064002800002030A300082DE9F74F4A4E9B4684
:1010740096F838300F469246B0461BB9474840F2BE
:10108400951104E0042804D944484FF4CB7100F0CE
:10109400ADFE434B18444FF01C0990F8885009FBEF
:1010A40005F906EB090423790BB9002071E056F821
:1010B4000900038B980713D49DF830306772E372EC
:1010C40000270D9B84F808A084F80AB027732775BD
:1010D4002361E78256F80900012101F019FA20E0A2
:1010E4002846FFF79BFF2846FFF724FF56F8092000
:1010F4002C48138B9907DFD50138FAD1D5E7227E26
:1011040022B1019A511E0191002AF8D100222276BF
:10111400019A02B3227D082A13D1677D237D082B0F
:1011240026D023681A8892B242F480721A809A8870
:1011340092B242F440729A8001222276194A0192B4
:10114400DFE7E28AB2F57A7F05D20132E28201203A
:1011540000F086FEE2E79A8822F4E0621204120CA0
:101164009A801A8892B242F400721A800823237576
:101174001C236B4358F803100A4B0A8B920707D5BC
:10118400013BFAD12846FFF749FF2846FFF7D2FE74
:10119400384603B0BDE8F08F2800002010A50008F1
:1011A40030A3000880841E00017D0368082906D14D
:1011B4009A8822F480721204120C9A8036E09A8A79
:1011C400120505D59A8A22F400621204120C9A823E
:1011D4009A8AD20505D59A8A22F480721204120CD6
:1011E4009A829A8A52051ED59A8A22F4806212043F
:1011F400120C04299A820AD1032202759A8822F4D5
:10120400E0621204120C9A80002303760EE0012996
:1012140009D19A8822F4E06212040021120C0175AB
:101224009A80017602E00021FFF78ABD0020704712
:101234002DE9F3411E4D1F4C0026DFF87C802B68FE
:1012440044F80C3C1C2202FB0682002304F8083CF0
:1012540013760822227295F828208DF8042001279D
:101264000C2201A8237004F8013C63608DF805206A
:101274008DF806308DF8077000F0AAFE95F8293035
:101284008DF8043001A800F0A3FE3E4454F80C0C81
:1012940001F088F8022E05F1340504F11C04CCD1C8
:1012A400384688F83870FFF7A3FE02B0BDE8F08135
:1012B40030A300083400002028000020124A13B58F
:1012C40092F83810034621B9104840F2331100F067
:1012D4008DFD042807D9052200920C480C4A40F2DF
:1012E400351100F077FD0B490B441C2493F888005A
:1012F40004FB002423790BB9FFF71CFE2379013387
:10130400237102B010BD00BF2800002010A5000802
:1013140016A5000830A3000808B5104B93F8382030
:101324001AB90F4840F2451104E0042804D90C48C6
:101334004FF4A37100F05AFD0A4A10441C2290F89D
:10134400880002FB003213793BB1013BDBB213711D
:101354001BB9BDE80840FFF761BE08BD28000020A6
:1013640010A5000830A3000873B5069C00930E4630
:1013740015460194012132462B46FFF775FE02B053
:1013840070BD07B500930123FFF7EEFF03B05DF8CE
:1013940004FB73B5069C00930E4615460194002188
:1013A40032462B46FFF760FE02B070BD1FB504AC99
:1013B40004F8013D01230094FFF7EBFF04B010BDD6
:1013C4000148FFF721BD00BF280000200148FFF7B6
:1013D400EBBE00BF280000200148FFF715BD00BF89
:1013E400440000200148FFF7DFBE00BF4400002096
:1013F400FFF79ABA30B585B004460D46684601F049
:10140400F5F80DB9029805E0012D01D1039801E02A
:1014140000F0F6FCB4EB500F0ED8B0FBF4F000F083
:1014240029FD002802DC0748272103E0082804DD01
:101434000448282100F0DAFC01200138C00080B201
:1014440005B030BD42A50008B0F1006F10B50446E8
:101454000BD20D48FFF724FC2046FFF72FFC0B4866
:10146400FFF71EFC4FF0FF3010BD094A002352F86D
:10147400041FA14202D851688C4202D301330B2BC2
:10148400F5D1184610BD00BFBAA5000848A500084C
:10149400BCA300082DE9F04705462D480F46164623
:1014A4009946FFF7FDFB2846FFF708FC2948FFF79C
:1014B400F7FB3846FFF702FC2748FFF7F1FB002F44
:1014C4003FD02846FFF7C0FF0446781E2844FFF7A4
:1014D400BBFF002C074637DB002835DBC4EB0008D4
:1014E40008F101081EB1002041464A46B04700F009
:1014F400D1FD1A4B012503EB440ABC421FDCF32047
:1015040000F0DEFD0AEB4503002133F8020C00F085
:101514000FFE09280BD01248FFF7C2FB2046FFF745
:10152400CDFB1048FFF7A6FB00F0C2FD0CE01EB196
:10153400284641464A46B04701340135DDE700F00C
:10154400B7FD0120BDE8F0870020BDE8F08700BFAB
:1015540063A5000877A500087AA50008F0A3000891
:101564007EA50008ADAA00082DE9F84606461F48E6
:1015740015468A461F46FFF793FB3046FFF79EFB4E
:101584001B48FFF78DFB2846FFF798FB1948FFF728
:1015940087FB00F07FFDF32000F092FD4FEAD519A0
:1015A4000024AC421DD0A0191AF8041000F0F6FD76
:1015B40009280DD01048FFF773FB3046FFF77EFB78
:1015C4000E48FFF757FB00F073FD0020BDE8F886D6
:1015D4002FB1630603D1E0094946089AB84701349C
:1015E400DFE700F065FD0120BDE8F88696A5000858
:1015F40077A500087AA50008AAA50008ADAA0008E6
:1016040008B545F2555000F09BFF042000F09EFF02
:1016140040F6FF7000F0A0FF002000F091FF4FF4AF
:1016240080500121BDE8084000F028BD08B57D20A8
:1016340001F08CF8003018BF012008BD4900FEF706
:10164400EFBF4B0803EB5000FEF7EABF70B586B05E
:101654000446FFF729FA01210020FEF7E1FF0420E8
:1016640000F01EFB03A8214600F066FB03A800F06F
:1016740072FB08B928480BE02848FFF7FBFA04F18D
:101684000C000499FFF757FA059B984204D02448AC
:10169400FFF7F0FA01203DE0049D2248FFF7EAFA43
:1016A4002946214A21480023FFF7F4FE049E2048DE
:1016B400FFF7E0FA002504F1C0411E4B00953246C5
:1016C4000C311A48FFF750FF1B48FFF7E9FA04985A
:1016D400FFF7F4FA1948FFF7E3FA04991348FFF700
:1016E40015FA04461648FFF7DBFA0598FFF7E6FA01
:1016F4001448FFF7D5FA2046FFF7E0FA1248FFF73F
:10170400B9FA059B9C4204D01048FFF7B3FA0220B3
:1017140000E0284606B070BDC3A50008E1A5000896
:10172400FEA5000821A600084116000800000108D3
:1017340034A600084716000847A6000855A6000866
:101744005EA6000871A60008ADAA000877A60008E6
:1017540008B5022000F0BCFAD8B3042000F0B8FAAF
:1017640070B11C48FFF786FA042000F0A5FA0220A5
:1017740000F0A2FA4FF40040BDE8084000F09CBA23
:101784001548FFF777FA082000F096FA102000F0C9
:1017940093FA202000F090FA402000F08DFA4FF4E4
:1017A4008010FFF753FF022807D1082000F078FAD1
:1017B400102000F075FA00F045FB042000F07CFADC
:1017C400022000F079FA4FF40040BDE8084000F030
:1017D40067BA08BDC2A60008F8A6000810B52548D7
:1017E400FFF748FA4FF40010FFF730FF10B102285A
:1017F4003AD809E0202000F05FFA402000F05CFABB
:10180400802000F04DFA2FE0082000F049FA102063
:1018140000F046FA202000F05BFA20B91648FFF7E2
:1018240029FA202007E0402000F052FA58B9134862
:10183400FFF720FA402000F033FA4FF4007000F074
:101844002FFA00F0FFFA0E48FFF714FA082000F010
:1018540033FA102000F030FA202000F02DFA402056
:1018640000F02AFA002400E00124042000F024FA05
:10187400204610BD13A700082DA7000866A700087E
:101884009FA7000808B50248FFF7F4F900BEFEE779
:10189400D9A700081EF0040F0CBFEFF30880EFF384
:1018A4000980FFF7EFBF70471FB504461048FFF7E4
:1018B400E1F901A90C22204600F0E8FA01A8FFF79B
:1018C400D9F92046FEF7C4FEFFF776F8094B20F05D
:1018D400040018701C46FFF76FF8237800F0FB0033
:1018E400834201D000F0AEFA0A2000F0B9FAF2E720
:1018F400CFA70008640000207FB54FF0805001217D
:1019040000F0D0FE022000F033FE012807D10220AF
:1019140000F038FE9248FFF7ADF900F098FA002184
:101924004FF0805000F0BEFEFFF728F98D48FFF716
:10193400A1F98D48FFF79EF98C48FFF79BF98C4875
:10194400FFF798F98B48FFF795F98B48FFF792F961
:101954008A48FFF78FF98A48FFF78CF98948FFF71F
:1019640089F98948FFF786F9FFF762FCFEF78CFFD7
:1019740000F0B8F900F0CEF900210C2201A801F022
:1019840028F800F0C3F901A90C2200F07FFA01A89D
:10199400FFF770F97348FFF76DF97248FFF76AF9BA
:1019A4004FF4804000F094F990B17848FFF762F961
:1019B4004FF4804000F080F9082000F07DF91020F9
:1019C40000F07AF9202000F077F9402000F074F953
:1019D400FEF752FEFEF7FEFFFEF7E6FDFEF710FCF3
:1019E40008B16B4803E0FEF74FFC10B16948FFF7FC
:1019F4005BFF00F08AF9802000F06AF918B18020BA
:101A040000F05AF954E04FF4003000F061F9044654
:101A140020B14FF4003000F04FF92CE10120FEF723
:101A2400B5FFB0B12046FEF7B1FF90B15A48FFF7B9
:101A340021F941F288340120FEF7A8FF98B1002073
:101A4400FEF7A4FF78B1012000F00AFA013CF2D1BC
:101A540011E1524B0CCB013301D0013203D1504878
:101A6400FFF708F907E1FFF7E1FD18B3FFF7DEFD23
:101A740010B14C48FFF7FEF84FF4007000F028F95D
:101A840010B14948FFF7F6F84FF4007000F014F96C
:101A9400102000F01DF9D0B14448FFF7EBF80820FE
:101AA40000F00AF9102000F007F9FFF797FEF8B9E3
:101AB4003F489CE74FF4007000F00AF90028D5D1A4
:101AC400082000F0F9F8102000F0F6F80EE00820E5
:101AD40000F0FEF820B13748FFF7CCF8102003E0FF
:101AE4003548FFF7C7F8082000F0DAF8FFF730FEB2
:101AF4004FF4005000F0ECF804464FF4805000F02E
:101B0400E7F8400040EA84044FF4006000F0E0F895
:101B1400E4B22043C3B2072B0DD14FF4006000F0B0
:101B2400CBF84FF4805000F0C7F84FF4005000F0A9
:101B3400C3F822485BE70133DBB2023B4FF4006099
:101B4400052B41D8DFE803F03C4003403C4000F063
:101B5400B3F84FF4805000F0AFF84FF4005033E086
:101B6400E4A70008ADAA0008F1A7000808A8000827
:101B740021A800084FA800087EA80008AEA8000805
:101B8400DFA8000811A9000843A9000874A90008E7
:101B9400014550FE024550FEA1A9000800000108BD
:101BA400D3A90008E6A90008FEA900081EAA000897
:101BB400034550FE46AA00086CAA0008044550FEDE
:101BC40000F07AF84FF4805000F06AF8FFF718FD3F
:101BD4002B4B2C485D681E68FFF762F82846FFF718
:101BE4006DF82948FFF75CF800239A0002F160427F
:101BF40002F5614201334FF0FF31082BC2F8801027
:101C0400C2F88011F1D1214B4FF4801200241A63E1
:101C14005C639C631C645C6400F0C4FC1C4801218C
:101C240000F058FD21461A4800F054FDF12001212E
:101C340000F05CFD2146F12000F058FD0120014632
:101C440000F060FD2146012000F05CFD11480121F7
:101C540000F064FD21460F4800F060FD0E480121AC
:101C640000F068FD0C48214600F064FD63B64FF0B7
:101C7400FF3EB54628470948FEF7FCFF15E700BFBD
:101C84000000010892AA0008A6AA00080038024031
:101C94000010E022FFC9FEF6337F7704AEAA0008E5
:101CA40010B50446002000F075FD40EA0401002050
:101CB400BDE8104000F05EBD10B50446002000F001
:101CC40069FD20EA04010020BDE8104000F052BD87
:101CD40010B50446002000F05DFD20420CBF00203A
:101CE400012010BD08B54FF08050012100F0DAFC4E
:101CF400012000F037FC0120FFF7EAFF20B90121A1
:101D0400BDE8084000F036BD08BD7047022000F071
:101D140041BD000008B5FFF7F9FF054B196888427B
:101D240004D00220BDE8084000F024BD08BD00BF77
:101D34008401000800BEFDE71FB504460C2201A87B
:101D4400FEF796FC01AB03CB20601868A060204628
:101D5400616004B010BD0068B0F10C0358425841F2
:101D64007047000080B50546174610480E461C46CD
:101D7400FEF796FF3846FEF793FF0D48FEF790FFF7
:101D84002846FEF78DFF0B48FEF78AFF3046FEF724
:101D940095FF2CB10848FEF783FF2046FEF780FF2D
:101DA4000648FEF767FFFFF7C5FF00BFCDAA00088E
:101DB400D6AA0008D9AA0008D7AA0008ADAA000824
:101DC4001FB506AA52F8044B039200921A46234602
:101DD400FFF7C8FF0CB41FB506AA52F8043B0392E0
:101DE4000092014AFFF7BEFFDBAA000807B50023F3
:101DF40000937246014BFFF7E3FF00BFE2AA00081D
:101E0400744608B50548FEF74BFF2046FEF756FF1B
:101E14000348FEF72FFFFFF78DFF00BFEAAA000873
:101E2400ADAA0008BFF34F8F044A054BD16801F4F3
:101E3400E0610B43D360BFF34F8FFEE700ED00E09A
:101E44000400FA0508B5FEF70BFCFFF7EBFF08B535
:101E5400FFF7E8FF1623584301387FF4FDAF7047BE
:101E640010B504462CB14FF47A70FFF7F3FF013C30
:101E7400F8E710BD10B5B0FA80F400F029F8012895
:101E84000CBFC4F11F00C4F1200010BD0A2A30B5F4
:101E94001DDD0C46302304F8023B78234B700023ED
:101EA4009D00C5F11C050F22AA400240EA40092A00
:101EB40001D8303202E00F2A02D85732D2B200E001
:101EC4002022E2540133082BEAD100238B7230BD67
:101ED40000F0AA33A0EB530000F0CC3300F0333011
:101EE40000EB930000EB101000F00F3000EB10201B
:101EF40000EB104000F03F00704700002D4BD3F87A
:101F0400882042F47002C3F888202B4B1A68002101
:101F140042F001021A6099601A6822F0847222F475
:101F240080321A60254A5A601A6822F480221A60A4
:101F3400D9601A6C42F080521A64214A116841F443
:101F4400404111609A689A609A689A609A6842F46B
:101F540080529A601B4A5A601A6842F080721A6072
:101F64001968154A8901FBD5174B40F203611960C2
:101F7400936823F003039360936843F00203936030
:101F84000D4B9A6802F00C02082AF9D19A6822F4DF
:101F940000029A600D4AC3F884201A6842F08062F5
:101FA4001A60054B1B681B01FBD5024B4FF0006206
:101FB4009A60704700ED00E00038024010300024C1
:101FC400007000401040010F003C024000300050FF
:101FD400C278037810B50AB3164A4478D268D2435B
:101FE400C2F30222C2F10401C9B204FA01F10F24BE
:101FF40044FA02F28478C9B222400A4303F16043EE
:1020040003F561431201D2B283F80023037801225D
:10201400590903F01F0302FA03F306E059090122E8
:1020240003F01F0302FA03F32031034A42F821307C
:1020340010BD00BF00ED00E000E100E0014B012213
:102044009A60704700300240014B1860186870476E
:102054000030024000EB81018842044B03D050F869
:10206400042B1A60F8E71868704700BF003002407C
:10207400014B1868704700BF00300240044B9A6857
:1020840009B1104301E022EA00009860704700BFE4
:10209400002004E0044B1A69002A04DA034A5A6057
:1020A40002F188325A607047003C024023016745C0
:1020B400024B1A6942F000421A617047003C024028
:1020C400014BD860704700BF003C02400E4BDA68F9
:1020D400D00310D4DA68D1060FD4DA68D2050ED44E
:1020E400DA6812F0EF0F0CD1DB6813F0020F0CBFAB
:1020F40009200820704701207047062070470220FD
:1021040070470720704700BF003C024007B5092311
:102114008DF80730FFF7DAFF8DF807009DF80730D8
:10212400012BF7D09DF8070003B05DF804FB000015
:1021340070B5064641B1012908D0022914BF4FF4F5
:1021440040754FF4007503E00D4601E04FF48075CF
:10215400FFF7DCFF09281ED10F4C236923F44073D9
:10216400236121690D432561236923F0F803236169
:10217400236943F002031E432661236943F4803339
:102184002361FFF7C3FF236923F00203236123695B
:1021940023F0F803236170BD003C024070B505468E
:1021A4000E46FFF7B3FF092811D1094C236923F424
:1021B4004073236123692361236943F0010323618D
:1021C4002E70FFF7A3FF236923F00103236170BD81
:1021D400003C024070B543688568846A0168426BBC
:1021E40045EA0306C3681E4303691E4343691E434D
:1021F40083691E43C3691E43036A1E43436A334310
:1022040043EA0406C36A1E43036B334343EA0206EC
:102214008B0003F12043082D1E6003D11D6845F097
:1022240040051D60B2F5801F836B12D189B14FF058
:1022340020425668156845F480151560156845F404
:10224400807515601D6926F47006013D46EA055542
:1022540055601A689D6915435A6845EA02159A68DB
:1022640045EA0225DA6845EA02451A695B6945EAE6
:10227400025242EA03624E1C4FF02043B4F5804FF1
:1022840043F8262010D1C36B1A68986910435A6822
:1022940040EA02109A6840EA02201A695B6940EA3F
:1022A400025242EA036201E06FF07042014B43F8CC
:1022B400212070BD040100A0800000F1204019B16C
:1022C400036843F0010302E00268024B1340036019
:1022D400704700BFFEFF0F002DE9F0410F68002397
:1022E40001229A4002EA0705954230D15A0003249C
:1022F40006689440E443264006600E79D0F800C096
:1023040006FA02F8013E48EA0C0C012EC0F800C09F
:1023140014D8866891F805C02640866086680CFA51
:1023240002FC4CEA06068660466826EA0505456016
:102334008D7946689D40ADB235434560C5682C40F3
:10234400C460CD79C46805FA02F22243C260013345
:10235400102BC5D1BDE8F0814FF6FF730360002355
:10236400037143718371C3717047036919420CBFD0
:102374000020012070470AB10183704741837047F0
:1023840001F00703C90800EB810010B59B00046A43
:102394000F21994024EA01010162016A9A40114324
:1023A400016210BD08B5134B984207D14FF40010D9
:1023B400012100F0B3F94FF4001014E00E4B9842E1
:1023C40007D14FF48000012100F0A8F94FF48000F8
:1023D40009E00A4B98420BD14FF40000012100F0B0
:1023E4009DF94FF400000021BDE8084000F096B9C3
:1023F40008BD00BF0054004000580040005C00408D
:10240400F0B585B004468688324F68460D4600F024
:10241400EDF802982A68304B26F03F063604B0FBEC
:10242400F7F7360C1FFA87FC4CEA0606A6802188CB
:1024340021F001010904090C9A4221800DD85300AE
:10244400B0FBF3F39BB20CF1010C032B1FFA8CFCD1
:1024540098BF0423A4F820C022E0E9884BF6FF7358
:10246400994205D102EB4202B0FBF2F39BB206E0C3
:1024740019235343B0FBF3F39BB243F48043C3F3F8
:102484000B020AB943F001034FF4967257434FF419
:102494007A7297FBF2F70137BFB243F40043278403
:1024A400A38323886989AA889BB243F0010323800C
:1024B400238823F4816323F002031B040A431B0CC7
:1024C40013439BB223802A89AB8913439BB2238194
:1024D40005B0F0BD40420F00A086010041F28833F0
:1024E4000360002383804BF6FF72038143814FF422
:1024F4008043C28083817047038819B19BB243F043
:10250400010303E023F001031B041B0C0380704749
:10251400038819B19BB243F4806303E023F480631E
:102524001B041B0C03807047828A008B92B221F03B
:102534007F4342EA00401840431A584258417047CA
:10254400014B1860704700BF00300040014B5860D9
:10255400704700BF00300040014B9860704700BFD7
:1025640000300040014B1860704700BF20000E424D
:10257400034B5B6818420CBF00200120704700BF6A
:1025840000700040B0F5402F054B04D01A6842EAB1
:102594008000186070475A6842F440225A607047BD
:1025A400007000400E4B1A6842F001021A600022CB
:1025B4009A60196821F0A85121F410211960094981
:1025C40059600949C3F8841001F18061C3F8881087
:1025D400196821F480211960DA60C3F88C207047EF
:1025E4000038024010300024003000201D4B9A684F
:1025F40002F00C02042A10B503D0082A03D01A4BA7
:1026040018E01A4B16E059685A6811F4800F59689B
:1026140014BF164B144B02F03F02B3FBF2F3114A02
:102624005268C2F30142C1F3881101324B43520094
:10263400B3FBF2F30B4903608B680D4AC3F3031336
:10264400D45C0368E34043608C68C4F38224145D63
:1026540023FA04F484608968C1F34231525CD340A4
:10266400C36010BD003802400024F40040787D01AE
:1026740001000020044B1A6B09B1104301E022EA67
:1026840000001863704700BF00380240044B9A6B87
:1026940009B1104301E022EA00009863704700BFCB
:1026A40000380240044B1A6C09B1104301E022EADD
:1026B40000001864704700BF00380240044B5A6C95
:1026C40009B1104301E022EA00005864704700BFDA
:1026D40000380240044B1A6909B1104301E022EAB0
:1026E40000001861704700BF00380240044B5A696B
:1026F40009B1104301E022EA00005861704700BFAD
:1027040000380240044B9A6909B1104301E022EAFF
:1027140000009861704700BF00380240044B1A6AF9
:1027240009B1104301E022EA00001862704700BFBB
:1027340000380240044B5A6A09B1104301E022EA0E
:1027440000005862704700BF003802404309012B63
:10275400074A01D1136803E0022B0CBF136F536FB8
:1027640000F01F0023FA00F000F00100704700BFE2
:102774000038024082B000230193054B0193019B72
:1027840003EB80000190019B196002B0704700BF09
:102794005028004082B000230193054B0193019B14
:1027A40003EB80000190019B186802B0704700BFE2
:1027B4005028004008B5254B984207D14FF480506B
:1027C4000121FFF7B7FF4FF4805039E0204B9842C6
:1027D40007D14FF480400121FFF7A0FF4FF4804060
:1027E40009E01C4B98420BD14FF400400121FFF744
:1027F40095FF4FF400400021BDE80840FFF78EBF6D
:10280400154B984207D14FF400500121FFF792FF76
:102814004FF4005014E0114B984207D14FF480104C
:102824000121FFF787FF4FF4801009E00C4B984219
:102834000BD14FF400100121FFF77CFF4FF400107F
:102844000021BDE80840FFF775BF08BD0030014016
:1028540000380040003C004000340140005001407A
:10286400005401400B88028810B54C8823438C889F
:102874002343CC8823430C8923434C8923438C89E9
:102884002343CC8902F44152234313439BB2038074
:10289400838B23F400631B041B0C83830B8A038246
:1028A40010BD0023038043808380C3800381438160
:1028B4008381C381072303827047038819B19BB2C4
:1028C40043F0400303E023F040031B041B0C03808C
:1028D400704781817047038919420CBF0020012091
:1028E40070470000038ACA889BB230B523F4405372
:1028F4000D46134303820989AB8882890B43698996
:1029040092B20B4322F4B05222F00C029BB2134356
:102914008381838AAA899BB223F44073134385B0CD
:10292400838204466846FFF761FE194B9C4203D03C
:1029340003F580639C4201D1039B00E0029BA289C2
:1029440012B2002A2A684FF01901B4BF5200920053
:102954005943B1FBF2F16423B1FBF3F21201100904
:1029640003FB1011A08900B2002806DAC900323135
:10297400B1FBF3F303F0070305E009013231B1FBC6
:10298400F3F303F00F031A4392B2228105B030BD72
:1029940000100140838919B19BB243F4005303E052
:1029A40023F400531B041B0C83817047C1F30801FB
:1029B40081807047038819420CBF002001207047B2
:1029C40010B50023934203D0CC5CC4540133F9E71F
:1029D40010BD02440346934202D003F8011BFAE7F8
:1029E4007047FF004C617474696365006943456313
:1029F4007562653220323031342E31322E32373026
:102A0400353200506172743A206943453430554C74
:102A1400314B2D434D33364100446174653A204DAA
:102A2400617920313120323031352031393A313930
:102A34003A35350000FF7EAA997E510001059200C7
:102A44002062016F82000072007011000101000019
:102A540000000000000000000010000080000000E2
:102A640000000200000000008000000000000000E0
:102A74000000010000080000000000000000000049
:102A84000000000000000020000000000000000022
:102A940000003400020000000000000000000000FC
:102AA4000200000000000000000000000000000020
:102AB40000000000000000004000000000000100D1
:102AC40000000000400000000000000000000000C2
:102AD40000040000000000000000000000000000EE
:102AE400000000000000000580000000000000005D
:102AF40000000003000000000000000000000000CF
:102B040000000000000000000000000000000000C1
:102B1400000000008000000000000200000004002B
:102B24008000000200000000000000000008000017
:102B34000000000000000000000000000000000091
:102B44000000000000010000000000000C00000371
:102B5400000300000000000000000000000000105E
:102B64000000000000000000000000000000000061
:102B74000000000000000000000000000000000051
:102B84000000000000000000000000000000000041
:102B94000000000000000000000000000000000031
:102BA4000000000000000000000000000000000021
:102BB40000000000000000000058000000000000B9
:102BC40000000000000000000000000000000200FF
:102BD400000000000E0800000000020000000000D9
:102BE40000000000000000002020000000000000A1
:102BF40000000000000000000000000000000000D1
:102C040000000000000000000000000000000000C0
:102C140000000000000000000000000000000000B0
:102C2400000000000000000000000001000000009F
:102C3400000003000000000100000000000000008C
:102C44000000000000100000000000000000000070
:102C540000000000000080000003000000000000ED
:102C640003008000000300000000000000000008D2
:102C74000000002C00000000000000000000000024
:102C84000000000000000000000000000000180028
:102C940000000002000000000000000000000078B6
:102CA4000010000000000000000000000000000010
:102CB4000000400000000000000000000000400090
:102CC40000010000000000000000000400000000FB
:102CD40000000000000000000000000000000000F0
:102CE40000000100000000000000000000000100DE
:102CF40000000000000000000000000810000000B8
:102D0400000000000000000000000000000080053A
:102D140080000000000000000000800000000000AF
:102D24000000000000000008003000000000000067
:102D340000000C3020008000000000000014280077
:102D440000000000781800000020735A08000000FA
:102D540000030002000000001DDF0C000000000062
:102D64000C30000000000000000000366C00000081
:102D7400004008FB0000001C025C00008000000012
:102D84002C000000000000E0F100000000000C3006
:102D940020000000000000000000000000002800E7
:102DA4003808000000000058080000000007000276
:102DB40000A000001C8F0C00000000000C3000007C
:102DC400000000000000003400000000200008079C
:102DD4000000003C3F490000010000003C0000806E
:102DE40000000000F110000000000C302000000082
:102DF40000000000020000000000100000000000BD
:102E04002004017C00020000008300020000000690
:102E1400168F0E00000000000C30000000000000BF
:102E240000000000000000001000700B0000003CD7
:102E34003D50020000000100B80000000000000046
:102E4400F000000000000C30200000000000000032
:102E5400001400000000000000E80000000006DE8E
:102E64003C0200000003840200000266548F0C0040
:102E7400000000000C300000000000000000000210
:102E84002C00000000000001000000243BF038008A
:102E9400000500003C00000003C20200F100000035
:102EA40000000C30200000000000000000000000C2
:102EB4000000000001E00000002002FE50000000BD
:102EC400D9A38002000000001E8F0E100000000035
:102ED4000C300000000000000000000000000000B2
:102EE400001070E30100003C27E000000000B00087
:102EF4003000000000000000F000000000000C3072
:102F0400200000000000000000000000000000009D
:102F1400800000000000280000000000D9B38002F7
:102F2400000041C0168F0E00000000000C300000AD
:102F3400000000000000000000000000000030E776
:102F44002000000000000000000050A080000000ED
:102F540000200000F010000000000C3020000000F1
:102F64000000000000000048E000000070000400C1
:102F74000000000000000000101380020000026046
:102F8400168F0E00000000000C300000100000003E
:102F9400000000000258F000000038072C00000078
:102FA40000000000000008A0B8000000004002007B
:102FB400F000000000000C302000000000000000C1
:102FC40000000378A50230000000000000206C001F
:102FD40000000000001023C000C003C01685560086
:102FE400000000000C3000000000000000000000A1
:102FF400034052201000700B2800000C3800000021
:10300400000000C003C00000A060020550000000E2
:1030140000000C3020000000000000000000014C03
:10302400F0C000C000000000003C284E0F800000EB
:1030340000C38002000000029C05A80000000000FC
:103044000C3000000000000000000000001F0F20F2
:10305400014000900000000400080F000000000080
:1030640000000800004294DA5000000000000C3018
:10307400200000000000000A000001C8F0C0004069
:103084000400000A000005CC0F8000000007800245
:10309400000001429C80F800000000000C30000099
:1030A400000000000008000000000F2000400000A5
:1030B400000800142C1F0F0000000000B8000000DE
:1030C400094281F0F000000000000C3020000000F4
:1030D4000000000000206548F0C01001000000005E
:1030E400001C055E0F8000003005800200000146D0
:1030F4005480F800000000000C30000000000000C4
:103104000000000420200F20100000000000000C2C
:10311400202A0F0000000000380000000002030015
:10312400F000000000000C3020000000000000004F
:1031340000060148F0C0000000000000000601DCA9
:103144000F80000000070402000000601580F800F2
:10315400000000000C30000000000000000000002F
:1031640000200F2000000000000000003C300F0091
:1031740000009000A800000000000200F000000021
:1031840000000C302000000000000000000031E8C6
:10319400F0C0000000000010002001C15A800000AF
:1031A40000058402000000001F80F80000000000F9
:1031B4000C300000000000000000000000000F20A0
:1031C400000000000000001C3CECA5000000000012
:1031D400380000000002C080F000000000000C3045
:1031E400200000000000000010000168F0D0004042
:1031F40000000000102001780F8000007815040200
:10320400000101401790F800000000000C3000009D
:10321400000000000000000000000F00000000009B
:10322400000000043C100F00000000802800000093
:10323400002001C0F000000000000C30200000005D
:1032440000000000000631E85550000000000000B6
:10325400000661EA0F80000079E17C3E0000026014
:103264001F80F800000000000C3000000000000087
:103274000000000000205500002800000000003C71
:1032840028200F0000005900F43C00010042C30054
:10329400F000000000000C30200000000000000CD2
:1032A4000020040000000000000000000000066888
:1032B4000840800079E023C000000200408F020033
:1032C400000000000C3000000000000000081004A2
:1032D40020000000000000000000003C234905001D
:1032E400400008A003C000000042000F00000000DE
:1032F40000000C30201020007A3C20000000001C4C
:10330400F040000000180000000000000000000071
:103314000003F954000000662FC5F000000000000F
:103324000C30000000000803C09000002C10F001D5
:10333400004000F70000000000000000000000B0A2
:10334400C154000000003D05F000000000000C30F6
:1033540020000000323C200A001E0200A540280084
:103364000008000A0000000000002800000379FCA7
:1033740008A001E681AF0400000000000C3000004A
:1033840000000003C048000000405A012000F0077C
:1033940000080000000000002000F003C2FC0280CE
:1033A4000342C00F0000000000000C3020000000A9
:1033B4003A3C204C0000281CF0401010001000047F
:1033C40000003800000010008083FE0420C041404B
:1033D40000000000000000000C30000000000003AA
:1033E400C00000344000F001102000CF000C0800A1
:1033F4000000000030001189FD0000C003600000DF
:103404000000000000000C3020000000323C2000CE
:1034140000140008F040000000000000000000005C
:103424000000000000017A002008004781AF04007A
:10343400000000000C30000000000803C00000364B
:103444000010F00000000007000000000000000071
:1034540000000007EA0000041424010F000000002B
:1034640000000C3020000800723C20000000000A1C
:10347400F0400000008000100000001EF04000003A
:1034840038052DFC00000000018F0400000000003E
:103494000C3000000B0A0003C00000000000F00024
:1034A4000000F1BB020004000000F00000000889E5
:1034B400BEFC2000A000000F0000000000000C3043
:1034C40020040100723C2000100E380AF040004035
:1034D40000000000100020000000004001817A80FC
:1034E4000001426635800000000000000C3000003E
:1034F40000800803C00000020010F0000000000D6E
:103504003C0000340000000000000005C000200062
:10351400004025A10000000000000C302004000A37
:103524007A3C20001000001AF040000000A00400C3
:103534000000001CF0400000000000000000140720
:1035440001CC0220000000000C3000040500000340
:10355400C00010000000F0000000D1F33C000000A7
:103564000010F00000001000000000000800010C32
:103574000008000000000C30200005007A3C200008
:103584000000001AF040100050A004000020001CAD
:10359400F060000001A063C10000100707C08010A4
:1035A400000000000C300000050E0003C0001000F5
:1035B4000000F0001000D9BB3C0000240000F00023
:1035C400000000A003C00400000424800080000068
:1035D40000000000000000007A3C200000262A5B66
:1035E4004240004000000000001C00ED5A000004AE
:1035F40001E000000002000000AF04000000000031
:103604000000000000000803C1000014024CE200A6
:10361400404000000000000001CC1A010000F090BE
:10362400000000040000010F000000000000000082
:10363400028005007A3C200A001E7078AF1000401A
:103644000000000A0020006AA500280000A7EA0084
:1036540000A00000418F04000000000000000200F0
:1036640000800803C008003E2020AF100040000086
:1036740000080004015055002000000F6C00008079
:103684000003810F000000000000000003000000A0
:103694001A15400C0016024C3042300000000004A1
:1036A4004020396AA000100001933828004000032C
:1036B400C000000000000000000000000000001531
:1036C400400400000270B10090000000000C0034BF
:1036D4006370F50010000080002820C06003C00063
:1036E40000000000000000000000000007BC100003
:1036F4000014287B4240000000000000000000FC91
:103704000E02000000F5F8000800E00000000000D0
:1037140000000000000000000000043C0020001431
:10372400286CD100800000000000001428D00F0095
:10373400000000FF81000000000000000000000005
:10374400000000000000000007BC10000000625BE5
:1037540042400000001000002014000AF040000065
:103764005801FA010800000000EF04000000000006
:10377400000000000000043C08000000665DE20058
:10378400800000F00200E0000000F00000000000F3
:10379400C20000000000010F000000000000000053
:1037A40000000000802950040026647B4240000091
:1037B40000000000863604000000000000012C8197
:1037C40000000000000000000000000000000000F5
:1037D4000000101680040026647DD10080000000E3
:1037E4000000001428000000000000097C00000014
:1037F40004000000000000000000000000000000C1
:103804000000000000000258424040000000000098
:103814002006005AF50000008005F80500000000AD
:10382400200A540000000000000000000000000016
:10383400000000000248E200000000000000000058
:103844000340A000000050C1EC00000000021C0571
:10385400A0000000000000000000001B00000000A9
:1038640000000159014040000000000080000000F9
:10387400000000007810000000000040000000007C
:103884000000000000000000000A0000000000002A
:103894000059A7000000000000000E000000000016
:1038A400000008A00000000000000000000000006C
:1038B4000000000000000180000000000000014A38
:1038C400F0D000000008000000002E1CB10001022E
:1038D40000186955000000024000000000000000CC
:1038E40000000000008A0000000000002C190F00F6
:1038F400044000070000000038DF7200028000D995
:1039040042A800080007400000000000000000007A
:103914000280050076A8000A000001C8F0C0280053
:103924000008000A002003FCAF2328007818029541
:1039340000B401E017CAF400000000000000020017
:103944000100F4000008000000000F002000000740
:103954000008201C0150DF00200008C1016800821B
:1039640000201700A1000000000000000300001F59
:103974003F99C480002061C8F0C0100000C0000C52
:10398400001E001CF040300050A03BC1804203C721
:103994009DCA50000000000000000300000DD03F4D
:1039A400C00000042C200F003000310F000C000078
:1039B4000000F000100000A043C0004401E43505FD
:1039C40051000000000000000100001A1B191A1029
:1039D40000060148F0E00100000000000120026838
:1039E400A50000800010000000000167BDEA02008D
:1039F4000000000000000100001032160200000068
:103A040000200F0002000007000000042B505500A6
:103A1400010000900000000000202E0F5000000064
:103A2400000000000000010012DD1000000001E8A9
:103A3400F0C0000080900000000005EE20020100AC
:103A4400000DE005000A01668E8A020000000000F5
:103A5400000000000108B6140A40000000000F0036
:103A64000020709B000000002020200002800089BC
:103A7400AC0000040002EF0FA000000000000000F2
:103A8400000005801640500000000168F0C00000EE
:103A940080000000000466CEA5000000000D6281D5
:103AA4000000000716AA50000000000000000000FB
:103AB40001001A29C860000000000F000000300552
:103AC4003C000E3620F055000000000D40000000C0
:103AD40000073C0AA00000000000000000000D8F59
:103AE40093DD1600000605E85540000081900400AF
:103AF400006039E87002000030057A010000080710
:103B04004D8A000000000000000000000D1A32146D
:103B14000020000020205500000091E33C000094A8
:103B24000150F00000000099F80000080346D40F8B
:103B34005000000000000000000008000000000C1D
:103B44000020040000003000999004000036041C9A
:103B5400F0400001000000000000004795EA00006A
:103B64000000000000000000050000000008000440
:103B7400200000001000999B3C000C142800F00069
:103B8400000200800000000000242D0FA0000000AF
:103B94000000000000000000000000000000200001
:103BA40000000040000000000020054B70000000F1
:103BB40000007BC100000003B59205000000000076
:103BC40000000000000000000000000040000000B1
:103BD40000400090000000242368F00000000080F2
:103BE40043C00000000724CE0000000000000000D5
:103BF400000000000000000000340000000000404D
:103C04000000000A002002FABD03280001E00000C1
:103C140000A00242CF81C0000000000000000000AC
:103C2400000000000000002C2800000000400000FC
:103C3400000800240160FD0820000100000000804D
:103C4400006217C3C0040000000000000000000070
:103C54000000000000000208500010000000000CEA
:103C64000020641EF0401000000063C10000020345
:103C740025AB9400000000000000000000000000DC
:103C8400000000000050A00010000000000C002CF8
:103C94002400F0001000000043C00000004017930F
:103CA4008080000000000000000000000000000010
:103CB4000000000000000000000000000026064E86
:103CC400A5000000000000000000014035E8D40415
:103CD40000000000000000000000000000000014CC
:103CE40000000000000000000000000625F0550060
:103CF40000000000000000000002A698E0000000A0
:103D040000000000000000000000000000000000AF
:103D14000000000000000000000072DCF50000005C
:103D2400000000000010016000EF0400000000002B
:103D3400000000000000000000000000000000007F
:103D4400000000000000001C00F050000000000013
:103D5400000000100000000F000000000000000040
:103D6400000000000000000000200000000000002F
:103D740000000000002066DEA50000000000000036
:103D840000000200018F0410000000000000000089
:103D9400000000000000003C0000000000000000E3
:103DA4000000002423D0AA0000000000000000004E
:103DB4000143C00F020000000000000000000000EA
:103DC400000000000000027B100000000000000062
:103DD4000E00701A8002000000000000000A0000BB
:103DE40027E0540000000000000000000000000074
:103DF40000000000024C2401000800000000000044
:103E04000050400000000000000000000040240AB0
:103E1400000400000000000000000000000000009A
:103E24000000000000000100000000000000381C39
:103E3400F0400000001000000000036007D4000000
:103E4400000000000000000000000000000000006E
:103E54000000000002000000000000342400F00014
:103E6400000000D00000000001601680000800007F
:103E74007200901101010100000000000000000028
:103E840000001000000000000040000000000001DD
:103E940000000000004000020000000000000800D4
:103EA400000000000000000000000000000000000E
:103EB400200000000000008000000000000200005C
:103EC40000000000000000000000000000000000EE
:103ED40008000000000000000000000000000000D6
:103EE40000000000000000000000000000000000CE
:103EF400000000010000000000000400F0000000C9
:103F040000000000000000000000000000000000AD
:103F1400000000000000000000000000000000009D
:103F2400000000000000000000000000000000008D
:103F3400000000000000000000000000000000007D
:103F4400000000000000000000000000000000026B
:103F5400000C000000000800000030000000000019
:103F6400000000000000000000000000000000004D
:103F7400000000000000000000000000000000003D
:103F84000004000000000000100000000000000019
:103F9400000000000000000000000000000000001D
:103FA40000340000000000000000000000000000D9
:103FB40000000000000000000000000000000000FD
:103FC40000000000000000000000000000000000ED
:103FD40000000000000000000000000000000000DD
:103FE40000000000000000000000000000000000CD
:103FF40000000000000000000000000000000000BD
:1040040000000000000000000000080000000000A4
:10401400002000000000000000000000000000007C
:10402400000000000000000000000000000000008C
:10403400000000000000000000000000000000007C
:10404400000000000000000000000000000000006C
:1040540000000000000000000000000200000B004F
:10406400010000000000000C00000000000000003F
:10407400000000000000000000000000000000003C
:1040840000000000000000000001008008000100A2
:10409400000200000008000000000000040000000E
:1040A400000000000000000000000000000000000C
:1040B40000000000000000000000000000000000FC
:1040C40000000000000000000000000000000000EC
:1040D40000000000000000000000000000000000DC
:1040E400000000000000004000000000000100008B
:1040F40000000000000000000000000000000000BC
:1041040000000000000000000000000000000000AB
:104114000000000000000001000000000002040094
:10412400000000000000000000000000000000008B
:10413400000000000000000000000000000000007B
:1041440000000080000000000002000E00000000DB
:1041540000007000000000000000000C30000000AF
:10416400000000000000000000000000000000004B
:10417400000000000000000000000000000000003B
:10418400C00100F000000000000C3020000000001E
:10419400000000000000000000000000000000001B
:1041A4000000000000000000000000000000060104
:1041B400C0F000000000000C30000000000000000F
:1041C40000000000000000000000000000000000EB
:1041D400000000000000000000000000000000F0EB
:1041E40000000000000C302000000000000000006F
:1041F40000000000000000000000000000000000BB
:10420400000000000000000000000001C0F00000F9
:104214000000000C3000000000000000000000005E
:10422400000000000000000000000000000000008A
:104234000000000000000001428000F000000000C7
:10424400000C30200000000000000000000000000E
:10425400000000000000000000000000000000005A
:104264000000000000036041C0F000000000000CEA
:10427400300000000000000000000000000000000A
:10428400000000000000000000000000000000002A
:1042940000000000003C0AF000000000000C302088
:1042A400000000000000000000000000000000000A
:1042B40000000000000000000000000000000000FA
:1042C40000000021E5F000000000000C30000000B8
:1042D40000000000000000000000000000000000DA
:1042E40000000000000000000000000000000000CA
:1042F4000000000000000000000C3020000000005E
:1043040000000000000000000000000000000000A9
:104314000000000000000000000000000000000099
:10432400000000000000000C30000000000000004D
:104334000000000000000000000000000000000079
:104344000000000000000000000000000000000069
:1043540000000000000C30200000000000000000FD
:104364000000000000000000000000000000000049
:104374000000000000000000000000000000000039
:104384000000000C300000000000000000000000ED
:104394000000000000000000000000000000000019
:1043A4000000000000000000000000000000000009
:1043B400000C30200000000000000000000000009D
:1043C40000000000000000000000000000000000E9
:1043D4000000000000000000000000000000000CCD
:1043E4003000000000000000000000000000000099
:1043F40000000000000000000000000000000000B9
:10440400000000000000000000000000000C30204C
:104414000000000000000000000000000000000098
:104424000000000000000000000000000000000088
:1044340000000000000000000000000C300000003C
:104444000000000000000000000000000000000068
:104454000000000000000000000000000000000058
:104464000000000000000000000C302000000000EC
:104474000000000000000000000000000000000038
:104484000000000000000000000000000000000028
:10449400000000000000000C3000000000000000DC
:1044A4000000000000000000000000000000000008
:1044B40000000000000000000000000000000000F8
:1044C40000000000000C302000000000000000008C
:1044D40000000000000000000000000000000000D8
:1044E40000000000000000000000000000000000C8
:1044F4000000000C3000000000000000000000007C
:1045040000000000000000000000000000000000A7
:104514000000900000000000000000000000000007
:10452400000C30200000000000000000000000002B
:104534000000000000000000000000000000000077
:104544001000000000000000000000000000000C4B
:104554003000000000000000000000000000000027
:104564000000000000000000000000000000D00077
:10457400000000000000000000000000000C3020DB
:104584000000000000000000000000000000000027
:104594000000000000000000000000001000000007
:1045A40000000000000000000000000C30000000CB
:1045B40000000000000000000000000000000000F7
:1045C4000000000000000000000000000000006087
:1045D4000000000000000000000C3020000000007B
:1045E40000000000000000000000000000000000C7
:1045F40000000000000000000000000000000000B7
:10460400000000000000000C30000000000000006A
:104614000000000000000000000000000000000096
:104624000000001000100000000000000000000066
:1046340000000000000C302000000000000000001A
:104644000000000000000000000000000000000066
:1046540000300080000000000000000000000000A6
:104664000000000C3000000000000000000000000A
:104674000000000000000000000000000000002016
:104684000000000000000000000000000000000026
:10469400000C3020000000000000000000000000BA
:1046A40000000000000000000000000000280000DE
:1046B4000000000000000000000000000000000CEA
:1046C40030000000000000000000000000000000B6
:1046D40000000000000000000000000000000B00CB
:1046E400143000000000000000000000000C302026
:1046F40000000000000000000000000000000000B6
:104704000000000000000000000000000D21410036
:1047140000000000000000000000000C3000000059
:10472400000000000000000040DB0000000000006A
:10473400000040034DA5008000108D80140000008F
:104744000000000000000000000C30200000000009
:104754000000000000024E5F0200000000000000A4
:104764000000ED02400000819FA143020000000010
:10477400000000000000000C3000000000000000F9
:1047840000000403D000000000000000000140020B
:10479400DBF500010010098014000000002C80806B
:1047A40000000000000C30200000000000000000A9
:1047B4002C785A0A00000000000000000602DAF417
:1047C400000280980FA14300000000248B540800CD
:1047D4000000000C30000000000000000000040095
:1047E400000000000000000000003C3CD00001007C
:1047F40000000D001400000002000F000000000083
:10480400000C302000000000000000002000000028
:1048140000000000000000002061D8020200000037
:104824000DA14300000000568F0800000000000C9A
:104834003000000000000000002000400050000094
:104844000000000000001E00200A00000000090013
:10485400140200E000020F0000000000000C3020F1
:1048640000000000000000400039D85000000000A3
:10487400000000001C00EA0A200000000FA1430011
:10488400000000048F0800000000000C300000004D
:10489400000000000000003B400800000000000091
:1048A400000000316D0010000000AD8014000042D3
:1048B400C0000F0000000000000C302000000000C9
:1048C400000000000062F818020000000000000070
:1048D40000046F08000000181D2143000003400677
:1048E4008F08000A0000000C3000100000000000D7
:1048F400000000025000000000000000000004243A
:10490400000000100000898014000002C0000F00A5
:1049140080040000000C30200000000000000000B3
:1049240006024CA0200000000000000020780000D7
:10493400001000019D214300000340168F08000071
:104944000000000C300000000000000008001430DB
:104954004000000000000000080200274A850020F3
:104964000000AD001400800140000F0000000000B2
:10497400000C30200000000000000A001E06585001
:104984000000000000000A000005CC40402900009F
:104994001F214300A00000148F0800000000000C39
:1049A400300000000000000000003C036A521000C8
:1049B4000000000000000000E94200000000A9001F
:1049C400144A00014000000020000000000C3020C8
:1049D400000000000000000C0E624E7A400000004F
:1049E4000000000000014B50400000000F21430074
:1049F4000001C29400080000000000000000000054
:104A0400080821402000000020A020000000000031
:104A14000000003AEB8000013800816500000002CC
:104A24004000000000000000000000000000015EE3
:104A3400A140800000014AA0000000000000000026
:104A44000006FA0000000001976400000002600004
:104A540000000000100000000000000000D01080E2
:104A640040000436EDA500000000000000001C0218
:104A740060CB00810001077F0C000001C40000002E
:104A8400000008000000000000000C00204480002A
:104A9400046579A74000000000000000266AEAC30C
:104AA40042028031C3FF4D05000263800000000014
:104AB400000000000000000D0B9E0000000000201C
:104AC400200A0000000000000000447ACF800000AB
:104AD40000090581002000024014EC408000000021
:104AE40000000000000B0113804000100004F80ACD
:104AF4000100000000000010202779000800407821
:104B0400A128010801020017FD04000000000000B4
:104B1400000000500BF4200000001C3420A02804E6
:104B24000000000000000001E0D33840007003E8FA
:104B3400000000000034C8D00000000000000000A5
:104B4400002001120000800020795AA020040000F7
:104B5400000000000000EA4342000000016C200055
:104B640000000016B814000000000000000000005F
:104B740080DB000000001633CD240000000000009C
:104B840000000242E00000000008B1E690000000CE
:104B940062E4A5C0800000000000000000070A3A9B
:104BA400C04000003E004C10000000000000000166
:104BB4000E2B5C5000000050076590000003400776
:104BC400CA0600000000000000000000885B4000EE
:104BD4000000167660760000000000000020043417
:104BE400005F000000580D4294800000441D9010A6
:104BF400000000000000000000038857420000008D
:104C04002E74CAB1620000000000004000344E5F00
:104C140000000050A3F3E800000202B7B000000057
:104C24000000000000000000000402800800343B83
:104C3400E01800000000000008001C22FEA5086027
:104C44000000A5810000800343C40AC000000000E6
:104C5400000000000000003B02800A003E05DA0864
:104C64000200000000000A000007DA405829000191
:104C7400D1280108A000035DCA0420000000000040
:104C8400000000000854140000003C21D9800000FA
:104C94000000000000000203EB5A00000201B3E828
:104CA40000000000203E05A00000000000000000FD
:104CB40000018B87A80000002005CF000000000041
:104CC400000000001400EF4050000518A16E000021
:104CD40000014606EF50000000223D0800090000D4
:104CE400009F000000002402CB40000000000000F0
:104CF4000090003749A109000001D0000000000025
:104D0400003CE800000000C03F800021000300F2E6
:104D1400E0000000006378000000000000000000D4
:104D240000026D4241003801C00000000001E0169D
:104D3400C00000000000140A000000000093E0001E
:104D440000000002C00008000000000000008040D5
:104D5400F80A080040399DB31C010012C204ADD00A
:104D64000000000024A0000000001C3E0000000021
:104D74001E006C80020000000000000040796B4AB5
:104D8400500000D1FDF70D0000E8406EEEF0000089
:104D94000030000000000000003640802000004287
:104DA4004000000000000000000000027D00100030
:104DB40000D10B4000400001E0059200040000C057
:104DC40000000000040500824040001000735A02F5
:104DD400020040000000001000206C080000403970
:104DE4008BB9400001014007A0060000004000000C
:104DF40000000800001C00000020027C700000007D
:104E04000000000000003C61600000000008DDF0CC
:104E14000001000040150400100000000000000024
:104E240010001C1B200080401C235CA0000000001C
:104E3400000000000E75FAA0400000100FBC208096
:104E44000002000EA000200000000000000000008E
:104E540000500140000014796E00000000000000C2
:104E640000003C600000000000588764300000012E
:104E7400603C0A00000000400000000000039C5F4A
:104E8400800800002E3C4F082000000000000000B5
:104E940000280000000002B9B5EC2000000346041D
:104EA400C000000002400E8FA000280180540000C2
:104EB4000000363760000000000000000000822E71
:104EC400703C080000008780D000000366CDEC80B1
:104ED400100002001FDE7080138B9E3E200080A015
:104EE4003E06DA80020000000000020754017C7CC8
:104EF400530000001568F50A000142B4FD040000E7
:104F04000343400000020009905C140000000C41BF
:104F14006B0000000000000008013428F058002055
:104F24000001094014008003601E84008000020018
:104F34004000000280070E168000000036704F0209
:104F44000000000000000A00A0616E18022805009D
:104F540088782800A0014015981000000020000067
:104F6400000000050E0003C04000002BDA003100F1
:104F7400000000000000803ED00A000100000B0089
:104F840000000002E41CCC801000C060000000009F
:104F94000000010283D200000002D80400000000D7
:104FA4000000000140281A0500408010013028004C
:104FB40000014295AC24000000623D0001000000A5
:104FC40009DC3CC0000CA425FD80000100000000A9
:104FD40001001C227A0120040090978294000002B0
:104FE400C380000000000040358050100000091B01
:104FF4003DC080016006CB0010028000000000006C
:1050040020066F07600000819FE165280002000010
:105014000000000000220D000280204F8098000054
:1050240000000063EA0020000000000001002C03DF
:10503400D0E300000000E5000C000000000100F0D7
:10504400000001C03EE80030000B887EA000800014
:10505400006459400001280000000107A0206AC331
:105064006300007811B0080800000000C0F50000DB
:1050740000420300A00000000CD4000010001C76C5
:10508400700000000000000000003E3CFF03000030
:105094000071BB801400000000000000000002004A
:1050A4000FA0A00000000097008E800020605A80AE
:1050B40012000000000000002E7E4F0200000000DD
:1050C400AB3168000000000000000000014006E071
:1050D400000000030AF40000000002241050000045
:1050E400000000000000023EC800000000F1DDF8EE
:1050F40000811000034000000000E36015B02000B0
:105104000000089202800000063C7E50000000006F
:10511400000000001E02DE80000000D9DF32010022
:10512400000007C00000000002440CA00000000DB5
:105134000A5600000001027C00000000000000008C
:1051440000003C015E5B000000F100000000001064
:10515400001E8000880002021CC801000008001F15
:10516400A00000001C70000000000000000000000F
:105174002000EEA540000001E00000000008C0256A
:10518400A806100001624600000000050A1B50003A
:105194000000343AD0E301000000000000000426BF
:1051A400E000000000010BF000000000000000001F
:1051B4000000006066C2002003800113C0000000EC
:1051C400006F5AC352000000000000002000ECA051
:1051D40000000830CFE40840000000000000000098
:1051E40003424505F000000B0BB402881800BC0212
:1051F400DF0300000000000008000069D0C3112094
:10520400005005F7FC00800002E7F02000000202D5
:10521400C08AF0000008003380000A071C00FC026A
:105224000000000000000A001E70EEC7422800B112
:10523400ADA1FD20A000000D90000000024340003D
:10524400000000070BF780003001002BD80000009D
:105254000800000000001C27C92500000000CDF450
:105264000060000027400000000003C04000000070
:1052740000050A9200800000803CCB08100000006A
:105284000000002006005C000000000001FC20007B
:105294000001E2C0000000100000260050030000DE
:1052A40008B0294041002E64000000000200000004
:1052B4000000AC7C0000000080000B3108040000FA
:1052C400000200A0001000002F8000030005818070
:1052D40016944100262C000000000000000000008D
:1052E4007C20000000010000000605420000000FC1
:1052F400C0A480000142830020800001000C2580AE
:1053040000003401D0A020000400000000001E4270
:10531400E0AF21000000804280020003C0010A00C7
:105324001400000044A020300009803FA5905000E4
:1053340000721E5000000000000000003C72EEA548
:105344004000007013B280000000500C8A05000079
:105354000142BC0000000000000000000000044105
:10536400F0FF20000000000000001C216B10000072
:105374000008000000000A01C7DE8FF0840002006C
:105384004EC0A00000001800000000001C637EF75F
:105394000200000000000000206DFC00000000710D
:1053A4008000000004020786E7F5000001400408BD
:1053B400020000000000154000003E40E0C3000071
:1053C4000000800100000C00601A000000000001D1
:1053D4006802182023800FF0840003402CE0012091
:1053E4000000005A15500002B472DCE3020004000D
:1053F40000000040006BF85A02000018E101680048
:10540400100142000FF100000000340010100001F0
:10541400000803C0100E006F40E500003A000000D1
:105424000000000030A000000200CD810800100040
:10543400040590019000000000C022240008001A16
:105444003C380000003F4CA50200000000000000B2
:1054540000006EA0000004000D3B8D881000021CAB
:10546400D014000000024F0000000000080803C030
:1054740000000203C8000010000000000000243CEB
:1054840000000000000000814000000000268200AF
:105494000C0020007C850000000001523C30000C10
:1054A4001669CD8000308000000000280000000054
:1054B40000000000C3B140000000000D9344000050
:1054C400024424B0000200000F0003C040003C2A44
:1054D400F80408004000000008423C7DC0000020A1
:1054E40000000FAF6840800267C6D5810000020645
:1054F40005840002800001723C30200020066A000E
:105504000000400000000A00062FDE0212280000FE
:10551400053E0564A0026216F984800000440DC0B3
:1055240042000000000003C1400000000000000031
:105534004000000000804002FC0000010008000060
:1055440000000A00020000000000006624E00200DF
:10555400000000723C3020041600000000004000EF
:10556400000000008002D808000200500000000083
:10557400000146400000000001400000000300015B
:10558400000803C0100800400000001000000B24B5
:105594000800000000000000021080815400000098
:1055A400000200A00000000000000003000D187AB3
:1055B4003C306000002800000010000000040C00D3
:1055C400000000000030008015A155000000000517
:1055D400C0A000000142800000000000000803C0D9
:1055E4001000000000000000000001300000002056
:1055F40000000000000000803C00000023E5D00013
:1056040010000006800000000001805A3C30600059
:1056140000000000000000300004004A0004000004
:105624000000001807A3C30000014077C800000071
:105634000000000000000280000003C010000021F0
:105644007C00010000700D24000000000000000137
:10565400200000003C00000144360040000000002F
:10566400000000000000005A3C3060000073FC4061
:10567400000000800800000000000000000280001C
:1056840005A3C300006203B7A00020000002BCD041
:1056940082000000000003C010001C2C0000000069
:1056A40000010900000000400000000000000000AC
:1056B4003C00000007870050000000005EE000008E
:1056C4000000007A3C3040002E0000000000000082
:1056D40088000002003800000000000007A3C30097
:1056E4000001E764AFA0000000000000000000001B
:1056F400080803C05000142B500000000001BD0036
:1057040000000000000000000000E0803C000202F5
:1057140042A5B0F00000000000000000000181522A
:105724003C30002036077E0A300000009000000064
:1057340000000000000000199523C300040166D492
:10574400A0B000000000000000000000080803C032
:105754004000000020A000102000E700000004002A
:105764003050A000001080803C000000029C0052D9
:105774001000000000000000000019523C3200003C
:10578400000178A000100000100000002000CE509E
:10579400400000819523C30000016756C8B0A800EB
:1057A40000003FE0011200001B0003C010000002D3
:1057B400D000002000F8F10008000002E0A58020DD
:1057C4000000E0003C00000543430A001400000010
:1057D4000CF1000280000A723C3020001602C880DE
:1057E40022A80071E8000A08000040006028800038
:1057F4001723C30000020006CA00000004000000D2
:1058040000000000000A400001020023CD00000057
:105814004011FD000000003C205090000000006496
:105824003C00000002C30500080000000000000066
:10583400000000184020010016065A100000000065
:10584400F80000000004CA5040000000056FC300C7
:105854000000069CC50100000072007011020101E5
:10586400000000000000000002000000000000082A
:10587400000000000200000000000008000000001A
:105884000000200000000000008000000000000074
:1058940000000000000001000000000000040000FF
:1058A40000000100000000000000000000000000F3
:1058B40010000000000000000000000000000000D4
:1058C40000000000000000000200000000000008CA
:1058D40000000000000000000000000000000000C4
:1058E40000000000000000000000000000000000B4
:1058F40000000000000000000000000000000000A4
:105904000000000000000000000000000000000093
:105914000000000000000000000000000000000083
:105924000000000000000000000000000000000073
:105934000000000000000000000000000000000063
:105944000000000000000000000000000000000053
:105954000000000000000000000000000000000043
:105964000000000000000000000000000000000033
:1059740000000000000000000000000000008000A3
:1059840000000000032000000000000000000000F0
:105994000000000000000000000000000000000003
:1059A40000000000000000000000000020000000D3
:1059B40000000000000000000000000000000006DD
:1059C4008000000000000000000000000000000053
:1059D40000000000000000000000C0000000000003
:1059E40001000000000000000000000000000000B2
:1059F40000000000000000000000000000000000A3
:105A04000000000000000000000000000000000092
:105A14000000000000000000000000000000000082
:105A24000000000000000000003000000000000042
:105A34000000000000000000000000000000000062
:105A44000000000000000002000000000000000050
:105A54000000000000300000000000000000000012
:105A64000000000000000000000000000000000032
:105A7400000000000001000000040000000000001D
:105A840000000020000000400000000000000000B2
:105A94000000000000000001800000000000000081
:105AA40000000000000000000000000000000000F2
:105AB40000000000000000000000000000000000E2
:105AC40000000200000000000000000000000000D0
