:100000000000042081350000F1350000591B00007C
:10001000F5350000F7350000F9350000000000005C
:10002000000000000000000000000000FB350000A0
:10003000FD35000000000000FF3500000136000023
:1000400003360000033600000336000003360000CC
:1000500003360000033600000336000003360000BC
:1000600003360000033600000336000003360000AC
:10007000033600000336000003360000033600009C
:10008000033600000336000003360000033600008C
:10009000033600000336000003360000033600007C
:1000A000033600000336000003360000033600006C
:1000B00003360000033600000000000000000000CE
:1000C000033600000336000003360000033600004C
:1000D000033600000336000003360000033600003C
:1000E0000336000003360000033600000000000065
:1000F000000000000336000000000000033600008E
:1001000000000000000000000000000000000000EF
:1001100000000000000000000000000000000000DF
:1001200000000000000000000000000000000000CF
:1001300000000000000000000000000000000000BF
:1001400000000000000000000000000000000000AF
:10015000000000000000000000000000000000009F
:10016000000000000000000000000000000000008F
:10017000000000000000000000000000000000007F
:10018000000000000000000000000000000000006F
:10019000000000000000000000000000000000005F
:1001A000000000000000000000000000000000004F
:1001B000000000000000000000000000000000003F
:1001C000000000000000000000000000000000002F
:1001D000000000000000000000000000000000001F
:1001E000000000000000000000000000000000000F
:1001F00000000000000000000000000000000000FF
:10020000537475636B20627574746F6E20726567CA
:10021000697374657220697320696E76616C6964B4
:100220002C20636C656172696E672E004275747470
:100230006F6E2069642000697320737475636B218D
:1002400000427574746F6E207761732070757368E7
:100250006564206F6E20626F6F742E204275747417
:100260006F6E20636F756E7465723A200042616331
:100270006B0055700053656C65637400446F776E56
:10028000006D783235752E63004A45444543204958
:10029000443A2000616464726573732000206973BE
:1002A000206F7574736964652073797374656D204C
:1002B000666C6173680073797374656D5F666C61F9
:1002C00073685F65726173653A2061646472657317
:1002D00073206E6F7420776F726420616C69676E33
:1002E00065640073797374656D5F666C6173685FD4
:1002F00077726974653A2061646472657373206E05
:100300006F7420776F726420616C69676E6564003A
:10031000496E76616C6964206669726D7761726599
:10032000206465736372697074696F6E210043683D
:1003300065636B73756D6D696E67206669726D7745
:10034000617265207570646174650043616C6375EA
:100350006C6174656420636865636B73756D3A20C6
:1003600000496E76616C6964206669726D776172AE
:10037000652043524320696E2053504920666C61CA
:100380007368210065726173655F6F6C645F666995
:10039000726D776172650077726974655F6E6577FB
:1003A0005F6669726D7761726500576527726520B7
:1003B0006465616400436865636B73756D6D696E38
:1003C0006720002062797465730D0A0043686563D5
:1003D0006B73756D202D2077616E7465642000202D
:1003E000676F7420004F757220696E7465726E615C
:1003F0006C20666C61736820636F6E74656E7473D5
:1004000020617265206261642028636865636B7394
:10041000756D206661696C65642921205468697373
:10042000206973207265616C6C79206261642100BF
:100430004F75722070726576696F75732066697288
:100440006D7761726520757064617465206661699D
:100450006C65642C2061626F7274696E67207570C0
:10046000646174652E004E6577206669726D7761F0
:10047000726520697320617661696C61626C6521C7
:10048000004C6F6164696E67207265636F76657298
:1004900079206669726D77617265004661696C6585
:1004A0006420746F206C6F6164207265636F766581
:1004B0007279206669726D776172652C207374722F
:1004C000696B65206F6E652E2054727920616761BB
:1004D000696E2E004661696C656420746F206C6FD4
:1004E0006164207265636F76657279206669726DEA
:1004F000776172652C20737472696B652074776FF5
:100500002E2054727920616761696E2E0046616900
:100510006C656420746F206C6F6164207265636F1A
:1005200076657279206669726D776172652C2073C9
:100530007472696B652074687265652E205341443E
:100540002057415443480048415244204641554CAD
:1005500054002020205F202020202020205F202009
:100560002020202020202020205F2020202020006C
:1005700020202F5F5C2020205F5F7C207C5F205F3D
:100580005F5F205F205F285F295F205F5F00202F73
:10059000205F205C20285F2D3C20205F2F202D5FD6
:1005A0002920275F7C205C205C202F002F5F2F20DC
:1005B0005C5F5C2F5F5F2F5C5F5F5C5F5F5F7C5F9A
:1005C0007C207C5F2F5F5C5F5C00626F6F742062D9
:1005D0006974004C617374206669726D776172652D
:1005E00020626F6F742077617320737461626C6531
:1005F0003B20636C65617220737472696B65730074
:10060000504D494320696E6974206661696C656468
:1006100000537475636B20627574746F6E00427260
:100620006F6B656E20666C61736800486F6C642048
:10063000646F776E205550202B204241434B202B76
:100640002053454C45435420666F72203520736516
:1006500063732E20746F20666F7263652D626F6FF7
:100660007420505246004669726D77617265206948
:100670007320657261736564005761746368646FA9
:1006800067206361757365642061207265736574AA
:1006900000536F667477617265206661696C75726C
:1006A000652063617573656420612072657365748C
:1006B000004661696C656420746F207374617274A4
:1006C000206669726D776172652C20737472696B34
:1006D000652074687265652E004661696C656420EA
:1006E000746F207374617274206669726D776172C1
:1006F000652C20737472696B652074776F2E0046C9
:1007000061696C656420746F207374617274206613
:1007100069726D776172652C20737472696B6520E4
:100720006F6E652E00466F7263652D626F6F746920
:100730006E67207265636F76657279206D6F646590
:100740002E2E2E00426F6F74696E67206669726D7F
:1007500077617265204020002E2E2E0D0A0D0A00B2
:10076000426F6F7420626974733A20004669726D3B
:1007700077617265206C656E6774683A2000436823
:1007800065636B73756D3A20004153534552543A7B
:1007900020003A00415353455254004153534552AF
:1007A000544E002A2A2A20575446200053544D33D1
:1007B000320053544D33322070657269706865722F
:1007C000616C206C696272617279207472697070F8
:1007D000656420616E206173736572740043524FCB
:1007E000414B204F4F4D0052657461696E65642026
:1007F000726567697374657220435243206661694C
:100800006C65643A20657870656374656420435252
:100810004320002C20676F742043524320002E2079
:1008200020436C656172696E6720626F6F746269E4
:100830007473210069746F61206275666665722049
:10084000746F6F20736D616C6C002E2E2F2E2E2F07
:100850002E2E2F2E2E2F74686972645F7061727451
:10086000792F68616C5F6E6F726469632F6E726658
:10087000782F68616C2F6E72665F6770696F2E6883
:10088000002E2E2F2E2E2F2E2E2F2E2E2F746869F7
:1008900072645F70617274792F68616C5F6E6F72E1
:1008A0006469632F6E7266782F64726976657273FD
:1008B0002F7372632F6E7266785F717370692E6327
:1008C000002E2E2F2E2E2F2E2E2F2E2E2F746869B7
:1008D00072645F70617274792F68616C5F6E6F72A1
:1008E0006469632F6E7266782F64726976657273BD
:1008F0002F7372632F6E7266785F7370696D2E63EB
:10090000002E2E2F2E2E2F2E2E2F2E2E2F74686976
:1009100072645F70617274792F68616C5F6E6F7260
:100920006469632F6E7266782F647269766572737C
:100930002F7372632F6E7266785F7477692E63000F
:100940006D020000000000501C00000003000000C9
:1009500072020000000000501D00000003000000B3
:1009600075020000000000501E000000030000009F
:100970007C020000000000501F0000000300000087
:1009800001424F4F544C4F4144455200000000007B
:10099000002A2A0000000000000000000000000003
:1009A0000338FDD870477C00FE00FF01C701C70176
:1009B000C701C701C701C701C701C701C701C701F7
:1009C000C701C701FF01FE007C0038003C003E006B
:1009D0003E00380038003800380038003800380051
:1009E0003800380038003800FE00FE00FE007C00B1
:1009F000FE00FF01C701C701C001C001E000F00017
:100A000078003C001E000E000F000700FF01FF01F0
:100A1000FF017C00FE00FF01C701C701C001C0014A
:100A2000F8007800F800C001C001C001C701C7018B
:100A3000FF01FE007C00E000E000F000F000F800A4
:100A4000F800F800FC00EC00EE00E600FF01FF01FA
:100A5000FF01E000E000E000E000FF00FF00FF0019
:100A60000700070007007F00FF00FF01C701C0016A
:100A7000C001C701C701C701FF01FE007C007C0067
:100A8000FE00FF01C701C701070007007700FF0054
:100A9000FF01C701C701C701C701C701FF01FE0070
:100AA0007C00FF01FF01FF01E000E000700070002A
:100AB000700038003800380038001C001C001C0092
:100AC0001C001C001C007C00FE00FF01C701C701C8
:100AD000C701C701FE007C00FE00C701C701C701B6
:100AE000C701C701FF01FE007C007C00FE00FF0182
:100AF000C701C701C701C701C701FF01FE01DC0132
:100B0000C001C001C701C701FF01FE007C00000059
:100B10000000000000007C00FE00FF01C701C701CB
:100B2000F001FC01CE01C701C701E701FF01DF01B0
:100B3000CE010700070007000700E700F701FF01EB
:100B4000CF01C701C701C701C701C701C701CF0155
:100B5000FF01F701E70000000000000000007C003A
:100B6000FE00FF01C701C7010700070007000700DB
:100B7000C701C701FF01FE007C00C001C001C00128
:100B8000C001CE01DF01FF01E701C701C701C701B5
:100B9000C701C701C701E701FF01DF01CE01000066
:100BA0000000000000007C00FE00FF01C701C7013B
:100BB000C701FF01FF010700C701C701FF01FE00D8
:100BC0007C00E000F000F8003800FE00FE00FE00AF
:100BD0003800380038003800380038003800380055
:100BE000380038003800FFFFFFFFFFFFFFFFFFFF67
:100BF000FFFF010000000000000000000080010075
:100C00000000000000000000008001000000000063
:100C10000000000000800100000000000000000053
:100C200000800100000000000000000000800100C2
:100C300000000000000000000080FFFFFFFFFFFF3A
:100C4000FFFFFFFFFFFF00000000000000000000AA
:100C50000338FDD87047000000400040000000004D
:100C60000E0000000F0000000000980107000000C7
:100C7000000000006410B71DC8206E3BAC30D926C0
:100C80009041DC76F4516B6B5861B24D3C7105506C
:100C90002083B8ED44930FF0E8A3D6D68CB361CB94
:100CA000B0C2649BD4D2D38678E20AA01CF2BDBD48
:100CB0000338FDD87047000000000000000000006D
:100CC0000338FDD870470000FF000000FF0000005F
:100CD000FF000000FF000000FF000000FF00000018
:080CE0000338FDD87047000045
:080CE800900000000100000073
:100CF0000348044B834202D0034B03B118477047AB
:100D00000C0600200C060020000000000548064BE1
:100D10001B1AD90F01EBA301491002D0034B03B1F9
:100D2000184770470C0600200C0600200000000049
:100D300010B5064C237843B9FFF7DAFF044B13B123
:100D40000448AFF300800123237010BD0C0600207F
:100D5000000000004C3A000008B5044B1BB10449E8
:100D60000448AFF30080BDE80840CFE70000000072
:100D7000100600204C3A0000A3F5803A704700BFEF
:100D8000154B002B08BF114B9D46FFF7F5FF0021C7
:100D90008B460F461148124A121A02F03FFD0C4BC7
:100DA000002B00D098470B4B002B00D09847002019
:100DB000002104000D000B4802F018FD02F036FD82
:100DC0002000290000F014FF02F016FD00000800CA
:100DD0000000000000000000000004200C060020BD
:100DE0006408012075380000F7B5012001F088F98A
:100DF0000024019001AD2746E0B200F049F8064614
:100E0000A0B928700134042C05F10105F4D1019C2E
:100E10003CB1174800F0F6F8204600F012F900F057
:100E200087F82146012001F05DF90DE02B78042BB5
:100E30000DD9104800F0FEF8019800F002F90021E9
:100E4000012001F04FF90027384603B0F0BD01330F
:100E5000DBB2052B2B70D5D1074800F0D3F8204624
:100E600000F0EFF8054800F0E5F83746CAE700BFA4
:100E700041020000000200002C02000037020000C6
:100E800008B500F025FB80F00100C0B208BD0000ED
:100E9000064B03EB001043688268D3F8103501203D
:100EA00090401840B0FA80F04009704740090000B7
:100EB000002110B50C46C8B2FFF7EAFF88400131A7
:100EC00004430429E4B2F6D1204610BD10B5074B07
:100ED0000422D3E90141187B01F5E0718000013A59
:100EE00044F8210003F11003F3D110BD40090000C4
:100EF000074B0422C3F80025C3F81C05D3F81C21B6
:100F0000012AFBD10022C3F81C21C3F80025704739
:100F100000200040054B4FF08052C3F824250122E9
:100F20009A601B22C3F80C25704700BF00200040C8
:100F30002DE9F843304E346804F12E0323F0070303
:100F400000AFADEB030D50238DF8003021238DF859
:100F5000013000238DF8023003238DF8033004F1B3
:100F600021035BBAADF80430244B04F127086D4629
:100F70000DF1060203F11C0153F8040B42F8040BB7
:100F80008B42F9D11B78137004F1230922461C49C6
:100F900005F1230002F084FC4A462946002001F0B6
:100FA000E1F804F59273FE22B3FBF2F343440733F6
:100FB00023F00703ADEB030D45F80900424629462F
:100FC000684601F0A3F801465520FFF791FF6C46F3
:100FD00069448C4207D15520FFF78AFF0023336014
:100FE000BD46BDE8F88314F8010B552808BF002062
:100FF000FFF77EFFEDE700BF280600208009000014
:101000002C06002038B50A4D441E14F8012F12B1E9
:101010002B68FF2B00D938BD0A2A02D1FFF788FFC1
:10102000F3E70D2A1FBF591C5B1929601A71ECE701
:101030002806002008B5FFF7E5FFBDE80840FFF7E8
:1010400077BF1FB50C2201A901F0BAF801A8FFF77C
:10105000D9FF05B05DF804FB7FB50DF10703002251
:101060008DF80700029302A9012304480592CDE9F7
:10107000033201F04DFE07B05DF804FB00010020D3
:10108000F8B50733122706460698079C0731DD0896
:1010900007FB02F303EBD1031044234407FB004496
:1010A00004EBD104314618462A4602F0F9FB034608
:1010B0001233A3422E44F5D1F8BD0000044B0822A0
:1010C000C3F80825034B4FF4E07043F001031847C1
:1010D00000030050A009000010B5084C4FF4E07068
:1010E00044F00104A047064B0822C3F80C254FF436
:1010F00080702346BDE81040184700BFA0090000DB
:10110000000300502DE9F0410646FFF7D7FF80208D
:10111000FFF7A2FF0025012420BA90FAA0F0C0B288
:10112000FFF79AFF06EB0508002718F8010B00BA35
:1011300090FAA0F00137C0B2FFF78EFF122FF4D162
:1011400000200134FFF788FFA92C05F11205E3D137
:101150000020FFF781FFBDE8F041FFF7BDBF0000B1
:1011600010B5ADF6D83D02AC4FF43D6200212046EB
:1011700002F054FB1D2300934522702311210548E2
:101180000194FFF77DFF2046FFF7BCFF0DF6D83D29
:1011900010BD00BF080100202DE9F04FADF6E43D81
:1011A00004AD03904FF43D620021284602F036FB67
:1011B00047232A4800930195452318222321FFF74E
:1011C0005FFF1C2006464FF024084FF0010C039AE5
:1011D0000F2383401340224AC34008FB03230DF62C
:1011E0003807002403F1010913F814B00022082A7B
:1011F00006D00CFA02F111EA0B0F05D10132F6E725
:1012000019F81410C9070FD59119C1F3C40E01F0D4
:10121000070117F80EA00CFA01F1013241EA0A01A8
:10122000092A07F80E10E2D10134122C07F1120737
:10123000DAD10B36742EA0F10400C8D10E2300932E
:1012400090226D23102107480195FFF719FF2846CA
:10125000FFF758FF0DF6E43DBDE8F08F9E02002039
:10126000A60900001D05002008B5FFF727FF002094
:10127000FFF7F2FE0020FFF7EFFE0020FFF7ECFE85
:10128000BDE80840FFF728BFF0B5244E5E23584361
:10129000D6F8E434B0FBF1F4A342ADF6DC3D39D02E
:1012A00002AD4FF43D6200212846C6F8E44402F046
:1012B000B5FA1D23009345227023112106F1080081
:1012C0000195FFF7DDFE08230093182114480195CE
:1012D00060236A22FFF7D4FE0DF28E7700214FF0D3
:1012E000010C781800220DE002F11903C3F3C406C3
:1012F00003F0070310F806E00CFA03F343EA0E03C9
:1013000083550132A242EFD112316C29E9D128462E
:10131000FFF7F8FE0DF6DC3DF0BD00BF0001002038
:10132000E60B00000C4A08B511460C4BC2F8FC3421
:1013300001F59D6100231A46A1F59D6001F0ACFC0A
:10134000074B0322C3F80C274FF0A043C3F8102724
:101350001022C3F8082508BD0001002040420F00FC
:101360000003005070B50C46ADF5806D00254618A1
:10137000B4F5806FA6EB04010BD82246684600F056
:10138000C9F822466946284600F0ECFE0DF5806D4E
:1013900070BD4FF48062684600F0BCF828464FF4F8
:1013A0008062694600F0DEFEA4F580640546DFE752
:1013B00007B540F201130132ADF8023000238DF879
:1013C00000008DF8012068460A461946ADF8043041
:1013D00001F0BAF9044B984203D00448162100F0FA
:1013E00025FE03B05DF804FB0000AD0B8102000098
:1013F00007B5013240F201138DF800008DF801208D
:1014000068460022ADF80230ADF8042001F09CF9E6
:10141000044B984203D004481F2100F007FE03B09C
:101420005DF804FB0000AD0B8102000010B5132332
:101430008CB00024CDE9014311221423CDE903230C
:1014400015211623CDE905131E4BDFF880C01720A8
:10145000CDE907034FF4FA73CDE909C32246072308
:10146000214601A80B9301F03FF922462146662050
:10147000FFF7BEFF224621469920FFF7B9FF124B26
:101480004FF40C6043F00103984722462146B720F1
:10149000FFF7AEFF694601220520FFF789FF012211
:1014A0000DEB02013520FFF783FF9DF8013002228A
:1014B00043F00203694601208DF80130FFF798FFE1
:1014C0000CB010BD04020100500C00000500000328
:1014D00013B5032201A99F20FFF76AFF9DF805407D
:1014E0009DF804300948240244EA03449DF806307C
:1014F0001C43FFF787FD2046FFF7A3FDFFF718FD0C
:101500000348231A5842584102B010BD8902000016
:101510001960C8002DE9F341454205F003059542E5
:1015200088BFD5B2541B04F0030806460F4624F0CA
:1015300003049DB10A4604210DEB010001F06CF992
:10154000184B984203D05D21174800F06FFD3046DC
:101550002A4601A902F0A4F92F442E445CB13A4670
:101560002146304601F058F90E4B984201D06621D1
:10157000EAE727442644B8F1000F0FD004213A4689
:101580000DEB010001F048F9064B984201D06E21A5
:10159000DAE7424601A9304602F082F902B0BDE81E
:1015A000F08100BF0000AD0B8102000010B586B0D5
:1015B0004FF4D643ADF8043003240023CDE90243B1
:1015C0008DF800008DF801108DF802206C461A4647
:1015D00001A90648CDE9044301F02AFF044BC01AD3
:1015E00018BF4FF0FF3006B010BD00BF580C000010
:1015F0000000AD0B434900231A4610B5A1F10800C5
:1016000001F076FE404B984203D04FF0FF34204665
:1016100010BD3E4801F0C0FE012211460720FFF731
:10162000C5FF02460028F0D101210E20FFF7BEFFC2
:101630000028EAD1042101220846FFF7B7FF00285D
:10164000E3D1082211460420FFF7B0FF0028DCD1C7
:10165000082211460420FFF7A9FF0028D5D1012256
:101660000F210420FFF7A2FF0028CED1012205217F
:101670000320FFF79BFF0028C7D101220A21052084
:10168000FFF794FF0028C0D108220C210320FFF7A8
:101690008DFF0028B9D104220D210320FFF786FF1A
:1016A0000028B2D1102208210320FFF77FFF002875
:1016B000ABD110220A210320FFF778FF0028A4D124
:1016C000012204210320FFF771FF00289DD1012290
:1016D00009210820FFF76AFF002896D108220D2172
:1016E0001046FFF763FF00288FD101220221082056
:1016F000FFF75CFF0446002887D1044801F06CFE28
:1017000085E700BF600C00000000AD0B580C000026
:10171000B0F5801F10B504460BD90F48FFF772FCD7
:101720002046FFF78EFC0D48FFF784FC4FF0FF309A
:1017300010BD00231A46B4EB023F03F101034FEA48
:10174000023105D301F580518C4201D21046EFE7FA
:10175000FF2BEFD11846EBE7940200009D0200003A
:101760002DE9F047054616469846894641B310F0E4
:10177000030705D01C48FFF75DFC0020BDE8F0879B
:10178000FFF7C6FF0446681E4844FFF7C1FF611C0F
:101790000546F2D0421CF0D0A0EB040909F1010982
:1017A0001EB1424649463846B047104F0223C7F89B
:1017B0000435C4F1010AAC4204DD0023C7F8043546
:1017C0000120DBE72303C7F80835D7F80034DB072F
:1017D000FBD500F059F826B1424649460AEB040011
:1017E000B0470134E7E700BFB602000000E0014067
:1017F0002DE9F74F10F0030406460F46984606D031
:101800001F48FFF717FC002003B0BDE8F08FDFF89A
:1018100074B0012302F0030A22F00309CBF8043567
:10182000D5094C4518D3BAF1000F0FD04FF0FF3354
:101830000193DBF80034DB07FBD5524607EB0901C7
:1018400001A802F02DF8019B46F809300D4B00224B
:10185000C3F804250120D7E7DBF80034D907FBD50E
:101860003B59A35100F010F8B8F1000F05D0620603
:1018700003D10C9A2946E009C0470434D1E700BFE0
:10188000E302000000E00140044BD3F804250132DC
:101890001CBF034AC3F80026704700BF0000014088
:1018A0003546526E4FF080434FF0FF32D3F80004BC
:1018B000C3F80024C0F3400070474900FFF7E4BCC0
:1018C0002DE9F047012186B005460020FFF7DCFC3A
:1018D000042000F0F0FA03A8294600F045FB03A815
:1018E00000F066FB30B93C48FFF7A4FB012006B0CE
:1018F000BDE8F08739480C35FFF79CFB0499284672
:10190000FFF730FD04463648FFF77CFB2046FFF723
:1019100098FBFFF70DFB059B9C4201D03148E3E7A4
:10192000049CDFF8E0803048FFF784FB21462F4A13
:1019300000234046FFF714FF2D48049FFFF77AFB72
:101940000024A1464FEA570AA74217D93E1BB6F515
:10195000803F28BF4FF48036264832462919FFF7CA
:10196000D9FD2449CDF800900023324608EB04004D
:10197000FFF73EFF38BB2048FFF75CFB1F48FFF72F
:1019800041FB0498FFF75DFB1D48FFF73BFB049A02
:101990001C49002000F0E6FB04461B48FFF732FB21
:1019A0000598FFF74EFB1948FFF72CFB2046FFF781
:1019B00048FBFFF7BDFA059B9C420BD01448FFF78C
:1019C00039FB022093E7344439460AEB5400FFF711
:1019D0005BFCB9E700208AE7100300002E0300003B
:1019E0004B0300006103000084030000BB180000EB
:1019F000970300002C070020AA030000B503000095
:101A0000C303000000400000CC030000DF0300001F
:101A1000E503000010B5022000F065FAD8B30420F9
:101A200000F061FA044670B11B48FFF703FB042085
:101A300000F04DFA022000F04AFABDE810404FF4E1
:101A4000004000F044BA1548FFF7F4FA082000F00F
:101A50003EFA102000F03BFA202000F038FA402037
:101A600000F035FA2046FFF72BFF022807D10820A7
:101A700000F021FA102000F01EFA00F0FFFA042016
:101A800000F025FA022000F022FABDE810404FF4E1
:101A9000004000F010BA10BD3004000066040000E1
:101AA00010B52548FFF7C6FA4FF40010FFF708FFFE
:101AB0000138C0B201280ED9202000F008FA4020D9
:101AC00000F005FA802000F0F6F90124042000F06F
:101AD000FEF9204610BD082000F0EDF9102000F0BE
:101AE000EAF9202000F0FFF958B91448FFF7A2FAEC
:101AF000202000F0E0F94FF4007000F0DCF900F075
:101B0000BDFA402000F0EFF920B90D48FFF792FA36
:101B10004020EEE70B48FFF78DFA082000F0D7F9D8
:101B2000102000F0D4F9202000F0D1F9402000F07E
:101B3000CEF90024CAE700BF810400009B04000026
:101B4000D40400000D05000008B50248FFF772FA42
:101B500000F007FA470500001EF0040F0CBFEFF37A
:101B60000880EFF30980FFF7EFBF704708B5012049
:101B7000FFF78EF918B9002000F0010008BD002021
:101B8000FFF786F90028F6D00220FFF781F9002838
:101B9000F1D00320FFF77CF980F00100C0B2EBE741
:101BA0001FB504461048FFF745FA0C2201A920464C
:101BB00000F006FB01A8FFF73DFA2046FFF7ECFA1C
:101BC000FFF776F9094C20F004002070FFF770F958
:101BD000237800F0FB00834201D000F04FFA0A2086
:101BE00000F0E0FAF2E700BF3D0500002C070120FD
:101BF00030B585B0FFF748FEFFF78CF99348FFF743
:101C000019FA9348FFF716FA9248FFF713FA924829
:101C1000FFF710FA9148FFF70DFA8C48FFF70AFA20
:101C200000F06BF98E48FFF705FA00F08EF90023FB
:101C3000CDE90133039300F085F90C2201A900F0EE
:101C4000BFFA01A8FFF7F6F98048FFF7F3F97F48DC
:101C5000FFF7F0F94FF4804000F045F990B181486A
:101C6000FFF7E8F94FF4804000F031F9082000F068
:101C70002EF9102000F02BF9202000F028F9402048
:101C800000F025F9FFF7B6FC28B17748FFF7D2F945
:101C90007648FFF785FFFFF7C9FBFFF717F9FFF756
:101CA00041FBFFF75DFAFFF79FF820B17048FFF79F
:101CB000C1F97048EDE7FFF7E3F820B16E48FFF790
:101CC000B9F96E48E5E700F02DF9802000F00BF936
:101CD00020B1802000F0FBF86948DAE74FF40030CB
:101CE00000F001F938B14FF4003000F0F0F8654829
:101CF000FFF7A0F948E0FFF739FF68B16248FFF746
:101D000099F941F28834FFF731FF60B1012000F00A
:101D100049FA013CF7D1EAE75C4B1A685B6801338A
:101D200012D0013210D0FFF7BDFD88B94FF400701A
:101D300000F0D9F878B9082000F0C9F8102000F0B8
:101D4000C6F8FFF767FE23E05148FFF773F9CEE7C7
:101D50005048FFF76FF94FF4007000F0C4F810B16D
:101D60004D48FFF767F94FF4007000F0B0F810200D
:101D700000F0B9F878B34948FFF75CF9082000F0A3
:101D8000A6F8102000F0A3F8FFF78AFE0028A3D0E1
:101D90004FF4005000F0A7F805464FF4805000F0D3
:101DA000A2F844004FF4006000F09DF844EA850476
:101DB00064B2204340B207281DD14FF4006000F008
:101DC00086F84FF4805000F082F84FF4005000F095
:101DD0007EF833485DE7082000F085F830B13148DF
:101DE000FFF728F9102000F066F8AAE72E48FFF761
:101DF00021F90820F7E703281DD020F0040001286E
:101E00004FF4006012D000F056F8204B27485C6871
:101E10001D68FFF7F7F82046FFF713F92448FFF78E
:101E2000F1F863B64FF0FF3EAD46204700F04FF8A3
:101E30004FF48050E7E74FF4006000F048F84FF4AB
:101E4000805000F044F84FF40050DCE75F070000DA
:101E500052050000700500008E050000AC05000072
:101E6000CA050000D305000000060000054550FE2D
:101E700011060000014550FE1E060000024550FEFE
:101E8000034550FE250700002B060000004000001F
:101E9000660600007906000091060000B106000009
:101EA000044550FED9060000FF060000440700006C
:101EB00058070000704710B50446002000F020F9D4
:101EC00040EA0401BDE81040002000F00BB910B555
:101ED0000446002000F014F920EA0401BDE8104097
:101EE000002000F0FFB810B50446002000F008F90B
:101EF0002040003818BF012010BD4FF0804208B5C7
:101F0000D2F8043943F48023C2F8043900F0BCF855
:101F10000120FFF7E8FF20B9BDE80840012100F0EB
:101F2000E1B808BD08B50648FFF76CF8002000F0DE
:101F3000E7F8FFF786F8BDE80840FEF7F9BF00BFF5
:101F400060070000022000F0DBB808B5FFF7FAFFD9
:101F5000012805D0BDE808400121022000F0C2B8E8
:101F600008BD00BEFDE700001FB50C22044601A815
:101F7000FFF7D0FA0C48FFF745F80298FFF761F831
:101F8000FEF7D6FF0948FFF73DF80398FFF759F829
:101F9000FEF7CEFF01AB03CB20601868A06020469F
:101FA000616004B010BD00BF6C0700007E07000038
:101FB0000068A0F10C0358425841704780B50646AE
:101FC000174610480D461C46FFF71CF83846FFF729
:101FD00019F80D48FFF716F83046FFF713F80B48CD
:101FE000FFF710F82846FFF72CF82CB10848FFF748
:101FF00009F82046FFF706F80648FFF71BF8FFF739
:10200000B0FF00BF890700006D05000092070000C7
:102010006E0500005F0700001FB506AC1A4654F8B5
:10202000043B00940394FFF7C9FF000007B50023A9
:1020300000937246014BFFF7EFFF00BF9B070000C4
:1020400007B5034B00937246024BFFF7E5FF00BF55
:10205000B2070000AC070000BFF34F8F0549064BE5
:10206000CA6802F4E0621343CB60BFF34F8F00BF36
:10207000FDE700BF00ED00E00400FA0508B5FFF73A
:10208000F3F8FFF7E9FF000038B5124C7C22214637
:10209000002000F067F8E36F8342054618D00E4831
:1020A000FEF7B0FF2846FEF7CCFF0C48FEF7AAFF6C
:1020B000E06FFEF7C6FF0A48FEF7A4FFFEF738FF01
:1020C00020464FF48072BDE83840002101F0A6BBE5
:1020D00038BD00BF00000020E70700001308000023
:1020E0001E08000010B5054C7C2244F82010214643
:1020F000002000F037F8E06710BD00BF00000020AE
:10210000014B53F820007047000000202DE9F041FA
:102110000546002401202746034602F1FF38944279
:1021200005EB070C03D18CF80030BDE8F08111F805
:1021300004E0461CBEF1000F05D1EB550746012314
:1021400001343046EBE70133DBB2FF2B05F800E04A
:10215000F6D1A04504D037468CF80030861CEEE757
:102160003046E0E730B5C9B10D4DC0430A44914255
:1021700001D1C04330BD11F8013B83EA000404F0F3
:102180000F0455F8244084EA101080EA131303F07A
:102190000F0355F8233083EA1010E8E70846E9E713
:1021A000700C000038B5054D044645F0010504B932
:1021B00038BD4FF47A40A847013CF8E7B00C000066
:1021C0000A2A30B403DC30BC1048FEF733BF0C469B
:1021D000302304F8023B78234B701C220F2505FAAC
:1021E00002F30340D340092B0AD83033DBB2043A60
:1021F00004F8013B131DF2D1002330BC8B727047F1
:102200000F2B01D85733F1E72023F0E73408000003
:1022100070B546090D4600F01F0419D0012E04D1F7
:102220004FF6FF73E340DB0704D413484FF46C719F
:10223000FFF706FF7EB1012E1CD00F4840F2B931E6
:10224000FFF7FEFE04F5E074002353F82430FFDEB0
:102250004FF0FF33E6E74FF0A04202EB8402074B5A
:10226000D2F800170B4043EA052343F00203C2F8FB
:10227000003770BD024AF0E74A080000F0F8FCFFA2
:1022800000030050154B0238D3F83C26D3F83836FB
:1022900010B5072820D801A454F820F0D722000058
:1022A000D3220000CF220000CB220000C922000070
:1022B000C5220000C1220000BD220000100EC8711E
:1022C000100C8871100A48710A711A0ECA701A0C23
:1022D0008A701A0A4A700B7010BD00BF009002404D
:1022E000023807282CD801A353F820F05723000008
:1022F000532300004F230000272300004B2300003E
:1023000047230000432300000D230000CB791B0668
:102310008A7943EA02434A7943EA02230A7913435A
:102320000E4AC2F83C36CB781B068A7843EA024351
:102330004A7843EA02230A781343084AC2F8383637
:1023400070470023E4E70023E5E70023E6E70023E6
:10235000EBE70023ECE70023EDE700BF009002402D
:102360000268154BFF2A08BF4FF0FF32C3F824253F
:102370004268FF2A08BF4FF0FF32C3F82825826861
:10238000FF2A08BF4FF0FF32C3F83025C268FF2A8A
:1023900008BF4FF0FF32C3F834250269FF2A08BF97
:1023A0004FF0FF32C3F838254269FF2A08BF4FF0CB
:1023B000FF32C3F83C25704700900240F8B5114D3C
:1023C0006C6BB4B14FF47A735C430A23B4FBF3F43F
:1023D0000D4E0E4F46F00106D7F8003163B995F85F
:1023E00039304BB94FF42070B047013CF4D1084864
:1023F000F8BD4CF25034EBE795F83930002BF6D1AC
:102400000448F5E730070120C00C000000900240AE
:102410000700AD0B0000AD0B0A4B10B500220124E4
:10242000C3F80045C3F800211C6038B1FFF7C6FFB0
:10243000054B984204D1054B83F83840024810BD43
:102440000348FCE7009002400000AD0B300701207C
:102450000700AD0B2DE9F8433D4C994694F8303018
:102460000646884617461BB93A487F21FFF7E8FD24
:102470002EB938488021FFF7E3FD374841E006F0E8
:102480006043B3F1005FF8D1B307F6D194F8303070
:10249000012B05D04B4558D194F83830002B54D03F
:1024A0002E4AB9F1020F4FF000030BBFC2F81075AE
:1024B000C2F80475C2F81465C2F808650CBFC2F80A
:1024C0001885C2F80C8584F8393023680CBF0825BC
:1024D0000425C3B994F838306BB1204B05F1804521
:1024E00005F524350022C3F8002101232B60BDE847
:1024F000F843FFF763BF0120FFF78EFF184B9842A8
:10250000EBD1BDE8F883A3682BB1E660C4F8148072
:10251000E7611448F5E7114AA660C4F81080A76186
:1025200084F83090C2F800310123C2F8043394F8E3
:10253000382002F0FF0012B9FFF76EFFE9E705F15E
:10254000804505F524352B60E3E70748D9E700BF50
:1025500030070120810800000A00AD0B0090024006
:102560000700AD0B0000AD0B0B00AD0B30B5194DE6
:102570000FCD8DB006AC0FC495E8030084E80300CE
:102580001549D1F82435DBB20093D1F82835DBB2F8
:102590000193D1F83035DBB20293D1F83435DBB298
:1025A0000393D1F83835DBB20493D1F83C3506A853
:1025B000DBB20593FFF7D4FE0023C1F800310123FD
:1025C0000B60D1F80031002BFBD06846FFF7C8FE46
:1025D0000DB030BDC80C00000090024090F82930CA
:1025E00070B5044613B190F82A206ABB6068FF28D2
:1025F0006DD0A268FF2A6AD0E268FF2A67D02269FC
:10260000FF2A64D0D3B90321FFF702FEA06803219B
:10261000FFF7FEFDE0680321FFF7FAFD20690321C3
:10262000FFF7F6FD6069FF2802D00321FFF7F0FDF8
:10263000A069FF2802D00321FFF7EAFD94F82A30B1
:1026400013B9201DFFF78CFE224E636A224D73637F
:1026500094F8293086F83A300123C5F80833FFF79B
:1026600085FF2368C5F84035A37F617F227F9B01EA
:1026700043EAC1031343E27F43EAC213C5F844357A
:10268000D5F8002694F8203022F07F4222F0FF0295
:10269000134394F8212043EA026394F8222043EA8A
:1026A000426394F8232043EA0273C5F80036336886
:1026B0005BB194F82830094A5B01DBB282F8293318
:1026C0004FF40073C2F884315360054870BD05486B
:1026D000FCE700BF300701200090024000E100E06D
:1026E0000000AD0B0400AD0BF8B50F4616460546CD
:1026F00020B910484FF4DB71FFF7A2FC0E4C94F8A0
:102700003030A3B9C4E900764DB90023C4E90233DF
:1027100001220A4884F8302084F83830F8BD284671
:10272000FFF75CFF054B9842EFD00548F6E70548F8
:10273000F4E700BF81080000300701200000AD0B66
:102740000400AD0B0C00AD0B2DE9F047DFF8C4A081
:102750009AF8303005468946164623B928484FF482
:102760000171FFF76DFC9AF83000012846D19AF804
:102770003830DFF8948063B3224F0123C7F8083361
:10278000FFF7F4FE6C78B9F1000F29D1AA784FF069
:1027900000098AF839902302C7F8009143EA02330E
:1027A0002A781343EA7843EA42332A7943EA8233A8
:1027B0006A7943EAC233C7F83436FFF7FFFD404574
:1027C00013D12B794BB90E4840F23621FFF738FC74
:1027D00003E0FFF721FE4045CED10B48BDE8F0876E
:1027E00049462046FFF77CFDD0E7C7F800911EB1AF
:1027F00068783146FFF746FD0448EFE70448EDE707
:1028000081080000009002400700AD0B0000AD0BF6
:102810000B00AD0B300701200323FFF71BBE30B5C3
:102820000546900840380124844014EA010009D08C
:10283000A85838B10021A950AA5813B11A682243E8
:102840001A60012030BD2DE9F341002304460D46F6
:102850000193904601AB4FF4A672FFF7E0FF4FF4EF
:10286000827229462046FFF7DAFF4FF48C72074642
:1028700029462046FFF7D3FF064630B1B8F1000FD6
:102880001DD017B1D4F83C353E4601AB4FF48872E9
:1028900029462046FFF7C3FF30B1B8F1000F03D03F
:1028A00016B90FB1D4F83C3501AB4FF490722946FC
:1028B0002046FFF7B4FF019802B0BDE8F08146461C
:1028C000E3E7000003685A0910B504461CD0012A4A
:1028D00006D14FF6FF7203F01F03DA40D30704D48A
:1028E0000D484FF46C71FFF7ABFB236803F01F0238
:1028F0005B0922600BD0012B0CD0074840F2B931A4
:10290000FFF79EFB002010BD4FF0FF32E3E74FF0D2
:10291000A040F8E70148F6E74A080000000300502D
:1029200007B5019001A8FFF7CDFF019A012393405D
:10293000C0F8083503B05DF804FB07B5019001A8A5
:10294000FFF7C0FF019A01239340C0F80C3503B094
:102950005DF804FBF7B51746421C1C460646089B6B
:102960000D4618D0012902D1BBB1FFF7D9FF01A84C
:102970000196FFF7A7FF019B00EB83002402D0F82C
:102980000027074B44EA87042C4313401C4344EAC6
:102990004504C0F8004703B0F0BDFFF7CEFFE6E7FF
:1029A000F0F8FCFFF8B51A4F012304460D464361C9
:1029B00064261F43002202212046FFF744FF18B976
:1029C0004020B847013EF5D14FF080530022D3F8A4
:1029D00030116A77082918D1D3F83431ABB94FF0E8
:1029E000FF32D4F80805D4F80C15C4F80035C4F843
:1029F0000825C4F80C250922C4F80025C4F80035C0
:102A0000C4F80805C4F80C15F8BDC4F80025FBE7A8
:102A1000E00C0000104B98421BD011D80F4B98428D
:102A200017D008D80E4A0F4B984218BF90420CBFDF
:102A30000120002070470C4BC31A58425841704780
:102A40000A4B984205D002D8094A0A4BECE70A4BD8
:102A5000F2E70120704700BF80841E0020A107001C
:102A600090D0030048E8010040420F000024F40029
:102A700000127A0000093D000048E8012DE9F34703
:102A80004B69794A90F80490934207460C4600F04F
:102A9000D08000F2B880754A934200F0CD8000F2F9
:102AA000AB80734A934200F0CA80724A934200F0AE
:102AB000C98071484FF4BC71FFF7C2FA4FF08045EE
:102AC000DFF8D081E67E242202FB0983997F66F33A
:102AD000000199773B79217C02FB03839A7F61F3A4
:102AE00041029A775EBB6269644B9A420CBF4FF019
:102AF000030A4FF0000A237E012B94BF0023012319
:102B000000932068534632460121FFF723FF0096C9
:102B10006068534632460121FFF71CFF0096A27EF3
:102B2000A06853463146FFF715FF237C83F001036D
:102B30000093E068534632460121FFF70BFF242340
:102B400003FB0983E2681A62217C9A7F267F61F386
:102B500041029A7794F812C0217E94F819E03B68FC
:102B600096B9D4E901902268C3F80825C3F80C95FA
:102B7000C3F810054FF0FF30C3F86C05C3F8140517
:102B8000C3F86865C3F86465BEF1000218BF01228E
:102B90000229C3F8C0C5C3F8245559D003295AD017
:102BA000012901D142F00202C3F854250222C3F8E0
:102BB00060253A7924214A4358F80220CAB1627C40
:102BC00043F307335201002BD2B247DB03F16041DC
:102BD00001F5614181F8002303F01F015B099B00AF
:102BE00003F1604303F5614301228A40C3F8802169
:102BF0001A6002B0BDE8F087214A93427FF459AFD2
:102C00004FF080555CE71F4A93421ED00AD81E4AF7
:102C100093423FF453AF1D4A93427FF44AAF4FF0C3
:102C200000454DE7154A93427FF443AF4FF0A0555E
:102C300046E74FF0005543E74FF0006540E74FF09F
:102C400000753DE74FF080653AE74FF0206537E7C4
:102C500042F00402A8E742F00602A5E70C4903F09F
:102C60000F03CA54C5E700BF80841E0020A10700DF
:102C700048E8010090D00300C10800000048E801C6
:102C800040420F000024F40000093D0000127A00C9
:102C900014ED00E06C0701202DE9F843064691464B
:102CA00098460D4621B9154840F24B21FFF7C8F967
:102CB0003779134C242303FB07431B7FD3B91DB182
:102CC0006869FFF7A7FEB8B124217943631844F877
:102CD0000190C3F804801DB129463046FFF7CEFEAF
:102CE000242303FB0744002363770648012323774B
:102CF000BDE8F8830448FBE70448F9E7C108000091
:102D00006C0701200000AD0B0C00AD0B0400AD0BF7
:102D10002DE9F04F6D4F90F80480242303FB0873D6
:102D200085B01B7F82460D46164623B9684840F29F
:102D30009131FFF785F92B6833B96B6823B164488B
:102D400040F29231FFF77CF9AB68002B55D1EB686C
:102D5000002B4DD1EB88002B52D116F008090AD078
:102D6000242303FB08731B6A013304D0584840F244
:102D70009731FFF765F9242303FB08F3FA18517F15
:102D8000002940F0A180FB5823B116F0140F04BFB6
:102D90000123537795E80F00242404FB087404F101
:102DA0000C0C8CE80F00206A431C04D0A37F990709
:102DB0002CD5FFF7B5FDD5F800B0BBF1000F04D05E
:102DC0000BF06043B3F1005F09D1D5F808E0BEF124
:102DD000000F1ED00EF06043B3F1005F19D0242322
:102DE00003FB087300223B485A7705B0BDE8F08F1B
:102DF000374840F29331FFF723F9EB89002BA9D034
:102E000033484FF46571FFF71BF9A6E7FFF795FD0F
:102E1000D1E7DAF8004016F0010318BF0123C4F827
:102E2000503516F0020318BF0123C4F8403595E869
:102E30000F00C4F844B58DE80F00C4F84815C4F875
:102E400034E5C4F838350023C4F81831D4F8183103
:102E50000723C4F80035242303FB08F3EC46FB5892
:102E6000B9F1000F21D10122226103BBD4F818313E
:102E7000002BFBD0624640212046FFF7E4FC2423D0
:102E800003FB0873186A421C04D09B7F9B0718D56C
:102E9000FFF753FDB9F1000F05D1242101FB0871A3
:102EA0002046FFF77FFD0C489FE7002BE7D016F088
:102EB000040F4FF0400314BFC4F80833C4F80433C0
:102EC000F1E7FFF72DFDE5E704488EE76C070120E9
:102ED000C10800000A00AD0B0000AD0B0B00AD0BEC
:102EE000CA7B036810B52AB9D1E90042C3F8084586
:102EF000C3F80C258A68C3F8242502793C20424394
:102F000011488258CAB10A7B43F307335201002BA0
:102F1000D2B213DB03F1604101F5614181F8002376
:102F200003F01F015B099B0003F1604303F561435C
:102F300001228A40C3F880211A6010BD034903F0C2
:102F40000F03CA54F9E700BF9007012014ED00E019
:102F5000D0F8043130B52BB10023C0F80431D0F8DB
:102F60000431012391F82F2022B30022C0F824213C
:102F7000D0F82441C0F81C21D0F81C41C0F8082129
:102F8000D0F80821002B79D0002281F82D2091F86B
:102F90002F20002A37D14D6B8C6AA5421FBF052315
:102FA000C0F80025C0F80035134683F0010381F80E
:102FB0002F3028E0D0F8244114B1C0F824210EE0CD
:102FC000D0F81C216AB3C0F81C41D0F81C214A6B10
:102FD000D0F8245101324A6345B1C0F82441D0F8F9
:102FE00024210122426181F82F20CBE78C6AA24282
:102FF00004D24C6AA25CC0F81C25C3E791F82C20CF
:103000001AB10123C361002030BD0A6A12F0400FDB
:103010004FF0010203D0C26181F82D20F3E7426135
:10302000B0E7D0F80841002CACD0C0F80821D0F8A7
:103030000841D0F82441002CBFD14A6B8C6AA242CF
:10304000A0D24C6AD0F81855A5544A6B8C6A01324C
:10305000651EAA424A6308D10A6A540602D40222B3
:10306000C0F80022012202628CE7A242FAD10A6A69
:10307000520687D5022381F82D30C4E70120C3E72B
:103080002DE9F0415FEA50180E4617461C4600F045
:103090001F051DD0B8F1010F04D14FF6FF73EB40AF
:1030A000DB0704D416484FF46C71FEF7C9FFB8F182
:1030B000000F10D0B8F1010F1FD0114840F2B93104
:1030C000FEF7BEFF05F5E075002353F82530FFDE5F
:1030D0004FF0FF33E3E74FF0A04303EB8503094ACA
:1030E000D3F80017240244EA87040A4044EA46045D
:1030F0001443C3F80047BDE8F081034BEDE700BF80
:103100004A080000F0F8FCFF0003005013B53A4BEA
:1031100001930023C0F80431D0F80421C0F8243111
:10312000D0F82421C0F81C31D0F81C21C0F8083197
:10313000D0F80821C0F800324B6381F82F3001230A
:10314000036291F82D209A4218BF83608B6A04466F
:1031500073B14B6A1B78C0F81C350B6803B340F29F
:1031600086238B608B682548C4F8043302B010BDF9
:1031700091F82C3013B10123C361EEE70B6A13F011
:10318000400F4FF0010316BFC361436181F82D303A
:10319000E3E72046FFF7DCFE28B1019B013B0193EA
:1031A000019B002BF5DC91F82F305BB91348019B94
:1031B000002BDBDC0023C4F8003505231048C4F8DD
:1031C0000035D3E7D4F8C434C4F8C4348BB10C4A06
:1031D0000C4813F0010F08BF104613F0020F02F560
:1031E000803218BF104613F0040F074B18BF184663
:1031F000DDE70348DBE700BFA08601000000AD0B60
:103200000100AD0B0000AE0B0200AE0B13B5334B4B
:1032100001930023C0F80431D0F80421C0F8243110
:10322000D0F82421C0F81C31D0F81C21C0F8083196
:10323000D0F808214B6381F82F308B6A012B0446AC
:1032400017D10B6A5B0614D40223C4F800320123A1
:10325000236291F82D20022A18BF23600B688BB1DE
:1032600040F286238B608B681D48C4F8043302B09B
:1032700010BD0123E9E72046FFF76AFE28B1019B54
:10328000013B0193019B002BF5DC91F82F305BB9DA
:103290001348019B002BEADC0023C4F8003505230A
:1032A0001048C4F80035E2E7D4F8C434C4F8C43494
:1032B0008BB10C4A0C4813F0010F08BF104613F0F5
:1032C000020F02F5803218BF104613F0040F074BAF
:1032D00018BF1846DDE70348DBE700BFA086010002
:1032E0000000AD0B0100AD0B0000AE0B0200AE0BF9
:1032F0002DE9F047074691469A460C4619B92248EF
:10330000B521FEF79DFE97F80480204D3C2000FB80
:1033100008F0291891F82E609EBB8E6045F8009049
:10332000C1F804A081F82D6081F8316081F8306027
:10333000F4B1637B81F83830A37B81F839309BB9D5
:10334000D4E900239A4203D10F48E821FEF778FE22
:103350002068062303220021FFF792FE60680623FF
:1033600003220021FFF78CFE21463846FFF7B8FD07
:103370003C2303FB08550648012385F82E30BDE8A1
:10338000F0870448FBE700BF010900009007012017
:103390000000AD0B0C00AD0B70B50D4C06793C2355
:1033A00003FB0643054693F82E30012B04D0094851
:1033B00040F23111FEF744FE2B680522C3F80025C8
:1033C0003C2303FB0644022384F82E3070BD00BF6B
:1033D000900701200109000070B5124C06793C23CA
:1033E00003FB0643054693F82E3023B90E484FF4ED
:1033F0009F71FEF725FE2B680C4AC3F80823D3F80B
:10340000002222F00302C3F800220022C3F80025A4
:103410003C2303FB0644012384F82E3084F830203B
:1034200070BD00BF90070120010900008642040022
:103430002DE9F8434D4F06793C2303FB06730546FF
:1034400093F82E30022B0C46904604D0484840F2A8
:10345000AE21FEF7F5FDE36833B9636823B1444854
:1034600040F2AF21FEF7ECFD236933B9A36823B125
:103470003F484FF42C71FEF7E3FD4FF03C0909FB88
:1034800006F957F80930A3B92378022B08D023781E
:10349000032B0ED136484FF42D71FEF7D1FD08E015
:1034A000334840F2B321FEF7CBFD57F80930002B2B
:1034B000EDD03C2303FB0673D5F8009093F82D3034
:1034C000012B04D12378012B06D12A4811E0022BCD
:1034D00002D12378012BF8D13C25274BC9F80833BA
:1034E00005FB067595F830302BB1AB682348C9F859
:1034F0000433BDE8F883C8F3800383F00103DBB233
:10350000A64685F83030BEE80F0005F10C0CACE89B
:103510000F00DEF80030CCF800306368AB62E3687F
:10352000C5F820806B626378C9F888352378012B51
:1035300017D09BB9C8F340183C2303FB06732946F8
:10354000484683F82C80FFF7E1FD3C235E43BA191F
:10355000BB59002BCDD182F83030CAE74FF00108BB
:10356000EAE729464846FFF751FEEEE790070120BB
:10357000010900000500AD0B864204000B00AD0BF5
:103580000F49104A104B00F010F81049104A114B27
:1035900000F00BF81049114A114B00F006F81149E0
:1035A000114A124B00F001F806E0521A03DD043A0A
:1035B00098588850FBDC704700F03AF8FDF7E0FBC4
:1035C000000100200C060020983A00000C060020A4
:1035D0000C060020A43F00000C0600200C06002072
:1035E000A43F00000C0600200C060020A43F0000B1
:1035F000FEE7FEE7FEE7FEE7FEE7FEE7FEE7FEE7A3
:10360000FEE7FEE74FF08053D3F83021082A03BFCE
:10361000D3F83401B0FA80F0400900207047000070
:10362000024AD2F80034002BFBD0704700E0014082
:1036300008B54FF08053D3F83021082A4ED14FF00F
:1036400080420021C2F80C11C2F81011C2F83815DE
:1036500002F54042D3F80414C2F82015D3F8081438
:10366000C2F82415D3F80C14C2F82815D3F8101496
:10367000C2F82C15D3F81414C2F83015D3F8181466
:10368000C2F83415D3F81C14C2F84015D3F820142E
:10369000C2F84415D3F82414C2F84815D3F82814F6
:1036A000C2F84C15D3F82C14C2F85015D3F83014C6
:1036B000C2F85415D3F83414C2F86015D3F838148E
:1036C000C2F86415D3F83C14C2F86815D3F8401456
:1036D000C2F86C15D3F84434C2F87035FFF792FF86
:1036E00018B13B4B3B4AC3F88C26FFF78BFF18B150
:1036F000394BFB22C3F81825FFF784FF58B14FF070
:1037000080424FF08051D2F8E43ED1F8581261F374
:103710000303C2F8E43EFFF775FF20B12F4B4FF4CF
:103720000072C3F840264FF08053D3F83031082B95
:1037300009D14FF08043D3F80024D20744BF6FF083
:103740000102C3F80024264AD2F8883043F47003FB
:10375000C2F88830BFF34F8FBFF36F8F4FF08053A5
:10376000D3F83021082A0BD1D3F83431042B81BF90
:103770004FF01023D3F808224FF08043C3F85825A8
:103780004FF01021D1F80C32DB071FD5154801236B
:10379000C0F80435FFF744FFD1F80C3223F00103E1
:1037A000C1F80C32FFF73CFF0023C0F80435FFF7E7
:1037B00037FFBFF34F8F0A490B4BCA6802F4E06230
:1037C0001343CB60BFF34F8F00BFFDE708BD00BFC1
:1037D000005000404881030000F00040009002408B
:1037E00000ED00E000E001400400FA05002301467E
:1037F0001A46184600F062B808B5064B044613B1E5
:10380000002100F0B5F8044B1B6803B1984720462F
:10381000FEF750FB71390000CC070120024403463B
:10382000934200D1704703F8011BF9E770B50D4BC7
:103830000D4D5B1B9C100026A64209D100F0F6F846
:103840000A4D0B4B5B1B9C100026A64205D170BD98
:1038500055F8043B98470136EEE755F8043B984786
:103860000136F2E7383A0000383A0000383A0000F2
:103870003C3A000038B5074D074C641BA4101CB936
:10388000BDE8384000F0DAB8013C55F824309847DC
:10389000F5E700BF483A00004C3A00007047704717
:1038A0000A44914200F1FF3300D1704710B511F87E
:1038B000014B03F8014F9142F9D110BD2DE9F047BA
:1038C000264E07463068924688469946FFF7E6FF3F
:1038D000234A15683DB9234B1360234A12B112687D
:1038E000C3F888201F4D6C681F2C06DD3068FFF779
:1038F000D6FF4FF0FF30BDE8F0872FB3D5F8880032
:1039000068B91A4B002BF1D04FF48470AFF30080EC
:103910000028EBD00023C0E94033C5F888006C686C
:1039200040F824A00122D0F80031A24000EB84012D
:103930001343C0F80031022FC1F8809002BFD0F8C5
:1039400004311343C0F80431631C023430686B60E7
:1039500045F82480FFF7A3FF0020CCE708060020ED
:1039600060080120D40701200000000000000000D2
:103970002DE9F74FDFF8AC800190D8F80000DFF8B0
:10398000A8900F46FFF78AFFD9F8005035B9D8F84C
:10399000000003B0BDE8F04FFFF781BF6C68D5F8B9
:1039A00088B0661E013405EB84040BF1800A002EFA
:1039B000EDDB4FB1BBF1000F02D1013E043CF6E755
:1039C0005AF82620BA42F8D1696822680139B14212
:1039D00016BF00236E602360002AEED06B68009350
:1039E000BBF1000F07D0DBF80011012303FA06FC3E
:1039F0001CEA010F09D190476968009BD9F80020A3
:103A00009942C1D19542D8D0BEE7DBF804015BF8FA
:103A100026101CEA000F02D101989047ECE70846F7
:103A20009047E9E70806002060080120F8B500BFCC
:103A3000F8BC08BC9E467047590D0000F8B500BFA1
:103A4000F8BC08BC9E467047310D00000000000025
:103A5000983A00000001002043010000A43F00004C
:103A60000C06002000000000A43F00000C0600200F
:103A700000000000A43F00000C0600200000000031
:103A80000C060020964000006408012000000000A1
:083A90006408012000000000A1
:103A980000F00240000000000000000000000000EC
:103AA800000000040000000000000000000000000A
:103AB80000040000000000000000000000000000FA
:103AC800000000000000000000000080000420004A
:103AD80000000000000000000000010E10000000BF
:103AE8000000000000000000803F0000000000C04F
:103AF800006000300000FCF1073E000000C00060DC
:103B080000300000FCE0077F000000C000600030CB
:103B180000000C008663000000C000600030000058
:103B28000C008601F001F8C07C603E30E0030C0018
:103B38008601FC07FEC3FFE1FF30F80F4E108E032D
:103B48000E0E07C783E3C1311C1C46100C0F060C70
:103B580003C601E380310C184310183E039881CF47
:103B68000066003306BE030038780398F9CF006674
:103B78000033E63F431018600398FFC00066003327
:103B8800FE03860F0CC003980FC0006600333E008A
:103B98000E000EC0039801CC0066003306300C00FE
:103BA800C6C0070C038601C380310C180C00C6C0C0
:103BB8000F0E8F8783C3C1311C1C0C008661FF0761
:103BC800FE03FF81FF70F80FFCE0877FF301F80028
:103BD8007C003E60E003FCF1071E030000000000CB
:103BE80000000000803F000003000000000000000B
:103BF8000000010E1000030000000000000000801B
:103C08000004200003000000000000000000000085
:103C18000000000000000000000000000004000098
:103C28000000000000000000000000040000000088
:103C380000E0FF0F000000000000F8FF7F00000018
:103C4800000000FEFFFF030000000080FFFFFF1FD1
:103C580000000000E01F00F87F00000000F80F00DF
:103C6800C0FF00000000FE030000FE010000807F8E
:103C7800000000F0030000C01F000000C0070000A3
:103C8800C007000000800F0000E003000000001FD4
:103C98000000E001000000003E0000F0000000000D
:103CA800007C0000F00000000000780000780000B0
:103CB800000000F00000780000000000F000003C68
:103CC8003000000000E001003C7000000000E0014E
:103CD800001E7000700000C003001EF00078000095
:103CE800C003001EE0007C00008007000FE0013EDA
:103CF80000008007000FC0011F00008007000FC0F0
:103D0800830F00008007000FC0C3070000800780F2
:103D180007E0C303000080078007F0C103000080AC
:103D2800078007F880030000800780077C80070071
:103D3800008007C0033E000700008007C0031E0084
:103D48000F00008007E0030E000E00008007F0015E
:103D580000000E00008007F80000000C000080073B
:103D68007800C07100000080077C00E0790018002E
:103D780080073C00F0FF003C0080073C00F8FF0093
:103D88003C0080073E00F8FF011E0080071E003837
:103D9800CF011E0080071E0000C7010F00C0031FCF
:103DA800000000000F00C0030F000000800700E0C3
:103DB800010F000000800700E0010F000000C003B1
:103DC80000F0000F000000C00300F0000F0000002A
:103DD800C0030078000F600000C0030078000FF8EF
:103DE8000000C0033C3C000FFE0100C0033F3C0044
:103DF8009FFF0300C0C33F1E00FFFF0700C0E30F83
:103E08001E00FE870F00C0FF031E00F8031F00C03E
:103E1800FF001E0060003E00807F001E000000FCC6
:103E280000003E001E000000F80F0018001E0000F1
:103E380000F07F0000001E000000E0FF0700001EE9
:103E480000000080FF3F00001E00000000F8FF0394
:103E5800003C00000000C0FF0F003C000000000014
:103E6800FC3F00780000000000E0FF00F8000000C0
:103E7800000000FE03F0010000000000F01FE00356
:103E88000000000000C07FC007000000000000FF25
:103E9800FF0F000000000000FCFF1F0000000000F2
:103EA80000F0FF1F000000000000C0FF0F0000002E
:103EB8000000000000000000000000000002800078
:103EC80000008140000000000000000280000000A7
:103ED80081400008000000000002800000008140CE
:103EE8000000000000000002800000008140000087
:103EF80000000000001E8E3CD01C8F471C88070065
:103F0800000000229144B022914822480800000095
:103F180000229F44103E91483E48080000000022BD
:103F280081441002914802480800000000228144A0
:103F38001202914802490800000000229E3C123CEF
:103F48008F473C89070000000000000400000000C3
:103F58000000000000000000000400000000000055
:103F68000000000000000004000000000000000045
:103F780000000000FFFFFFFF06000000080000002F
:103F8800FFFFFFFFFFFFFFFF0007FF0000093D00E5
:0C3F98000000000000000000D007012025
:020000042000DA
:1000000000000000000000000000000000000000F0
:1000100000000000000000000000000000000000E0
:1000200000000000000000000000000000000000D0
:1000300000000000000000000000000000000000C0
:1000400000000000000000000000000000000000B0
:1000500000000000000000000000000000000000A0
:100060000000000000000000000000000000000090
:100070000000000000000000000000000000000080
:100080000000000000000000000000000000000070
:100090000000000000000000000000000000000060
:1000A0000000000000000000000000000000000050
:1000B0000000000000000000000000000000000040
:1000C0000000000000000000000000000000000030
:1000D0000000000000000000000000000000000020
:1000E0000000000000000000000000000000000010
:1000F0000000000000000000000000000000000000
:040000030000358143
:00000001FF
