:020000040800F2
:1000000070210020B5010008F9010008A51A0008B8
:10001000F9010008F9010008F901000800000000DA
:10002000000000000000000000000000F9010008CE
:10003000F901000800000000F9010008F9010008BA
:10004000F9010008F9010008F9010008F9010008A8
:10005000F9010008F9010008F9010008F901000898
:10006000F9010008F9010008F9010008F901000888
:10007000F9010008F9010008F9010008F901000878
:10008000F9010008F9010008F9010008F901000868
:10009000F9010008F9010008F9010008F901000858
:1000A000F9010008F9010008F9010008F901000848
:1000B000F9010008F9010008F9010008D11500084C
:1000C000DD150008E9150008F5150008F90100081C
:1000D000F9010008F9010008F9010008F901000818
:1000E000F9010008F9010008F9010008F901000808
:1000F000F9010008F9010008F9010008F9010008F8
:10010000F9010008F9010008F9010008F9010008E7
:10011000F9010008F9010008F9010008F9010008D7
:10012000F9010008F9010008F9010008F9010008C7
:10013000F9010008F9010008F9010008F9010008B7
:10014000F9010008F9010008F9010008F9010008A7
:10015000F9010008F9010008F9010008F901000897
:10016000F9010008F9010008F9010008F901000887
:10017000F9010008F9010008F9010008F901000877
:04018000F901000879
:100184008BB8185876342E332D616C706861322D1B
:1001940033342D6738663564383732000000000088
:0F01A40000000000386635643837320000000173
:1001B400002103E00A4B5B584350043109480A4BC1
:1001C40042189A42F6D3094A02E0002342F8043B5B
:1001D400074B9A42F9D301F0DBFF01F093FC70471F
:1001E400E83500080000002014000020140000205E
:1001F4006C010020FEE7000030B501208BB002F056
:1002040001FC002401902546E0B200F049FC01AA5B
:1002140008B9105519E0135D042B10DD164800F0E1
:1002240035FE02A92022019801F07DFF02A800F00A
:100234002DFE0120002102F0D5FB00201AE001333D
:10024400DBB2052B135528BF01250134042CDBD167
:10025400019C54B1094800F019FE204602A920224D
:1002640001F061FF02A800F011FE0120214602F016
:10027400B9FB28460BB030BD082E0008342E000808
:1002840008B500F017FB80F00100C0B208BD000003
:1002940008B54FF48061034802F0A1F9003018BF9B
:1002A400012008BD001802402DE9F0434A4C89B0F2
:1002B400204600F005FE20460D21052202F09AF9A1
:1002C40020460E21052208AE02F094F905222046AC
:1002D4000C2102F08FF94FF4005346F81C3D002521
:1002E40001274FF00209204631468DF80A508DF857
:1002F4000B508DF808908DF8097002F02FF94FF427
:10030400804320463146019302F028F94FF480538C
:100314002046314601934FF4007802F01FF920463D
:1003240031468DF808508DF80B70CDF8048002F03A
:1003340015F94FF480632046314601938DF8085037
:100344008DF80B5002F00AF94FF4807320463146C1
:1003540001938DF808708DF80B5002F0FFF84FF4FC
:1003640000432046314601938DF80A708DF80B50F6
:1003740002F0F4F839464FF4001002F0D7FAA4F56D
:100384004444164B164E1E60204602F04BFB03A855
:1003940002F0BFFB4FF4827339463046ADF80E309D
:1003A400ADF80C50ADF81050ADF81290ADF81470D3
:1003B400ADF8168001F024F903A9ADF81800204621
:1003C400ADF81A5002F086FB2046394602F0ADFB28
:1003D40009B0BDE8F08300BF0018024014000020FB
:1003E4000024F40008B5022001F087FE012000F08B
:1003F40045FB022001F081FE0120BDE8084000F029
:100404002BBB000010B504460548022102F09EFBF8
:100414000028F9D021460248BDE8104002F094BB00
:100424000054014038B5012204460D4629484FF4D2
:10043400807102F0DAF8012001F05FFE25484FF4E4
:100444000041002202F0D1F84FF4807100222148CB
:1004540002F0CBF8012001F050FE4FF400411D489A
:10046400012202F0C2F8012001F047FE19484FF4BE
:10047400007102F0B4F818B11748184A6A210AE06A
:1004840014484FF4004102F0AAF808B1254404E0EE
:100494001148134A6B2101F0A3FDAC4204D014F8B7
:1004A400010BFFF7AFFFF8E70A484FF48071012210
:1004B40002F09BF808240020FFF7A4FF013CFAD1C6
:1004C4004FF40071034802F08AF8003018BF01208D
:1004D40038BD00BF001802404D2E0008572E0008FA
:1004E400722E000810B504460B4802F02AFB0A4895
:1004F400022102F02BFB0028F9D00748214602F024
:1005040023FB0548012102F021FB0028F9D0024811
:1005140002F017FBC0B210BD0054014010B54FF4F7
:10052400807104460022054802F05FF8642001F05F
:10053400DFFD2046BDE81040FFF764BF001802400D
:1005440008B50748802102F001FB0028F9D10548CD
:100554004FF480710122BDE8084002F046B800BFA4
:10056400005401400018024010B540F2F514FFF7A2
:100574008FFE50B1013C04D1054800F087FC2046B1
:1005840010BD642001F0B4FDF1E7012010BD00BFEF
:100594008F2E000810B5224C638822884FF6FF7115
:1005A400DB438A429BB20BD09A4209D11D4800F02A
:1005B4006DFC1D482188FFF735FF20B1012010BDD7
:1005C4001A4800F063FC1A4800F060FC19484FF424
:1005D4008071012202F009F84FF40041002215480D
:1005E40002F003F8012001F088FD12484FF40041A5
:1005F400012201F0FAFF40F2E9340E484FF4007191
:1006040001F0EDFF0028D9D1013C04D10A4800F0E3
:100614003DFC204610BD642001F06AFDEDE700BFFB
:1006240000000F60B22E000804000F60DE2E0008E8
:10063400FA2E000800180240102F000810B50446D6
:100644000420FFF76BFF2046FFF7DCFEBDE81040F7
:10065400FFF776BF10B504460120FFF75FFFE0B255
:10066400FFF7D0FEC4F30720FFF7CCFEC4F3074026
:10067400FFF7C8FE200EFFF7C5FEBDE81040FFF7E8
:100684005FBF000010B5FFF70FFEFFF783FF08B947
:10069400224830E0224800F0DDFB4FF48071002254
:1006A400204801F0A2FF642001F022FD0020FFF7A2
:1006B40019FF4FF48071012204461A4801F095FF96
:1006C400204600F0F1FB184800F0E0FBFFF78AFE3B
:1006D40000240120FFF7B2FFFFF746FF78B10320A3
:1006E400FFF71CFFFFF72CFF104800F0B3FB204678
:1006F40000F0DAFB0E48BDE8104000F0C7BB01343F
:10070400FFF748FF152CE4D10A4800F0BFFB022094
:10071400FFF704FFBDE81040FFF712BF2C2F0008BD
:100724005B2F000800180240843500086A2F000877
:10073400852F00088F2F000808B55D235843094B07
:100744004A1C00EB52001A78B0FBF1F0C0B28242AE
:1007540007D01870FFF77EFF0220BDE80840FFF7BE
:100764006DBF08BD0000002008B5FFF773FF03202C
:10077400BDE80840FFF762BF08B50220FFF7CEFED0
:10078400BDE80840FFF7DCBE01F1C04102F054BAF5
:1007940070B543489AB000F093FB424800F090FBD8
:1007A400414800F08DFB414B93E8030001AD85E81F
:1007B40003003C48294601F0D1FE3A4804210122B5
:1007C40001F013FF00240223029435488DF8083009
:1007D400072103230C228DF80930019401F00AFF4C
:1007E40080232F480193294601F0B8FE022C04D03F
:1007F4002C48A1B20C2201F0FDFE0134102CF5D1DD
:100804004FF6FB7327480193294601F0A7FE022601
:100814003146013624480C22B6B201F0EBFE102E0C
:10082400F6D14FF6FC7329461F48019301F096FE5A
:10083400042100221B481E4D01F0D7FE0A2001F0BE
:1008440057FC01220421174801F0CFFE1E2001F0BD
:100854004FFC0120014602F051F80FCD03AC0FC448
:1008640095E8070084E80700402200210AA802F066
:10087400EEF902230B9308230C934FF48053129345
:100884004FF4005313930AA803AB18930D9601F089
:10089400EBFD0020012101F051FE1AB070BD00BF34
:1008A40000040240000C024000100240642C0008C6
:1008B4006C2C00080D4B98221A80A3F68A231B88FF
:1008C400DBB2512B0CD10A4B1B88DBB2522B07D164
:1008D400084B1888C0B2A0F159035842584100E0AF
:1008E4000020024BF0221A80704700BFAA0A006061
:1008F400220000602400006002460B4604205021C0
:1009040000F045BE02460B460420502100F054BEC0
:10091400032873B50E4603D0042804D001F076FBF7
:1009240014241C4D01E01C4D162420460DF1070132
:10093400FFF7E2FF08B900202AE02B78AEB10BB133
:10094400013323E09DF8071021F0060141F0020174
:1009540020468DF80710FFF7D5FF0028EBD00124BF
:1009640003202C7001F0C9FB11E05AB2012A0CDCFF
:100974009DF80710204601F0F9018DF80710FFF7E4
:10098400C1FF0028D7D02E7001E0013B2B7001205D
:1009940002B070BD180000201900002073B525486E
:1009A40000F08EFA02254FF410730024012621482A
:1009B400009369468DF804508DF805508DF8066053
:1009C4008DF8074001F0CAFD1A480621042201F0FF
:1009D40011FE04220921174801F00CFE154800F00D
:1009E40087FA154800F06CFA42F20C036946124883
:1009F40000938DF805508DF804608DF806408DF84D
:100A0400074001F0ABFD0C4800F072FA042000F03E
:100A140057FD20466946FFF76FFF9DF80050B54229
:100A240005D103202946FFF773FF284600E020463E
:100A340002B070BD000402400014024010B5044628
:100A4400042000F03DFD21460420FFF761FF04204F
:100A5400BDE8104000F066BD38B5074C0546204699
:100A640000F02EFA20462A46042101F0BEFD20465D
:100A7400BDE8384000F03CBA0014024038B5074CD9
:100A84000546204600F01CFA20462A46082101F0BB
:100A9400ACFD2046BDE8384000F02ABA00140240FC
:100AA40038B5094C04EB00146568284600F008FAD0
:100AB4002189284601F093FD0446284600F018FADF
:100AC400B4FA84F0400938BD882C000838B50024F5
:100AD4002546E0B2FFF7E4FFA04001340543042CAF
:100AE400EDB2F6D1284638BDF7B54FF48040012168
:100AF400134C01F01BFF04F140076568284600F021
:100B0400DFF9684601F062FD02238DF80530A37B0E
:100B14008DF807302846A3680093694600268DF8AF
:100B24000460103401F01AFD284600F0E1F9BC42DB
:100B3400E3D14FF48040314601F0F8FE03B0F0BD3C
:100B4400882C000808B5054B1B781BB904483221D2
:100B540001F052FABDE8084001F0C6BB1A000020BB
:100B6400C22F0008124B1B7870B505460C461BB902
:100B74001048382101F040FA032906D98E0831467D
:100B8400FFF7E0FFB6003544A41B6CB12B462C44A0
:100B94000020A34204D013F8012B42EA0020F8E716
:100BA400BDE8704001F09ABBBDE8704001F0AABBFB
:100BB4001A000020C22F0008024B1A780AB9012239
:100BC4001A7070471A00002008B5084B1A781AB931
:100BD40007482B2101F010FA01214FF4805059707D
:100BE40001F080FEBDE8084001F072BB1A0000204D
:100BF400C22F000808B5074B1A781AB906485121C4
:100C040001F0FAF9002159704FF48050BDE8084012
:100C140001F068BE1A000020C22F000870B50C460F
:100C24000546A608FFF7D0FF28463146FFF78AFF9E
:100C340004F0030105EB8600FFF794FF0446FFF779
:100C4400D9FF204670BD70B5A0B00D460646FFF72B
:100C5400BBFF2C467119802CA1EB0401684608D90E
:100C64008022FFF791FD68462021FFF76BFF803C4F
:100C7400F0E72246FFF788FD21466846FFF772FF3A
:100C84000446FFF7B7FF204620B070BD0A4B1B781F
:100C940010B504467BB10948402101F0C7FF002884
:100CA400F9D00648214601F0BDFF0448402101F077
:100CB400BDFF0028F9D010BD1C00002000480040F2
:100CC4002DE9F043334D83B06C6804F12E0323F017
:100CD400070300AFADEB030D50238DF80030212343
:100CE4008DF8013000238DF8023003238DF8033092
:100CF40004F121035BBAADF80430274B04F1270853
:100D04006E460DF1060203F11C0153F8040B42F880
:100D1400040B8B42F9D11B78137004F1230922468A
:100D240006F123001D4901F087FF31464A460020A1
:100D340001F0BEF907F1080304F5927443F8040DB9
:100D4400186846F80900FE23B4FBF3F34344073361
:100D540023F00703ADEB030D31464246684601F02C
:100D64007FF904465520FFF791FF6E466C44A64276
:100D740007D016F8010B552808BF0020FFF786FF9F
:100D8400F5E75520FFF782FF00230C376B60BD4663
:100D9400BDE8F0831C000020D02C000824000020B3
:100DA4002DE9F041274C86B0204600F089F84FF435
:100DB4008020012101F0AEFD20460A21072201F026
:100DC40019FC06AE072220460B2101F013FC4FF458
:100DD400806346F8183D002501274FF0020820469D
:100DE40031468DF806508DF807708DF804808DF823
:100DF400058001F0B3FB4FF40063204631460093B5
:100E04008DF8048001F0AAFBADF80C50ADF80E503B
:100E1400ADF81050ADF814500B4D0C4B029328460E
:100E24000C2302A9ADF8123001F096FE284639468B
:100E340001F0ECFE204600F05BF8054B1F7006B095
:100E4400BDE8F081000802400048004040420F0025
:100E54001C00002038B50C4B1A781C469AB1451E6C
:100E640015F8012F7AB163680749FF2B0BD80A2ABA
:100E740002D1FFF725FFF3E70D2A1FBF581C5B18AB
:100E840048601A72ECE738BD1C00002008B5054B19
:100E94001B782BB1FFF7DEFFBDE80840FFF710BF5A
:100EA40008BD00BF1C0000201FB50C2201A901F0E1
:100EB4003AF901A8FFF7CEFF05B05DF804FB000086
:100EC40000F13F4000F57E00C0F3872008280AD8CF
:100ED400054A135C591C11542BB9044901230A6BAC
:100EE400834013430B637047240100200038024001
:100EF40000F13F4000F57E00C0F3872008280DD89C
:100F0400074A135C53B1013BDBB2135433B90549AF
:100F140001230A6B834022EA03030B63704700BF7B
:100F2400240100200038024002460068838823F42C
:100F3400E0631B041B0C838003889BB243F400739F
:100F4400038008230020517513751076704737B558
:100F540004460D46FFF7B4FF0023204669468DF88A
:100F640004308DF805308DF80730009501F0F6FA5D
:100F74002046FFF7BDFF03B030BD000010B50B4C99
:100F8400342300FB0344236B7BB10A2001F0B5F842
:100F94006068A168FFF7DBFF20696169FFF7D7FF8D
:100FA400236B0120BDE81040184710BDF02C000849
:100FB400F7B5044616460F461D46FFF781FF02218A
:100FC40001238DF804108DF805108DF806302046A5
:100FD400002369468DF80730009701F0BFFA2046D8
:100FE40031462A4601F006FB2046FFF781FF03B095
:100FF400F0BD0000027D082A10B5044607D102683E
:10100400938823F4C0631B041B0C938084E0434B3C
:10101400006803EB8203996E01F0BCFB00287BD0CF
:10102400237D072B72D8DFE803F0040B1921323B30
:101034005A6E237A226803F0FE03138201232DE003
:101044002268A37A1382637A0BB1022326E0938881
:101054009BB243F48063938006231FE022681388C5
:101064009BB243F480731380032317E0237A22682E
:1010740043F001031382E37A012B01BF138823F4A5
:1010840080631B041B0C08BF1380042306E0226842
:1010940093889BB243F480639380052323753BE0DC
:1010A40023682269198A237BD154237BE27A013392
:1010B400DBB2591C9142237307D12268138823F4AD
:1010C40080631B041B0C138026E0934224D1226806
:1010D400938823F480631B041B0C938013E0237B0D
:1010E40021692268CB5C1382237BE17A0133DBB272
:1010F4009942237310D1938823F480631B041B0C3F
:1011040093800723CAE72046012101E020460021FD
:10111400BDE81040FFF708BF002010BDF02C000808
:101124007FB51D4D1C2303FB005306461B790BB9E9
:10113400FFF724FF194C342306FB03446068A168BD
:10114400A289A37BFFF734FF228BA37E2069616908
:10115400FFF72EFFE069012101F0DCFB684601F096
:10116400F3FA0F4A236A009393424FF48063ADF875
:101174000A304FF01C0384BF626AADF8062003FBFB
:1011840006F46946285901F075FA2859012101F03D
:10119400E9FA04B070BD00BF30010020F02C000853
:1011A400A086010073B504460E460025FFF788FEAD
:1011B4000123204669468DF8043000968DF80550C9
:1011C4008DF8075001F0CAF92046B1B22A4601F061
:1011D4000CFA2046FFF78CFE02B070BD10B5094C26
:1011E400342300FB0344236B5BB100209847606801
:1011F400A168FFF7D7FF20696169BDE81040FFF7D8
:10120400D1BF10BDF02C00081C23104A434370B515
:1012140005460F4CD058D61801F0FEF9342305FBCF
:1012240003440021E06901F075FB337923B92846B2
:10123400BDE87040FFF7D2BF6068A168FFF787FE82
:1012440020696169BDE87040FFF781BE300100206C
:10125400F02C00082DE9F347504C9A4694F83830A6
:10126400884691461BB94E4840F2951104E0042883
:1012740004D94B484FF4CB7100F0BEFE494B1844DF
:101284001C2590F88860754363191B790BB90020FD
:1012940081E063591B8B9F0716D41C2070432718C9
:1012A40000259DF828300B9A87F8089087F80AA043
:1012B40087F80980FB723D733D753A61FD822058C1
:1012C400012101F05BFA2AE03046FFF79DFF30462A
:1012D400FFF726FF6159344B0A8B9007DDD5013B9C
:1012E400FAD1D4E71C2303FB06431B7E23B1019BE5
:1012F4005A1E0192002BF5D11C2303FB0643002246
:101304001A76019903F1100239B3117908291AD117
:1013140055791C2303FB06431B7D082B2BD01C2370
:101324007343E018E1580A8892B242F480720A804A
:10133400E25893889BB243F440739380012303766D
:10134400194B0193D3E7D188B1F57A7F05D20131E6
:10135400D180012000F0D1FEDBE719688B8823F4EB
:10136400E0631B041B0C8B800B889BB243F400735B
:101374000B80082313711C237343E1580A4B0A8B17
:10138400920707D5013BFAD13046FFF73DFF3046BF
:10139400FFF7C6FE284602B0BDE8F0873001002002
:1013A400C82F0008F02C000880841E00017D03680B
:1013B400082906D19A8822F480721204120C9A80A9
:1013C40038E09A8A120541BF9A8A22F40062120414
:1013D400120C48BF9A829A8AD20541BF9A8A22F493
:1013E40080721204120C48BF9A829A8A52051ED542
:1013F4009A8A22F480621204120C04299A820AD175
:10140400032202759A8822F4E0621204120C9A8074
:10141400002303760EE0012909D19A8822F4E062C0
:1014240012040021120C01759A80017602E0002159
:10143400FFF77ABD002070472DE9F3411D4C1E4E85
:1014440000251E4F56F8283C44F8043C1C2202FB9D
:1014540005720023237013760822227432788DF8E3
:1014640004204FF001080C2201A82372E371E36009
:101474008DF805208DF806308DF8078000F0F2FE17
:1014840073788DF8043001A800F0ECFE54F8040CD5
:1014940001F0C2F8454504F11C0406F1340601D0FC
:1014A4004546CEE7284687F83850FFF797FE02B046
:1014B400BDE8F08134010020182D0008300100201F
:1014C40073B5144C94F838200346254622B91248C3
:1014D40040F2331100F090FD042807D90522009250
:1014E4000D480E4A40F2351100F07AFD0C4A1344BF
:1014F40093F888401C2303FB04521E46127912B948
:101504002046FFF70DFE06FB0454237901332371B3
:1015140002B070BD30010020C82F0008CE2F000893
:10152400F02C0008104A08B592F838301BB90F485F
:1015340040F2451104E0042804D90C484FF4A37187
:1015440000F05AFD0A4B18441C2390F8880003FB52
:10155400002213793BB1013BDBB213711BB9BDE827
:101564000840FFF751BE08BD30010020C82F000815
:10157400F02C000837B50D4614460093069B0193E2
:1015840001212A462346FFF765FE03B030BD07B5A7
:1015940000930123FFF7EEFF03B05DF804FB37B5BA
:1015A4000D4614460093069B019300212A462346C8
:1015B400FFF750FE03B030BD1FB504AC04F8013D85
:1015C40001230094FFF7EBFF04B010BD0148FFF7BF
:1015D40011BD00BF300100200148FFF7E7BE00BF86
:1015E400300100200148FFF705BD00BF4C01002079
:1015F4000148FFF7DBBE00BF4C010020FFF71EBA15
:1016040030B585B004460D46684601F027F90DB99A
:10161400029805E0012D01D1039801E000F0F6FCE9
:10162400B4EB500F0ED8B0FBF4F000F070FD0028BE
:1016340002DC0748272103E0082804DD04482821A8
:1016440000F0DAFC01200138C00080B205B030BDE2
:10165400FA2F0008B0F1006F10B504460BD20C4805
:10166400FFF7F8FB2046FFF71FFC0A48FFF7F2FBE1
:101674004FF0FF3010BD084B002053F8042BA2425A
:1016840002D81A68944202D301300B28F5D110BD58
:101694007230000800300008802D00082DE9F8435E
:1016A40006462A480C4617469846FFF7D3FB3046B1
:1016B400FFF7FAFB2648FFF7CDFB2046FFF7F4FBC4
:1016C4002448FFF7C7FBD4B33046FFF7C3FF0546F2
:1016D400601E3044FFF7BEFF002D814632DB002838
:1016E40030DB461B01361FB1002031464246B84765
:1016F40000F01AFE2C464C451FDCF32000F02AFEB5
:10170400154B002133F8140000F05CFE09280BD0BF
:101714001248FFF79FFB2046FFF7C6FB1048FFF770
:10172400B5FB00F00FFE0DE02FB1C5F10100204420
:1017340031464246B8470134DDE700F003FE01209C
:10174400BDE8F8830020BDE8F88300BF1B30000823
:101754002F30000832300008B02D00083630000861
:10176400843500082DE9F0470646234814460D4603
:101774001F46FFF76FFB3046FFF796FB1F48FFF746
:1017840069FB2046FFF790FB1D48FFF763FB00F061
:10179400CBFDF32000F0DEFD4FEAD41805EB04097D
:1017A4002C464C45C5EB040A20D0701B204414F889
:1017B400011B00F03DFE09280DD01248FFF74AFB3B
:1017C4003046FFF771FB1048FFF760FB00F0BAFDED
:1017D4000020BDE8F087002FE3D01AF07F0FE0D19E
:1017E4004FEADA104146089AB847DAE700F0AAFD52
:1017F4000120BDE8F08700BF4E3000082F300008FC
:1018040032300008623000088435000808B545F21B
:10181400555000F0CDFF042000F0D0FF40F6FF70DB
:1018240000F0D2FF002000F0C3FF4FF480500121EC
:10183400BDE8084000F06CBD08B57D2001F0BEF89D
:10184400003018BF012008BD4900FEF775BF4B08E2
:1018540003EB5000FEF770BF70B586B00546FFF786
:10186400ABF901210020FEF767FF042000F01EFB06
:1018740003A8294600F066FB03A800F072FB08B930
:1018840028480BE02848FFF701FB05F10C000499F8
:10189400FFF7D9F9059B984204D02448FFF7F6FADC
:1018A40001203DE0049C2248FFF7F0FA2146214A3A
:1018B40021480023FFF7F2FE049E2048FFF7E6FAD2
:1018C400002405F1C0411E4B009432460C311A48E5
:1018D400FFF748FF1B48FFF7BDFA0498FFF7E4FA47
:1018E4001948FFF7B7FA04991348FFF797F9054623
:1018F4001648FFF7AFFA0598FFF7D6FA1448FFF732
:10190400A9FA2846FFF7D0FA1248FFF7BFFA059B59
:101914009D4204D01048FFF7B9FA022000E02046A7
:1019240006B070BD7B30000899300008B63000085E
:10193400D93000084D18000800400008EC300008B9
:1019440053180008FF3000080D3100081631000854
:1019540029310008843500082F31000808B5022019
:1019640000F0BCFAD8B3042000F0B8FA70B11C48F7
:10197400FFF78CFA042000F0A5FA022000F0A2FA86
:101984004FF40040BDE8084000F09CBA1548FFF74A
:101994007DFA082000F096FA102000F093FA202037
:1019A40000F090FA402000F08DFA4FF48010FFF719
:1019B40053FF022807D1082000F078FA102000F025
:1019C40075FA00F045FB042000F07CFA022000F0D8
:1019D40079FA4FF40040BDE8084000F067BA08BD4A
:1019E4007A310008B031000810B52548FFF74EFAE7
:1019F4004FF40010FFF730FF10B102283AD809E085
:101A0400202000F05FFA402000F05CFA802000F013
:101A14004DFA2FE0082000F049FA102000F046FAB1
:101A2400202000F05BFA20B91648FFF72FFA202097
:101A340007E0402000F052FA58B91348FFF726FA9D
:101A4400402000F033FA4FF4007000F02FFA00F059
:101A5400FFFA0E48FFF71AFA082000F033FA1020B4
:101A640000F030FA202000F02DFA402000F02AFA8D
:101A7400002400E00124042000F024FA204610BDD4
:101A8400CB310008E53100081E3200085732000847
:101A940008B50248FFF7FAF900BEFEE791320008E4
:101AA4001EF0040F0CBFEFF30880EFF30980FFF77B
:101AB400EFBF70471FB504461048FFF7E7F901A9C7
:101AC4000C22204600F02FFB01A8FFF7DFF9204687
:101AD400FEF74AFEFEF7FAFF094B20F004001870E7
:101AE4001C46FEF7F3FF237800F0FB00834201D08D
:101AF40000F0AEFA0A2000F000FBF2E7873200089B
:101B0400690100207FB54FF08050012100F002FFF1
:101B1400022000F065FE012807D1022000F06AFED1
:101B2400BB48FFF7B3F900F098FA00214FF080505A
:101B340000F0F0FEFFF734F9B648FFF7A7F9B6480E
:101B4400FFF7A4F9B548FFF7A1F9B548FFF79EF9E7
:101B5400B448FFF79BF9B448FFF798F9B348FFF787
:101B640095F9B348FFF792F9B248FFF78FF9B248F5
:101B7400FFF78CF9FFF760FCFEF710FF00F0B8F9EF
:101B840000F0CEF900210C2201A801F060F800F069
:101B9400C3F901A90C2200F0C6FA01A8FFF776F9EF
:101BA4009C48FFF773F99B48FFF770F94FF48040A6
:101BB40000F094F990B1A148FFF768F94FF4804020
:101BC40000F080F9082000F07DF9102000F07AF987
:101BD400202000F077F9402000F074F9FEF7D8FDDA
:101BE400FEF782FFFEF74EFDFEF706FB08B19448B0
:101BF40003E0FEF745FB10B19248FFF75BFF00F0EE
:101C04008AF9802000F06AF918B1802000F05AF9AE
:101C140056E04FF4003000F061F9044620B14FF46F
:101C2400003000F04FF94DE00120FEF739FFB0B16C
:101C34002046FEF735FF90B18348FFF727F941F2BC
:101C440088340120FEF72CFF98B10020FEF728FF0E
:101C540078B1012000F051FA013CF2D132E07B4B23
:101C64000CCB013301D0013203D17948FFF70EF9CF
:101C740028E0FFF7E1FD48B3FFF7DEFD10B175483A
:101C8400FFF704F94FF4007000F028F910B172481E
:101C9400FFF7FCF84FF4007000F014F9102000F086
:101CA4001DF9002800F0EE806C48FFF7EFF80820DB
:101CB40000F008F9102000F005F9FFF795FE98B937
:101CC40067489AE76748FFF7E1F8F6E74FF40070D2
:101CD40000F004F90028CFD1082000F0F3F8102018
:101CE40000F0F0F8FFF73AFE4FF4005000F0F6F879
:101CF40004464FF4805000F0F1F8400040EA8400BC
:101D0400C4B24FF4006000F0E9F82043C0B20728E1
:101D1400C3B20DD14FF4006000F0D4F84FF48050FA
:101D240000F0D0F84FF4005000F0CCF84E4864E7CF
:101D34000133DBB2023B4FF40060052B11D8DFE81E
:101D440003F00C1003100C1000F0BCF84FF480509A
:101D540000F0B8F84FF4005003E000F0B3F84FF48B
:101D6400805000F0A3F8FFF751FD384B3F485D6801
:101D74001E68FFF76FF82846FFF796F83C48FFF710
:101D840069F80022930003F1604303F561430132D3
:101D94004FF0FF31082AC3F88010C3F88011F1D145
:101DA400344B4FF4801200241A635C639C631C64FC
:101DB4005C6400F02FFD3048012100F0C3FD214692
:101DC4002D4800F0BFFDF120012100F0C7FD2146A0
:101DD400F12000F0C3FD0120014600F0CBFD2146B7
:101DE400012000F0C7FD2548012100F0CFFD214668
:101DF400224800F0CBFD2248012100F0D3FD204809
:101E0400214600F0CFFD63B64FF0FF3EB5462847AC
:101E14009C32000884350008A9320008C03200084A
:101E2400D932000807330008363300086633000847
:101E340097330008C9330008FB3300082C3400082A
:101E4400014550FE024550FE593400080040000888
:101E54008B3400089E340008B6340008D6340008D9
:101E6400034550FE4A350008044550FE6935000814
:101E74007D350008003802400010E022FFC9FEF65C
:101E8400337F7704082000F029F820B10548FEF7D5
:101E9400FDFF102003E00448FEF7F8FF082000F0DF
:101EA40005F81FE7FE3400082435000810B5044681
:101EB400002000F0A7FD40EA04010020BDE8104026
:101EC40000F090BD10B50446002000F09BFD20EA10
:101ED40004010020BDE8104000F084BD10B50446A4
:101EE400002000F08FFD204214BF0120002010BD0F
:101EF40008B54FF08050012100F00CFD012000F0E6
:101F040069FC0120FFF7EAFF20B90121BDE8084080
:101F140000F068BD08BD7047022000F073BD0000EA
:101F240008B5FFF7F9FF054B1968884204D0022071
:101F3400BDE8084000F056BD08BD00BF840100089C
:101F440000BEFDE71FB504460C2201A8FEF71CFCE9
:101F540001AB03CB20601868A0602046616004B028
:101F640010BD0068A0F10C035842584170470000AE
:101F740080B50646174610480D461C46FEF76AFF14
:101F84003846FEF767FF0D48FEF764FF3046FEF75C
:101F940061FF0B48FEF75EFF2846FEF785FF2CB174
:101FA4000848FEF757FF2046FEF754FF0648FEF7A1
:101FB4006DFFFFF7C5FF00BF853500088E350008AB
:101FC400913500088F350008843500081FB506AA2E
:101FD40052F8044B039200921A462346FFF7C8FFB7
:101FE4000CB41FB506AA52F8043B03920092014AAE
:101FF400FFF7BEFF9335000807B500230093724630
:10200400014BFFF7E3FF00BF9A350008744608B59B
:102014000548FEF71FFF2046FEF746FF0348FEF77C
:1020240035FFFFF78DFF00BFA23500088435000897
:10203400BFF34F8F0449054BCA6802F4E0621343AF
:10204400CB60BFF34F8FFEE700ED00E00400FA051C
:1020540008B5FEF791FBFFF7EBFF08B5FFF7E8FFC4
:10206400F0B50646002401202546034694421DD0BF
:1020740011F804C000F1010EBCF1000F03D1735537
:10208400774605460DE00133DBB2FF2B774606F8B1
:1020940000C007D102F1FF3C644506D07355871C8C
:1020A4007546012301343846E0E770467355F0BDA8
:1020B40030B5C9B1C0430A44914213D011F8013B71
:1020C4000A4D83EA000404F00F0455F8244084EA1E
:1020D400101080EA131303F00F0355F8233083EA3A
:1020E4001010E9E7C04330BD084630BDC82D0008D4
:1020F400162358430138FDD1704710B504462CB15E
:102104004FF47A70FFF7F4FF013CF8E710BD10B507
:10211400B0FA80F400F027F801280CBFC4F11F00C6
:10212400C4F1200010BD0A2A10B51BDD0C46302373
:1021340004F8023B78234B701C220F239340034086
:10214400D340092B01D8303302E00F2B02D8573388
:10215400DBB200E02023043A04F8013B131DECD168
:1021640000238B7210BD00F0AA33A0EB530000F0E3
:10217400CC3300F0333000EB930000EB101000F090
:102184000F3000EB102000EB104000F03F007047D0
:102194002D4AD2F8883043F47003C2F888302B4BB0
:1021A4001A68002142F001021A6099601A6822F04C
:1021B400847222F480321A60254A5A601A6822F422
:1021C40080221A60D9601A6C224942F080521A6443
:1021D4000A6842F440420A609A689A609A689A606F
:1021E4009A6842F480529A601B4A5A601A6842F014
:1021F40080721A601968154A8901FBD5174B40F2A1
:1022040003611960936823F003039360936843F0B8
:10221400020393600D4B9A6802F00C02082AF9D16C
:102224009A6822F400029A600D4AC3F884201A685E
:1022340042F080621A60054B1B681B01FBD5024B00
:102244004FF000629A60704700ED00E000380240F1
:1022540010300024007000401040010F003C024088
:1022640000300050C278037810B512B3164AD16812
:102274004278C943C1F30221C1F10404E4B2A2408B
:10228400D4B20F220A4181780A40224303F1604309
:1022940003F561431201D2B283F8002303780122CB
:1022A400590903F01F0302FA03F3084A42F82130E4
:1022B40010BD5A09012103F01F03994002F12003C4
:1022C400024A42F8231010BD00ED00E000E100E0F6
:1022D400014B01229A60704700300240014B1860A4
:1022E400186870470030024000EB81018842044BBB
:1022F40003D050F8042B1A60F8E71868704700BF41
:1023040000300240014B1868704700BF00300240A3
:10231400044B9A6809B1104301E022EA0000986076
:10232400704700BF002004E0044B1A69002ABFBFB5
:10233400034A5A6002F188325A607047003C0240F6
:1023440023016745024A136943F000431361704750
:10235400003C0240014BD860704700BF003C024083
:102364000E4BDA68D20310D4DA68D1060FD4DA68D7
:10237400D2050ED4DA6812F0EF0F0CD1DB6813F03B
:10238400020F14BF0820092070470120704706205F
:102394007047022070470720704700BF003C02408E
:1023A40007B509238DF80730FFF7DAFF8DF807002A
:1023B4009DF80730012BF7D09DF8070003B05DF8B6
:1023C40004FB000070B5064641B1012908D002297A
:1023D4000CBF4FF400754FF4407503E00D4601E067
:1023E4004FF48075FFF7DCFF09281ED10F4C2369D9
:1023F40023F440732361216929432161236923F074
:10240400F8032361236943F002031E432661236911
:1024140043F480332361FFF7C3FF236923F00203EE
:102424002361236923F0F803236170BD003C02405B
:1024340070B505460E46FFF7B3FF092811D1094CC4
:10244400236923F44073236123692361236943F0DF
:10245400010323612E70FFF7A3FF236923F0010317
:10246400236170BD003C024070B543688668856A8C
:102474000468416B46EA0302C3681A4303691A43BA
:1024840043691A4383691A43C3691A43036A1A43A3
:10249400436A1343C26A2B431A43036B1343A200D8
:1024A40002F120420B43082E136002BF136843F06D
:1024B40040031360B1F5801F816B12D18CB14FF0D2
:1024C40020435C681E6846F480161E601E6846F44D
:1024D40080761E600E6924F47004013E44EA0654BA
:1024E4005C608C690B6823434C6843EA04138C6872
:1024F40043EA0423CC6843EA04430C69496943EA88
:10250400045343EA0163B5F5804F536010D1C16BA6
:1025140088690B680343486843EA0013886843EA00
:1025240000230869496943EA005343EA016301E06F
:102534006FF07043C2F8043170BD0000800000F1F8
:10254400204019B1036843F0010302E00268024B22
:1025540013400360704700BFFEFF0F00F0B50E6824
:1025640000220123934003EA060E9E452AD155001A
:1025740003230468AB40DB431C4004600C79076808
:1025840004FA05FC013C4CEA0707012C076011D84A
:1025940084684F791C4084608468AF402743876017
:1025A400446824EA0E0444608C7947689440A4B2D9
:1025B4003C434460C4682340C360CB79C468AB40E7
:1025C4002343C3600132102ACBD1F0BD4FF6FF7311
:1025D40003600023037143718371C37170470369FE
:1025E400194214BF0120002070470AB101837047CB
:1025F4004183704701F00703C90800EB810010B55F
:102604009B00046A0F21994024EA01010162016AD6
:102614009A401143016210BD08B5134B984207D18B
:102624004FF40010012100F0B1F94FF4001014E050
:102634000E4B984207D14FF48000012100F0A6F917
:102644004FF4800009E00A4B98420BD14FF400008C
:10265400012100F09BF94FF400000021BDE808407F
:1026640000F094B908BD00BF005400400058004079
:10267400005C00407FB5868826F03F060446360499
:1026840068460D46360C00F0E9F8029A2C48B2FB75
:10269400F0F081B20E43A68023882A4E23F0010372
:1026A4001B041B0C23802B68B3420AD85B00013146
:1026B400B2FBF3F39BB2032B89B298BF04232184AA
:1026C40023E0EE884BF6FF718E421BBF19214B436A
:1026D40003EB4303B2FBF3F315BF9BB2B2FBF3F37B
:1026E40043F480439BB2C3F30B020AB943F00103E2
:1026F4004FF4967101FB00F24FF47A7192FBF1F200
:10270400013292B243F400432284A383238869896B
:10271400AA889BB243F001032380238823F48163B6
:1027240023F002031B040A431B0C13439BB22380B4
:102734002A89AB8913439BB2238104B070BD00BFC7
:1027440040420F00A086010041F288330360002359
:1027540083804BF6FF72038143814FF48043C28030
:1027640083817047038819B19BB243F0010303E0EE
:1027740023F001031B041B0C03807047038819B169
:102784009BB243F4806303E023F480631B041B0CBB
:1027940003807047838A9AB2038B10B542EA0343DD
:1027A40021F07F4404EA0300431A5842584110BD03
:1027B400014B1860704700BF00300040014B586067
:1027C400704700BF00300040014B9860704700BF65
:1027D40000300040014B1860704700BF20000E42DB
:1027E400034B5B68184214BF01200020704700BFF0
:1027F40000700040064BB0F5402F15BF1A685A68A8
:1028040042EA800042F4402214BF18605A607047C4
:10281400007000400E4B1A68002142F001021A6059
:1028240099601A6822F0A85222F410221A60094A08
:102834005A60094AC3F8842002F18062C3F88820F0
:102844001A6822F480221A60D960C3F88C10704789
:102854000038024010300024003000201D4A9368E4
:1028640003F00C03042B10B503D0082B03D01A4B30
:1028740018E01A4B16E05168536811F4800F03F006
:102884003F03516814BF154A134AB2FBF3F3114ACC
:102894005268C2F30142C1F3881101324B43520022
:1028A400B3FBF2F30B4A036093680D49C3F30313BC
:1028B400CC5C0368E34043609468C4F382240C5DF9
:1028C40023FA04F484609268C2F342328A5CD340EF
:1028D400C36010BD003802400024F40040787D013C
:1028E40001000020044B1A6B09B1104301E022EAF5
:1028F40000001863704700BF00380240044B9A6B15
:1029040009B1104301E022EA00009863704700BF58
:1029140000380240044B1A6C09B1104301E022EA6A
:1029240000001864704700BF00380240044B5A6C22
:1029340009B1104301E022EA00005864704700BF67
:1029440000380240044B1A6909B1104301E022EA3D
:1029540000001861704700BF00380240044B5A69F8
:1029640009B1104301E022EA00005861704700BF3A
:1029740000380240044B9A6909B1104301E022EA8D
:1029840000009861704700BF00380240044B1A6A87
:1029940009B1104301E022EA00001862704700BF49
:1029A40000380240044B5A6A09B1104301E022EA9C
:1029B40000005862704700BF003802404209012AF3
:1029C400074B01D11B6803E0022A0CBF1B6F5B6F2E
:1029D40000F01F0023FA00F000F00100704700BF70
:1029E4000038024082B000230193054B0193019B00
:1029F40003EB80000190019B196002B0704700BF97
:102A04005028004082B000230193054B0193019BA1
:102A140003EB80000190019B186802B0704700BF6F
:102A24005028004008B5254B984207D14FF48050F8
:102A34000121FFF7B7FF4FF4805039E0204B984253
:102A440007D14FF480400121FFF7A0FF4FF48040ED
:102A540009E01C4B98420BD14FF400400121FFF7D1
:102A640095FF4FF400400021BDE80840FFF78EBFFA
:102A7400154B984207D14FF400500121FFF792FF04
:102A84004FF4005014E0114B984207D14FF48010DA
:102A94000121FFF787FF4FF4801009E00C4B9842A7
:102AA4000BD14FF400100121FFF77CFF4FF400100D
:102AB4000021BDE80840FFF775BF08BD00300140A4
:102AC40000380040003C0040003401400050014008
:102AD4000054014003884A8810B503F441540B881C
:102AE40013438A881343CA8813430A8913434A89C0
:102AF40013438A891343CA89134323439BB2038034
:102B0400838B23F400631B041B0C83830B8A0382D3
:102B140010BD0023038043808380C38003814381ED
:102B24008381C381072303827047038819B19BB251
:102B340043F0400303E023F040031B041B0C038019
:102B44007047808980B27047818170470389194238
:102B540014BF0120002070477FB5038ACA889BB246
:102B640023F440531343038283890E469BB223F418
:102B7400B053098923F00C02B3880B4371890B43CA
:102B84009BB213438381838AB2899BB223F440733B
:102B94001343838204466846FFF760FE1A4B9C4247
:102BA40003D003F580639C4201D1039D00E0029DA4
:102BB400A38931681BB2002B4FF0190202FB05F206
:102BC400B4BF4D008D00B2FBF5F5A2896426B5FBB8
:102BD400F6F00001010912B2002A06FB1153ADBF41
:102BE4001A01D90032313232B5BFB1FBF6F2B2FB71
:102BF400F6F302F0070203F00F03B4BF10431843C7
:102C040080B2208104B070BD00100140838919B1E5
:102C14009BB243F4005303E023F400531B041B0C46
:102C240083817047C1F3080181807047038819428A
:102C340014BF01200020704710B5431E0A4491427E
:102C440004D011F8014B03F8014FF8E710BD02441A
:102C54000346934202D003F8011BFAE770470000D1
:102C64000400000001030000010000000100000056
:102C740003000000010000000F0000000F0000002E
:102C840000000000AE2F00080018024010000000F1
:102C940006040000B32F00080018024008000000DA
:102CA40006030100B62F00080018024002000000CD
:102CB40006010100BD2F00080018024004000000B6
:102CC40006020100000000000000000001424F4F16
:102CD400544C4F414445520000000000002A2A0091
:102CE400000000000000000000000000005400404C
:102CF40000040240400000000600040000040240FA
:102D0400000200000900040000002000801A0600F0
:102D1400004000001F200000000000000000000030
:102D240000580040001402400200000001000400AA
:102D340000140240010000000000040000004000F4
:102D4400801A0600FFBF00002122000000000000DE
:102D54000116000801000300820007008400070038
:102D6400010003000200030040000300800007008C
:102D740084000700000001000000000000000008BB
:102D8400004000080080000800C00008000001089E
:102D940000000208000004080000060800000808FB
:102DA40000000A0800000C0800000E0800000800DB
:102DB40010001800200028003000380040004800AF
:102DC40050005800000000006410B71DC8206E3B7E
:102DD400AC30D9269041DC76F4516B6B5861B24D1E
:102DE4003C7105502083B8ED44930FF0E8A3D6D688
:102DF4008CB361CBB0C2649BD4D2D38678E20AA0F0
:102E04001CF2BDBD537475636B20627574746F6E70
:102E140020726567697374657220697320696E76C0
:102E2400616C69642C20636C656172696E672E0045
:102E3400427574746F6E206973207075736865646D
:102E440020617420626F6F740069636534306C7044
:102E54002E630043444F4E45206E6F74206C6F7791
:102E640020647572696E67207265736574004352DD
:102E740045534554206E6F742068696768206475F3
:102E840072696E6720726573657400446973706C4F
:102E9400617920627573792D776169742074696D25
:102EA400656F757420657870697265642100436F7D
:102EB4006E6669677572696E672046504741206681
:102EC400726F6D2062697473747265616D20696ECE
:102ED40020666C6173682E2E2E004E6F204650477C
:102EE400412062697473747265616D20696E206635
:102EF4006C6173682E0046616C6C696E6720626158
:102F0400636B20746F204E56434D2E00465047414C
:102F14002043444F4E452074696D656F7574206578
:102F240078706972656421004650474120636F6E72
:102F340066696775726174696F6E206661696C6534
:102F4400642E204973207468697320612062696764
:102F5400626F6172643F0046504741207665727328
:102F6400696F6E3A2000446973706C617920696EF0
:102F7400697469616C697A6564206166746572203C
:102F84000020726574726965732E00446973706CF5
:102F9400617920696E697469616C697A6174696FB9
:102FA4006E206661696C65642E004261636B005536
:102FB400700053656C65637400446F776E006372D0
:102FC400632E63006932632E6300493243206465D3
:102FD40076696365204944206F7574206F662062AA
:102FE4006F756E647320256420286D61783A2025FE
:102FF4006429006F6E007370692E6300206973206A
:103004006F7574736964652073797374656D206674
:103014006C6173680D0A0073797374656D5F666C17
:103024006173685F657261736528002C2000290D47
:103034000A006661696C656420746F20657261734F
:103044006520736563746F72200073797374656DA2
:103054005F666C6173685F77726974652800666186
:10306400696C656420746F2077726974652061648B
:1030740064726573732000496E76616C69642066BE
:1030840069726D77617265206465736372697074C7
:10309400696F6E2100436865636B73756D6D696E4E
:1030A40067206669726D77617265207570646174FA
:1030B4006500496E76616C6964206669726D77613A
:1030C40072652043524320696E2053504920666C38
:1030D400617368210065726173655F6F6C645F661C
:1030E40069726D776172650077726974655F6E6588
:1030F400775F6669726D7761726500436865636BBB
:1031040073756D6D696E6720002062797465730D47
:103114000A00436865636B73756D202D2077616EBB
:10312400746564200020676F7420004F75722069F5
:103134006E7465726E616C20666C61736820636F77
:103144006E74656E747320617265206261642028F8
:10315400636865636B73756D206661696C6564296A
:10316400212054686973206973207265616C6C79DD
:103174002062616421004F75722070726576696FF8
:103184007573206669726D7761726520757064610C
:103194007465206661696C65642C2061626F727469
:1031A400696E67207570646174652E004E657720C2
:1031B4006669726D776172652069732061766169F1
:1031C4006C61626C6521004C6F6164696E6720728A
:1031D40065636F76657279206669726D7761726571
:1031E400004661696C656420746F206C6F616420B3
:1031F4007265636F76657279206669726D77617244
:10320400652C20737472696B65206F6E652E205473
:10321400727920616761696E2E004661696C65642C
:1032240020746F206C6F6164207265636F766572C1
:1032340079206669726D776172652C207374726986
:103244006B652074776F2E205472792061676169F1
:103254006E2E004661696C656420746F206C6F612A
:1032640064207265636F76657279206669726D7722
:103274006172652C20737472696B65207468726561
:10328400652E20534144205741544348004841523D
:1032940044204641554C5400657869742073746128
:1032A4006E64627900205F5F5F5F20202020202011
:1032B4002020202020202020205F5F002F5C202061
:1032C4005F605C20202020202020202020202F2729
:1032D4005F5F605C005C205C2C5C4C5C5F5C20206D
:1032E40020205F5F5F202F5C205C2F5C205C20200F
:1032F4005F5F20205F5F20205F5F20205F5F2020D2
:103304005F5F00205C2F5F5C5F5F205C20202F27C5
:10331400205F20605C205C205C205C205C2F5C20B3
:103324005C2F5C205C2F5C205C2F5C205C2F5C207D
:103334005C002020202F5C205C4C5C205C2F5C20F7
:103344005C2F5C205C205C205C5F5C205C205C204B
:103354005C5F2F205C5F2F205C205C205C5F5C2026
:103364005C002020205C20605C5F5F5F5F5C205C11
:103374005F5C205C5F5C205C5F5F5F5F2F5C205C58
:103384005F5F5F785F5F5F2F275C2F605F5F5F5FCA
:10339400205C00202020205C2F5F5F5F5F5F2F5C3C
:1033A4002F5F2F5C2F5F2F5C2F5F5F5F2F20205CD0
:1033B4002F5F5F2F2F5F5F2F202020602F5F5F5FC5
:1033C4002F3E205C002020202020202020202020B0
:1033D40020202020202020202020202020202020E9
:1033E40020202020202020202020202020202020D9
:1033F4002F5C5F5F5F2F00202020202020202020D2
:1034040020202020202020202020202020202020B8
:1034140020202020202020202020202020202020A8
:1034240020205C2F5F5F2F004C61737420666972EB
:103434006D7761726520626F6F742077617320739A
:103444007461626C653B20636C6561722073747295
:10345400696B657300486F6C6420646F776E2055E8
:1034640050202B204241434B20666F72203520733D
:103474006563732E20746F20666F7263652D626FAF
:103484006F7420505246004669726D7761726520F0
:10349400697320657261736564005761746368645D
:1034A4006F6720636175736564206120726573655D
:1034B4007400536F667477617265206661696C7518
:1034C400726520636175736564206120726573653C
:1034D40074004661696C656420746F207374617252
:1034E40074206669726D776172652C2073747269D9
:1034F4006B652074687265652E004661696C65644D
:1035040020746F207374617274206669726D7761C0
:1035140072652C20737472696B652074776F2E004A
:103524004661696C656420746F20737461727420E1
:103534006669726D776172652C20737472696B654C
:10354400206F6E652E00466F7263652D626F6F7417
:10355400696E67207265636F76657279206D6F643A
:10356400652E2E2E00426F6F74696E672066697235
:103574006D77617265204020002E2E2E0D0A0D0AF3
:10358400004153534552543A20002020003A004150
:103594005353455254004153534552544E002A2A22
:1035A4002A20575446200053544D33320053544D6F
:1035B4003332207065726970686572616C206C6961
:1035C4006272617279207472697070656420616ED0
:1035D400206173736572740043524F414B204F4F07
:0435E4004D00000096
:1035E800FF000000000102030401020304060708AB
:0435F80009000000C6
:04000005080001B43A
:00000001FF
